S0120000636C6F636B5F746573742E73726563E7
S1134000E03F001031430000854300008543000079
S11340108543000085430000854300000000000044
S113402000000000000000000000000085430000C4
S11340308543000000000000854300008543000024
S1134040854300008543000085430000854300004C
S1134050854300008543000085430000854300003C
S1134060854300008543000085430000854300002C
S1134070854300008543000085430000854300001C
S1134080854300008543000085430000854300000C
S113409085430000854300008543000085430000FC
S11340A085430000854300008543000085430000EC
S11340B085430000854300008543000085430000DC
S11340C085430000854300008543000008B540F2A5
S11340D04840074BC1F200001B1A062B00D808BD4C
S11340E040F20003C0F20003002BF8D09847F6E733
S11340F04B04001008B540F2484040F24843C1F276
S11341000003C1F200001B1A9B1003EBD373591078
S113411000D108BD40F20002C0F20002002AF8D02B
S11341209047F6E710B540F24844C1F20004237802
S113413073B9FFF7CBFF40F20003C0F200032BB1C9
S113414044F2B460C0F20000AFF300800123237096
S113415010BD00BF08B540F20003C0F200034BB12C
S113416044F2B46040F24C41C0F20000C1F20001DC
S1134170AFF3008040F24840C1F2000003682BB165
S113418040F20003C0F2000303B19847BDE80840C1
S1134190B0E700BF014600200246034600F048B8DD
S11341A038B544F2D86444F2D465C0F20005C0F2D4
S11341B00004641BA41018BF05EB840505D0013C62
S11341C055F8043D9847002CF9D1BDE8384000F07B
S11341D07BBA00BF70B544F2C06644F2C065C0F259
S11341E00005C0F20006761BB6101CBF043D002477
S11341F005D0013455F8043F9847A642F9D144F25A
S1134200C86644F2C065C0F20005C0F20006761B21
S113421000F050FAB6101CBF043D002406D001344F
S113422055F8043F9847A642F9D170BD70BD00BF50
S1134230F0B544F2B064C0F20004266885B0D6F844
S113424048410746002C43D065681F2D21DD40F20C
S11342500004C0F200041CB94FF0FF3005B0F0BDFB
S11342604FF4C870039102920193AFF30080039955
S11342700446029A019B0028EED0D6F8485100204B
S1134280256060600546C6F84841C4F88801C4F852
S11342908C013FB96B1C00200235636044F8251083
S11342A005B0F0BD0126AE4004EB8500C0F88820BF
S11342B0D4F88821022F42EA0602C4F88821C0F803
S11342C0083102BFD4F88C311E43C4F88C61E1E795
S11342D006F5A674C6F84841B6E700BF40F20003ED
S11342E0C0F200032BB144F2A110C0F20000FFF7AA
S11342F051BF704708B50C4C00F08CF84FF4807334
S1134300236000F0E3F81023236000F029F9064B42
S113431002241C60204600F04DF8044B20461C602B
S113432000F048F8F3E700BF38C009203CC009207A
S113433008B500230C4A0D499818884204D20C4948
S1134340595899500433F5E70A4B0B4A934203D268
S1134350002243F8042BF8E7FFF73CFF074B084A19
S11343601A60FFF7C7FFFEE72000001048040010A2
S1134370D8460000480400106C04001008ED00E06A
S113438000400000FEE70000830803EBD00303EBCA
S1134390901303EBD01303EB9023054A03EBD020D7
S11343A050605368013B5360002BFAD1704700BF43
S11343B064040010014B5843FFF7E6BF40420F006E
S11343C0104A0023136053609360D3601361D36178
S11343D0536293620C4A1360136213641366C2F847
S11343E080300A4A136053609360D3601361D361D1
S11343F05362074A1360136213641366C2F8803071
S1134400704700BF00C0024000C0092040C0024005
S113441014C0092008B5FFF7D3FF0A4A00234CF261
S113442012711360116240F2B11111644FF04051E6
S11344301366C2F880105361536353655367C2F81F
S1134440943008BD00C00920094B1A6822F4701288
S11344501A60084B1A6822F0C0621A60064B1A6888
S113446042F420121A601A6822F4A0121A607047EB
S113447004C0024000C0092044C0024030B50124F9
S1134480431E9C40202201380D4BC0B2FF281A6005
S11344900C4B11D0214208BF094D4FF0010214BF4B
S11344A01A602A6010221A60074B49001B689B0798
S11344B048BF41F00101E6E720221A60084630BDFA
S11344C05CC0092058C0092054C0092010B50A4C0A
S11344D0FFF7BAFF4FF4007323603220FFF754FF55
S11344E0064B20221A604FF48043236018200449AD
S11344F0BDE81040FFF7C2BF38C0092058C00920EA
S1134500FF7F0D0008B540F0800109041820FFF773
S1134510B5FF80B208BD08B500210820FFF7AEFF43
S1134520C0B208BD08B501460820FFF7A7FFC0B216
S113453008BD08B518200021FFF7A0FF0020FFF7F1
S1134540E1FF0028FAD118204FF40041FFF796FF4D
S11345500020FFF7D7FFB0F5004FF9D108BD0000E8
S113456010B5464B44F23A021A600022C3F80C21FB
S113457080331A68AA2122F002021A60404A1160AC
S1134580552111603F4A12689401FBD41A6822F045
S113459001021A603A4BAA221A6055221A60394B5A
S11345A01B6813F08073FAD1374A1360FFF7C1FF19
S11345B018203649FFF762FF6020FFF7B3FFFFF7CB
S11345C0AAFF4006FBD5324B20221A601A68510616
S11345D0FCD5304B08221A6000225A60012243F8AD
S11345E09C2C2D4A9C3B43F8882CAA2155222B480D
S11345F043F8801C43F8802C046844F001040460F0
S113460043F8801C43F8802C1E4B1B68DA01FBD551
S11346101D4B03221A6053F8842C42F0020243F823
S1134620842CAA2243F8782C552243F8782C154B75
S11346301B689B01FBD51A4B22221A60AA21552222
S1134640184899609A60046844F001040460996011
S11346509A60154B1A68D405FBD51A685005FCD529
S1134660104B1A6842F002021A60AA22DA6055223C
S1134670DA600D4B1B689905FBD510BD00C00F40D7
S11346808CC00F4088C00F4004C10F407015080053
S1134690A0C10F40A8C10F401800010080C00F4006
S11346A0A4C00F40A0C00F40A8C00F4043000000AA
S11346B020000010F8B500BFF8BC08BC9E46704747
S11346C0DD42000055410000F8B500BFF8BC08BC4D
S10B46D09E46704725410000DD
S11346D8000000000C03001074030010DC03001039
S11346E800000000000000000000000000000000BE
S11346F800000000000000000000000000000000AE
S113470800000000AC4600000000000000000000AB
S1134718000000000000000000000000000000008D
S1134728000000000000000000000000000000007D
S1134738000000000000000000000000000000006D
S1134748000000000000000000000000000000005D
S1134758000000000000000000000000000000004D
S1134768000000000000000000000000000000003D
S1134778000000000000000001000000000000002C
S11347880E33CDAB34126DE6ECDE05000B000000F1
S1134798000000000000000000000000000000000D
S11347A800000000000000000000000000000000FD
S11347B800000000000000000000000000000000ED
S11347C800000000000000000000000000000000DD
S903433188
