:10400000E03F00109D450000F1450000F145000033
:10401000F1450000F1450000F145000000000000FE
:10402000000000000000000000000000F14500005A
:10403000F145000000000000F1450000F1450000DE
:10404000F1450000F1450000F1450000F145000098
:10405000F1450000F1450000F1450000F145000088
:10406000F1450000F1450000F1450000F145000078
:10407000F1450000F1450000F1450000F145000068
:10408000F1450000F1450000F1450000F145000058
:10409000F1450000F1450000F1450000F145000048
:1040A0008D440000F1450000F1450000F14500009D
:1040B000F1450000F1450000F1450000F145000028
:1040C000F1450000F1450000F145000008B540F25F
:1040D000C850074BC1F200001B1A062B00D808BDC0
:1040E00040F20003C0F20003002BF8D09847F6E737
:1040F000CB05001008B540F2C85040F2C853C1F2D9
:104100000003C1F200001B1A9B1003EBD37359107C
:1041100000D108BD40F20002C0F20002002AF8D02F
:104120009047F6E710B540F2C854C1F20004237876
:1041300073B9FFF7CBFF40F20003C0F200032BB1CD
:1041400045F26C10C0F20000AFF300800123237031
:1041500010BD00BF08B540F20003C0F200034BB130
:1041600045F26C1040F2CC51C0F20000C1F20001E7
:10417000AFF3008040F2C850C1F2000003682BB1D9
:1041800040F20003C0F2000303B19847BDE80840C5
:10419000B0E700BF014600200246034600F048B8E1
:1041A00038B545F2901445F28C15C0F20005C0F206
:1041B0000004641BA41018BF05EB840505D0013C66
:1041C00055F8043D9847002CF9D1BDE8384000F07F
:1041D000D7BF00BF70B545F2781645F27815C0F22A
:1041E0000005C0F20006761BB6101CBF043D00247B
:1041F00005D0013455F8043F9847A642F9D145F25D
:10420000801645F27815C0F20005C0F20006761B54
:1042100000F0ACFFB6101CBF043D002406D00134F2
:1042200055F8043F9847A642F9D170BD70BD00BF54
:10423000F0B545F24014C0F20004266885B0D6F807
:1042400048410746002C43D065681F2D21DD40F210
:104250000004C0F200041CB94FF0FF3005B0F0BDFF
:104260004FF4C870039102920193AFF30080039959
:104270000446029A019B0028EED0D6F8485100204F
:10428000256060600546C6F84841C4F88801C4F856
:104290008C013FB96B1C00200235636044F8251087
:1042A00005B0F0BD0126AE4004EB8500C0F88820C3
:1042B000D4F88821022F42EA0602C4F88821C0F807
:1042C000083102BFD4F88C311E43C4F88C61E1E799
:1042D00006F5A674C6F84841B6E700BF40F20003F1
:1042E000C0F200032BB144F2A110C0F20000FFF7AE
:1042F00051BF704708B500F009FB00F0C9F800F0A5
:10430000B3F8431CFBD0064B1B6813F0020F14BF1D
:10431000044A054A0223136000F098F8EFE700BF53
:1043200034C009203CC0092038C00920C30602D58A
:10433000014B00221A607047E405001070B500249C
:1043400006460B4800F10C01214400F0F9F810B1C9
:104350000134402CF5D1074D304605F110012246BD
:1043600000F04AFC0123402C2B6018BF2B6570BD68
:10437000E8050010E405001038B5084C256865B95B
:10438000201D00F0F5F840B125602565236D23B9A7
:104390008220BDE83840FFF7D1BF38BDE4050010EA
:1043A00070B504460B4800F0F3F83F2810DD2046B6
:1043B0000949402200F050FC074D06460024B44253
:1043C00006DA0448295D00F0A3F808B10134F6E7E5
:1043D00070BD00BF38060010F405001010B543781A
:1043E0000C46212B0BD0222B0DD0202B01D00020EE
:1043F00010BD11680548072200F02AFE01E0034BBA
:10440000136007232360012010BD00BF4804001083
:10441000034B00221A601B6D0BB9FFF78FBF70476B
:10442000E405001010B5084C201D04F1600100F0F7
:1044300069F804F1540004F1E00100F063F800238E
:1044400023600123236510BDE405001010B5044668
:10445000E1B2044800F05CF8002814BF20464FF099
:10446000FF3010BDE805001007B507480DF1070142
:1044700000F066F810B19DF8070001E04FF0FF3042
:1044800003B05DF804FB00BF3806001000F020BC4C
:1044900008B500F0DFFA134800F00CFD124A0120C5
:1044A000124900F0CDFA8120002100F03DFB82206E
:1044B0000F4900F039FB0F49052000F035FB0E488D
:1044C00000F058FB0D4800F049FBFFF7ABFF0C4B29
:1044D00001201A6842F080721A60BDE8084000F0BE
:1044E0005ABB00BF5004001044070010DD43000019
:1044F00011440000A1430000794300002D43000057
:1045000000E100E000230360436081607047000029
:1045100010B50268094B541C2340002B03DA013B01
:1045200063F07F0301334468A34204D08468A1543C
:104530000360012010BD002010BD00BF7F0000807F
:1045400090E80C009A420ED08268D25C0A705A1C25
:10455000064B1340002B03DA013B63F07F0301336A
:104560004360012070470020704700BF7F0000803B
:1045700003684268803305489B1A1840002803DA14
:10458000013860F07F000130704700BF7F0000807D
:1045900008B5FFF7EDFFC0F17F0008BD08B50023A7
:1045A0000C4A0D499818884204D20C495958995020
:1045B0000433F5E70A4B0B4A934203D2002243F837
:1045C000042BF8E7FFF706FE074B084A1A60FFF7CF
:1045D00091FEFEE720000010C80500109051000079
:1045E000C8050010E807001008ED00E000400000DA
:1045F000FEE70000830803EBD00303EB901303EB0B
:10460000D01303EB9023054A03EBD020506053688E
:10461000013B5360002BFAD1704700BF4C070010DC
:10462000104A0023136053609360D3601361D36119
:10463000536293620C4A1360136213641366C2F8E8
:1046400080300A4A136053609360D3601361D36172
:104650005362074A1360136213641366C2F8803012
:10466000704700BF00C0024000C0092040C00240A7
:1046700014C0092008B5FFF7D3FF0A4A00234CF203
:1046800012711360116240F2B11111644FF0405188
:104690001366C2F880105361536353655367C2F8C1
:1046A000943008BD00C00920094B1A6822F470122A
:1046B0001A60084B1A6822F0C0621A60064B1A682A
:1046C00042F420121A601A6822F4A0121A6070478D
:1046D00004C0024000C0092044C0024030B501249B
:1046E000431E9C40202201380D4BC0B2FF281A60A7
:1046F0000C4B11D0214208BF094D4FF0010214BFED
:104700001A602A6010221A60074B49001B689B0739
:1047100048BF41F00101E6E720221A60084630BD9B
:104720005CC0092058C0092054C0092010B50A4CAB
:10473000FFF7BAFF4FF4007323603220FFF75AFFF0
:10474000064B20221A604FF480432360182004494E
:10475000BDE81040FFF7C2BF38C0092058C009208B
:10476000FF7F0D0008B540F0800109041820FFF715
:10477000B5FF80B208BD08B500210820FFF7AEFFE5
:10478000C0B208BD08B501460820FFF7A7FFC0B2B8
:1047900008BD08B518200021FFF7A0FF0020FFF793
:1047A000E1FF0028FAD118204FF40041FFF796FFEF
:1047B0000020FFF7D7FFB0F5004FF9D108BD00008A
:1047C00010B5464B44F23A021A600022C3F80C219D
:1047D00080331A68AA2122F002021A60404A11604E
:1047E000552111603F4A12689401FBD41A6822F0E7
:1047F00001021A603A4BAA221A6055221A60394BFC
:104800001B6813F08073FAD1374A1360FFF7C1FFBA
:1048100018203649FFF762FF6020FFF7B3FFFFF76C
:10482000AAFF4006FBD5324B20221A601A685106B7
:10483000FCD5304B08221A6000225A60012243F84E
:104840009C2C2D4A9C3B43F8882CAA2155222B48AE
:1048500043F8801C43F8802C046844F00104046091
:1048600043F8801C43F8802C1E4B1B68DA01FBD5F3
:104870001D4B03221A6053F8842C42F0020243F8C5
:10488000842CAA2243F8782C552243F8782C154B17
:104890001B689B01FBD51A4B22221A60AA215522C4
:1048A000184899609A60046844F0010404609960B3
:1048B0009A60154B1A68D405FBD51A685005FCD5CB
:1048C000104B1A6842F002021A60AA22DA605522DE
:1048D000DA600D4B1B689905FBD510BD00C00F4079
:1048E0008CC00F4088C00F4004C10F4070150800F5
:1048F000A0C10F40A8C10F401800010080C00F40A8
:10490000A4C00F40A0C00F40A8C00F4008B5FFF7DB
:10491000B1FEFFF70BFFBDE80840FFF751BF0000F5
:1049200038B5084C802025686168402DA8BF402517
:104930002A4600F061F963682B44636023685D1BBD
:10494000256038BD5407001037B5114B1C7A1D4641
:10495000C4F34114022C0DD1002202A941F8042D08
:1049600003F1080003F11002043300F06FFA08B1FC
:1049700001980AE005EB840463692BB1054800F156
:104980000801021F984700E0184603B030BD00BF81
:10499000540700105C07001010B500284AD101F040
:1049A000040303F0FF01254C0BB3082204F10801B6
:1049B00000F052F9227AC2F3411304EB83035B6ADD
:1049C0006360E389236023610BB1D20934D0FFF720
:1049D000BBFF28B980200121BDE8104000F000B9DC
:1049E000E28923699A42D4BF2260236019E02268D9
:1049F000002A1ADD616800F02FF90028EADB6368FD
:104A0000034463602368181A2060A8B9237AC3F3AB
:104A1000411304EB83035B6A6360FFF795FF002893
:104A2000D8D0BDE81040FFF77BBF0A46BDE8104074
:104A300000F012B98028F4D010BD00BF5407001058
:104A4000024B03EB80004161426270475407001043
:104A50007047000010B50E4C00F0A0F90D4800F0B2
:104A60007DF82146002000F05FF82146802000F00C
:104A70005BF80020402100F03BF88020402100F04E
:104A800037F800200449054AFFF7DAFF012010BD7E
:104A900099490000514A0000194F00008807001092
:104AA000034B1B6803408342FAD1024B18607047E6
:104AB00000C2005008C20050044B000440F4A06043
:104AC00030221A6098601020FFF7EABF08C2005039
:104AD00010B50C462404FFF7EFFF044B44F4807438
:104AE0001C601020BDE81040FFF7DABF10C2005074
:104AF00010B500F00F04C00940EA44040122A240AE
:104B0000084B186802431A604FF480705C6099602B
:104B1000FFF7C6FF44F040000021BDE81040FFF75A
:104B2000D7BF00BF44C200500A4A00F00F03C009BB
:104B300042F8231040EA4300012101FA00F0064B3D
:104B40001A681043186053F8302C42F0040243F8FE
:104B5000302C70479007001034C20050034B18648B
:104B6000034B1A6842F008021A6070479007001061
:104B700004C20050034B5864034B1A6842F0010210
:104B80001A6070479007001004C2005040F0800186
:104B9000D020FFF79DBF011C18BF0121FE20FFF7A9
:104BA00097BF0146F320FFF793BF000010B500F058
:104BB0000F04C00940EA44042046FFF77DFF2404A7
:104BC000054B44F400741C602020FFF769FF034B81
:104BD0001868C0B210BD00BF10C2005014C200500F
:104BE00000F00F03C00940EA4300003140F04000EC
:104BF00018BF0121FFF76CBF10B500F00F03C0090B
:104C0000144640EA4300114A9B0043F0020313603C
:104C10000F4B1C600D4B1A6812F002020ED08A78FE
:104C2000CB78120442EA03620B7804311A4311F87C
:104C3000033C42EA0322074B1A60EBE71A60FFF7D6
:104C40003BFFFA20FFF738FF204610BD28C2005076
:104C500024C200501CC2005038B500F00F03C00938
:104C600040EA4300144C9B0043F001032360134BC4
:104C70001B681D05FBD55C051BD5C3F30905002387
:104C80001C46AC420BD014F0030F04BF0C4B1B6846
:104C900011B1944238BF0B551B0A0134F1E7064BA2
:104CA00000221A60FFF708FFF220FFF705FF2046F9
:104CB00038BD4FF0FF3038BD28C2005020C2005030
:104CC00018C20050011C18BF0121D820FFF700BFF7
:104CD00038B5294B1C68E10711D501229A60274B92
:104CE0005D6C65B1F520FFF7E7FE254B254A2020D6
:104CF0001A60FFF7D5FE244B1868C0B2A8472207F8
:104D000017D5224B08221A60FE20FFF7D5FE1C4B58
:104D10001F4A20201A60FFF7C3FE1B4B1868C0B261
:104D200010F01A0F05D0154B1B6C13B100F01500D5
:104D3000984763071ED5154B04221A6000240123EF
:104D4000A340144A1268134211D0134A2020136062
:104D5000FFF7A6FE0C4B60101968084B53F8203083
:104D60002BB140EAC410C0B201F01F0198470134D2
:104D7000202CE4D138BD00BF00C2005090070010C5
:104D800010C200500002F50014C2005008C20050CA
:104D90000002FE0030C2005038C2005008B5244B5B
:104DA0001A6822F4402242F480221A6053F8042C3C
:104DB00022F0300242F0100243F8042C53F8042C85
:104DC00022F0405242F0005243F8042C53F80C2CCD
:104DD00022F0406242F0806243F80C2C53F80C2C15
:104DE00022F0405242F0805243F80C2C114B1A68CA
:104DF00042F000421A60104B1A6842F012021A6028
:104E00000E4B1A689207FBD51A68D006FCD50C4BDE
:104E100000200C4A18604FF0FF3313605062D062DC
:104E20001363094B1860FFF7BCFE012008BD00BFEB
:104E300010C00240C4C00F40F4CF0050F8CF005063
:104E400004C2005008C2005040C2005070B5164C59
:104E50000025247814B34678A64221D184880D60B9
:104E6000042CC688458805D0052C1BD10F48186036
:104E7000922002E00E481860282010601468280A6A
:104E8000000484420EDB1D680544201A1D60B042F8
:104E9000D4BF106016600120086070BD204670BD50
:104EA000284670BD012070BDD807001024050010F1
:104EB00044510000014B5860704700BFD8070010F4
:104EC000F0B5050A032DC6B2114908D1EE2E06D160
:104ED00010480978923001741860122312E0496872
:104EE000002401E001340144087880B14F78AF42DA
:104EF000F9D1B442F6D1022D196006D1C8788B7869
:104F000043EA002313600120F0BD0B78FAE7F0BDFF
:104F1000D8070010240500102DE9F0474B4E044639
:104F2000B3680D461746B04643B9267806F01F060B
:104F3000012E53D006D3022E62D081E0984700287C
:104F4000F3D080E062783B68092A79D8DFE802F084
:104F50000578787878090D78151C00221A705A7037
:104F600045E0A078FFF712FE6DE06088A1882A4630
:104F70003B46BDE8F047FFF7A3BF98F80C2001209F
:104F80001A702860BDE8F087A6780EB930461FE099
:104F9000FF27D8F80450B9462B78C3B16B78042B9F
:104FA00006D0052B06D0022B0ED195F805900BE00C
:104FB000EF7809E0B14507D137B969792B79A8783D
:104FC00043EA0121FFF794FD2B781D44E4E701201B
:104FD000FFF778FE638888F80C3034E063783A682D
:104FE0000A2B06D00B2B07D053BB13705370022330
:104FF00004E00023137016E063880BBB2B6022E0F3
:10500000D7F800806778012F0FD002D3032F10D07C
:1050100016E02079FFF7CAFD0023C0F3400088F8AE
:10502000000088F801302E600DE0618841B92079D8
:1050300003E0638823B920790121FFF7D1FD02E065
:105040000020BDE8F0870120BDE8F087D8070010F8
:10505000844641EA000313F0030349D1403A23D3C5
:105060000B6803604B6843608B688360CB68C360E8
:105070000B6903614B6943618B698361CB69C361D0
:105080000B6A03624B6A43628B6A8362CB6AC362B8
:105090000B6B03634B6B43638B6B8363CB6BC363A0
:1050A00040304031403ADBD230320BD30B680360E2
:1050B0004B6843608B688360CB68C36010301031ED
:1050C000103AF3D20C3205D351F8043B40F8043BBC
:1050D000043AF9D2043208D0D2071CBF11F8013BC0
:1050E00000F8013B01D30B8803806046704700BF86
:1050F000082A13D38B07B1D010F00303AED0C3F14D
:105100000403D21ADB071CBF11F8013B00F8013B76
:10511000A4D331F8023B20F8023B9FE7043AD9D3ED
:10512000013A11F8013B00F8013BF9D20B7803700A
:105130004B7843708B788370604670474300000063
:105140002000001028000000000104000100000001
:1051500000000000000157494E5553420000000076
:10516000000000000000000000000000F8B500BFD3
:10517000F8BC08BC9E467047DD4200005541000067
:10518000F8B500BFF8BC08BC9E467047254100003A
:10519000000000000C03001074030010DC0300107A
:1051A00000000000000000000000000000000000FF
:1051B00000000000000000000000000000000000EF
:1051C000000000003C510000000000000000000052
:1051D00000000000000000000000000000000000CF
:1051E00000000000000000000000000000000000BF
:1051F00000000000000000000000000000000000AF
:10520000000000000000000000000000000000009E
:10521000000000000000000000000000000000008E
:10522000000000000000000000000000000000007E
:10523000000000000000000001000000000000006D
:105240000E33CDAB34126DE6ECDE05000B00000032
:10525000000000000000000000000000000000004E
:10526000000000000000000000000000000000003E
:10527000000000000000000000000000000000002E
:10528000000000000000000000000000000000001E
:1055B000000000000000000000C201000000080020
:1055C0001201010102000040FFFF0500000101027D
:1055D000030109024300020100C032090400000176
:1055E0000202010005240010010524010101042428
:1055F000020205240600010705810308000A0904C8
:105600000100020A0000000705050240000007052E
:10561000820240000004030904440368007400741B
:105620000070003A002F002F0075006200650072C4
:105630000074006F006F00740068002E0073006F2C
:1056400000750072006300650066006F00720067FD
:105650000065002E006E00650074002F00220355C7
:105660000062006500720074006F006F00740068D3
:10567000002000730065007200690061006C001278
:105680000330003000300030003000300030003196
:1056900000000000920000000001050001008800E9
:1056A0000000070000002A00440065007600690041
:1056B0006300650049006E007400650072006600BA
:1056C0006100630065004700550049004400730015
:1056D0000000500000007B00300031003200330039
:1056E00034003500360037002D0030003100320024
:1056F00033002D0034003500360037002D0038000F
:105700003900610062002D003000310032003300AA
:10571000340035003600370038003900610062007F
:105720007D000000000012034D00530046005400AD
:0857300031003000300041009F
:040000030000459D17
:00000001FF
