:10400000E03F0010CD8200002183000021830000EA
:1040100021830000218300002183000000000000B4
:1040200000000000000000000000000021830000EC
:104030002183000000000000218300002183000094
:10404000218300007D5000002183000021830000B7
:1040500021830000218300002183000021830000D0
:1040600021830000218300002183000021830000C0
:1040700021830000218300002183000021830000B0
:1040800021830000218300002183000021830000A0
:1040900021830000BD510000218300002183000026
:1040A000C982000021830000F1510000218300003B
:1040B0002183000021830000218300002183000070
:1040C00021830000218300002183000008B540F611
:1040D0001460074BC1F200001B1A062B00D808BD64
:1040E00040F20003C0F20003002BF8D09847F6E737
:1040F000170E001008B540F6146040F61463C1F2C4
:104100000003C1F200001B1A9B1003EBD37359107C
:1041100000D108BD40F20002C0F20002002AF8D02F
:104120009047F6E710B540F61864C1F20004237812
:1041300073B9FFF7CBFF40F20003C0F200032BB1CD
:104140004AF2C030C0F20000AFF3008001232370B8
:1041500010BD00BF08B540F20003C0F200034BB130
:104160004AF2C03040F61C61C0F20000C1F200010A
:10417000AFF3008040F61460C1F2000003682BB179
:1041800040F20003C0F2000303B19847BDE80840C5
:10419000B0E700BF014600200246034600F092B897
:1041A00038B54AF2E4344AF2E035C0F20005C0F214
:1041B0000004641BA41018BF05EB840505D0013C66
:1041C00055F8043D9847002CF9D1BDE8384006F079
:1041D00001B900BF70B54AF2CC364AF2CC35C0F214
:1041E0000005C0F20006761BB6101CBF043D00247B
:1041F00005D0013455F8043F9847A642F9D14AF258
:10420000D4364AF2CC35C0F20005C0F20006761B67
:1042100006F0D6F8B6101CBF043D002406D00134C9
:1042200055F8043F9847A642F9D170BD70BD00BF54
:10423000F0B4840743D0541E002A3ED0CDB20346CA
:1042400003E0621E002C38D0144603F8015B9A0785
:10425000F7D1032C2AD9CDB245EA05250F2C45EA22
:10426000054515D9A4F110073F0903F1100606EB27
:1042700007161A46156055609560D5601032B24237
:10428000F8D104F00F040137032C03EB07130DD909
:104290001E462246043A032A46F8045BFAD8221F37
:1042A00022F003020432134404F003042CB1C9B217
:1042B0001C4403F8011BA342FBD1F0BC7047144619
:1042C0000346C6E7F0B549F62424C0F20004266888
:1042D00085B0D6F848410746002C43D065681F2DAD
:1042E00021DD49F26D04C0F200041CB94FF0FF302B
:1042F00005B0F0BD4FF4C87003910292019304F031
:10430000B5FE03990446029A019B0028EED0D6F828
:1043100048510020256060600546C6F84841C4F851
:104320008801C4F88C013FB96B1C00200235636022
:1043300044F8251005B0F0BD0126AE4004EB850021
:10434000C0F88820D4F88821022F42EA0602C4F877
:104350008821C0F8083102BFD4F88C311E43C4F85C
:104360008C61E1E706F5A674C6F84841B6E700BFE0
:1043700040F20003C0F200032BB144F2A110C0F2DE
:104380000000FFF707BF704710B500231A4640FA38
:1043900003F1C3F1070401F00101A14001330A4315
:1043A000082BD2B2F3D1104610BD000038B5254B12
:1043B000254C1A7812B11A78012A28D11B7833B10A
:1043C000204B1D78012D0CBF4025002500E029253C
:1043D0000D2047F6FF7104F0A6F8122042F62231B4
:1043E00004F0A1F8142041F24B3104F09CF8202095
:1043F00040F2011104F097F82188022089B20139B6
:1044000089B204F090F80320294604F08CF8208843
:1044100080B203F005F903F09BF904F027F9420696
:10442000FBD5612004F029F904F020F94307FBD5FE
:10443000622004F022F9054B80221A604FF480724A
:104440001A6038BD340E00104C04001058C009200A
:1044500070B52A4B04461A7832B11B78012B4BD128
:10446000402540F2615602E0292540F261460D20C8
:1044700047F6FF7104F057F8122042F6223104F09B
:1044800052F8142041F24B0104F04DF8202031463F
:1044900004F049F8A1B22C2004F045F8210C184C86
:1044A0002D2004F040F82188022089B2013989B218
:1044B00004F039F80320294604F035F806203D21A0
:1044C00004F031F8208880B203F0AAF803F040F934
:1044D00004F0CCF84006FBD5612004F0CEF804F0DF
:1044E000C5F84107FBD5622004F0C7F8054B8022D0
:1044F0001A604FF480721A6070BD00BF340E001055
:104500004C04001058C00920F8B506460F4602F0CA
:104510008DFF1E4D044620B96B7843F004036B7089
:10452000F8BD042E06700ED1194B40F635411A68BD
:10453000120DC270174A1B681268C3F3130301FB04
:104540000323436015E0AB78C3706B6843602B892D
:104550009BB2623B8370104B1B7843720F4B1B78EE
:104560000372288980B203F047F80D4BA0721B78C4
:10457000E37204F10E003946322205F065F86B78DB
:104580000120637000236B70F8BD00BF340E001073
:104590001C10001008400040021000100010001015
:1045A0009E14001010B5044C606003F0C7FE6081DB
:1045B000000C208110BD00BF4C04001010B5642019
:1045C00004F05BF804F052F800F0040000F0FF047F
:1045D0000028F7D1204B80221A6010214FF48072FE
:1045E0001A6043F8201C43F8202C022243F8202CA8
:1045F00003F086F803F0B0F903F070F802F098FFCA
:10460000164B174A40F689119C72DC7211809E216C
:104610009C81A2F8481040F66211DC81A2F84A1091
:104620009C705C601C811C745C705C749C74DC7499
:104630001C751C704FF41663A2F84C305333A2F86B
:104640004E300849E22382F8503000220023C1E9AD
:104650000023C1E9022310BD5CC00920340E001004
:104660004C040010201500102DE9F843394C208827
:10467000264680B26238C0B202F0D0FD3649002230
:104680000D5C13468C46354FD95D0133C9071F2B8E
:1046900041EA5202F7D17168F85CC00740EA520261
:1046A0008A424FD1002207EB0308002008EBC20822
:1046B000014608EB0104032A14F81F4C0CDD0CEB37
:1046C000050E9EF828E0013584EA0E044FF07F0EB7
:1046D000B5FBFEF90EFB19558C400131204308292A
:1046E000C0B2E6D11E4C2168885401322E2ADAD19C
:1046F00073695BB921680120FFF706FF194B10228F
:104700001A60194B20689B6998471FE023685D7900
:10471000104B216805F03F05AA1C1869043102F00E
:10472000FDFD226805F10803D15C2268EB1DD35C16
:1047300022680635525D1B0243EA01431343984247
:1047400004D1D7E70133B3F5D87FA5D10120BDE867
:10475000F88300BF4C040010289A00007C11001060
:104760007811001038C00920340E001038B5584BAD
:1047700005461A7E0179022A1C4613D103221A76B5
:10478000544A1268DA615A8C013A92B21A840022B1
:104790009A84DA62504BDA7C002A00F09880282252
:1047A000DA6138BD032A3BD1DB6A01F00301A3B112
:1047B000A38C228E9BB29A420FD1464B1B68E361B9
:1047C000638E6384013B9BB2238494F8343084F875
:1047D0002630E38E23850023E362032977D1AB796A
:1047E000002B74D1EB7984F834306A7A2B7A03EB9E
:1047F0000223E386EA7AAB7A03EB022363866A7CC0
:104800002B7C03EB0223A28C9BB292B223869B1AD1
:1048100047F6FE7293425ADC2D4B0122DA6238BD14
:10482000012A54D101F00F01052950D14379222BDF
:104830004DD1037F427F43EA0222063A92B240F60C
:104840007A439A4243D8236C2BB902230020237663
:104850006061034611E004F13800A91D062204F04E
:10486000BFFE0028F1D004F1380005F10C0106224A
:1048700004F0B6FE0028E8D038BDEA18917CDA00D2
:1048800001FA02F20133042B40EA0200F5D1FFF7EE
:1048900089FEE87D2B7E000240EA0340AB7D184391
:1048A000E06003F04BFD6B7E206184F82630AB7E28
:1048B00023856A7F2B7F43EA0223638495F82730A0
:1048C000012203F01F03A3766376034BDA7238BD2F
:1048D0004C0400101C100010340E00102DE9F041A3
:1048E0008B4C1D461B680F46164623624E2800F26D
:1048F0007A83DFE810F005015100550058005D0093
:104900006000650068006A006E007300C500CC009E
:104910000A0181007C0086008B008E0093009B00C2
:10492000BE00C000C20003010701780323019D00FF
:10493000A400AE00AC00B000500142016D01700156
:1049400074017801AB01E0010402440252025D02ED
:1049500075036C02710277027E028D02ED01FA018D
:10496000BB02F2025F0157037803C3026E037103B7
:10497000CA01DC010F0278034F00D9024001E902AD
:104980001602FD02080314031F032A033503400324
:104990004B034B02002476E20120A0740023A1E126
:1049A0000223A372F5E05B4B1B68C3F3400318E1DD
:1049B0000A88022315E0574B1B68C3F3001310E16C
:1049C0000A8810230DE0534B24E00A884FF48073CB
:1049D00007E0504B1B68C3F3402302E10A884FF401
:1049E000007312B94C4A1360FAE24C4AFBE73046B6
:1049F000294603F029FFF3E23046294603F040FF41
:104A0000EEE2474B1B68C3F3C013EAE00A88802339
:104A100007E0434B1B68C3F30023E2E00A884FF42E
:104A200080730AB13F4ADEE73F4ADCE70323B7E27F
:104A3000052003F06FFD00F007003070E4E1098805
:104A4000072900F2D082052041F0080118E2052371
:104A5000A6E20623A4E2354B1A7832705A787270B7
:104A60009A78B270DA78F2701B79337105232B6073
:104A7000B6E2002394E22378B3E00B782370AFE230
:104A80002B4B1A8832701B88C3F30723A2E10A88D4
:104A90001F4BE281E18940F6EA2289B2914205D9B1
:104AA00001229A7240F66212DA8117E000229A72AD
:104AB000D98940F6DC0289B291428ABFDB8913466C
:104AC0009BB2E381E28940F6E92392B29A4297BF12
:104AD0000F4B40F6EA23DB899BB2E381E189144B5B
:104AE00089B2A3F84A10617C094A092900F078824A
:104AF000D18989B219800021D18191E103F0F4FEBE
:104B00000023B4E70B4A0C4B1A600B2348E200BFAA
:104B1000340E001034C009203CC0092038C00920E0
:104B200054C0092058C009205CC00920DC140010C2
:104B30004C04001021BB05431C0000100A886FF4D0
:104B4000006C02EB0C0340F2FF319BB28B4200F28F
:104B50004A827B886FF40066981980B2884200F21E
:104B600042829342C0F03F82B049A1F84C20A1F8A4
:104B70004E3004230DE00F230BE00B88B3F5807F4C
:104B800000F23182C3F13603A84ADBB282F850301A
:104B90000723A374B4E7002333707370A44804F0B0
:104BA000E1FDC4B2B4702246F01CA14904F04CFDF2
:104BB00003340BE09F4804F0D5FDC4B2304600F842
:104BC000014B22469B4904F03FFD01342C6007E273
:104BD0000120307019E10A88974B1A701FE1964B3B
:104BE0001B78337010E1954F00240025C7E900457C
:104BF000C7E902454FF0000816F808004FEAC8025E
:104C0000002104F027FAD7E9004508F10108204304
:104C10002943B8F1080FC7E90001EDD14FF00008B2
:104C200006EB0803187A4FEAC802002104F012FAD2
:104C3000D7E9024508F1010820432943B8F1080FDC
:104C4000C7E90201ECD102F0AFF9C9E17C4A0023C7
:104C50001360116809021160F05C116801330143AF
:104C6000042B1160F5D10223A372764B01204FF083
:104C7000805220741A607379327943EA0222724BAF
:104C80001A800823A374BDE8F0810523A3720E23C4
:104C9000A37400236D4900225A5401330A2BF9D121
:104CA0006B4B01201A706B4B1870BDE8F08101202E
:104CB000E072BDE8F081B2787378120442EA032210
:104CC00033781A43F37842EA0362634B1A60A6E032
:104CD0000023F15C5D4A995401330A2BF9D15D4AF6
:104CE000012010702B60BDE8F0810023574900229D
:104CF0005A5401330A2BF9D156490A70B7E6564B7C
:104D000019680023DA0021FA02F2F2540133042B6D
:104D1000F8D1ACE67378327843EA02224A4B1A8023
:104D20005EE14E4B30781988727889B242EA0022EF
:104D30000A4492B21A801A88494912B2002A494A92
:104D400007DA1B884FF4A0705B429BB290FBF3F331
:104D50000AE0188800B200280DDD1B884FF4A0700F
:104D60001BB290FBF3F39BB213803F4B1868138880
:104D70009BB2034401E0002313800B6030E1002369
:104D80002B60E3720323A372092345E000232B6009
:104D9000E3720323A37219233EE000232349DA00C0
:104DA000496821FA02F2F2540133042BF6D15EE68F
:104DB000B37872781B0443EA02233278F078134305
:104DC00043EA0060FFF7EEFB0120184BFEE01323DF
:104DD0003370372373704FE0144B5B69003318BF97
:104DE0000123FEE60A88114B003218BF01225A61E6
:104DF000F6E002F04FFB014628B13046402204F0B5
:104E000023FC402333E6307001202860BDE8F081A8
:104E100000232B60A3720A23A37402F0F9FA034B58
:104E2000188880B202F0FCFBDAE000BF4C040010EE
:104E3000F0A20000CF9A0000A0140010201500106E
:104E40001010001098C009206A1100100310001003
:104E5000011000109F1400101C1000109C14001072
:104E6000D41400101810001014100010087803F06B
:104E700051FB030A337070700223F8E50878498803
:104E800003F051FBACE03B88A34240F2A98003232E
:104E90006343F21851789278F05C42EA01210134C0
:104EA00003F041FBE4B2EEE70024204603F032FBBE
:104EB00034700134E4B2030A2E2C7370B07006F122
:104EC0000306F2D18723D2E5B2794848073231464A
:104ED000D2B204F0B9FB10235BE6184604F0C6F822
:104EE000434B3146226A186004F0AEFB0C2357E0B6
:104EF000184604F0BBF83E4B3146226A186004F0B5
:104F0000A3FB11234CE0184604F0B0F8384B3146AF
:104F10001860226A374804F097FB122340E01846D5
:104F200004F0A4F8324B3146226A186004F08CFB7E
:104F3000132335E0184604F099F82D4B3146226AC8
:104F4000186004F081FB14232AE0184604F08EF860
:104F5000274B3146226A186004F076FB15231FE0C8
:104F6000184604F083F8224B3146226A186004F098
:104F70006BFB162314E0184604F078F81C4B3146FE
:104F8000226A186004F060FB172309E0184604F059
:104F90006DF8174B3146226A186004F055FB182350
:104FA000A3741DE07279144B012083F83820327904
:104FB00083F83920F27883F83A20B27883F83B20DE
:104FC000727883F83C20327883F83D201864BDE87D
:104FD000F0810B78E37403E00D23A3740B78237541
:104FE0000120BDE8F0810020BDE8F0812010001014
:104FF000D8140010580E00104C04001010B50446D0
:1050000002F02EFA28B9064B597841F00401597084
:1050100010BD2146402204F017FB012010BD00BF47
:10502000340E00102DE9F04106460F46904602F07E
:10503000FDF9104D044628B96B7843F004036B70FA
:10504000BDE8F0810C4B06701B8800269BB2623BCA
:10505000C670C0F8048083708672C67239463222E8
:105060000E3004F0F1FA6B786E7063700120BDE8C9
:10507000F08100BF340E00104C04001070B54FF0EA
:1050800040231B68DB077FD54049414B08681A68FD
:10509000024401320A6000221A603E4A0C683E4B0C
:1050A000967AD869154616B1967A012E05D10B6805
:1050B0005E0637D10123EB7234E0957A022D03D1DD
:1050C0000B68DC072ED42BE0957A032D1CD11D7EB6
:1050D000032D27D1201A800724D1188C80B20138E3
:1050E00080B21884188C80B248B90120D0729A8C92
:1050F00092B2024492B29A845A8C1A8412E0274BDC
:105100004FF480721A600DE0907A05280AD1244885
:105110000468B3F848000B6880B22044984201D17B
:105120000123D3721F4A204B1068C0B1188880B287
:10513000A8B90C681068844211D31C48008800B2DA
:105140000028ACBF012041F6690018800C6818489F
:10515000046004681748008880B2204410601888F2
:1051600040F6344280B2904202D90A6802320A60A4
:105170001988114A89B201F63441116000221A805F
:1051800001224FF040231A6070BD00BF1C100010B8
:1051900010100010340E00104C0400103CC0092008
:1051A000F80F0010D41400106A1100109C140010A5
:1051B000141000101810001018400040084B042272
:1051C0001A60084B4FF080521A60074B01221A7088
:1051D000064B9A7A022A04BF00221A74704700BF55
:1051E000AC8002409CC0092019150010340E00103C
:1051F00010B5364B5A7C012A2CD05A7C082A29D06B
:105200005A7C042A26D05A7C092A23D05A7C192A8F
:1052100020D05A7C0A2A1DD05A7C0C2A1AD05A7CDB
:10522000112A17D05A7C122A14D05A7C132A11D072
:10523000597C14290ED0597C15290BD0597C16297C
:1052400008D0597C172905D0597C182902D05A7CDE
:105250000F2A39D11E4A1268D00735D51D4A126867
:10526000D10726D51C4A012111609A7A022A03D15E
:105270001A4A4FF080511160194A1A4811680068A3
:10528000C1F3130140F6354404FB01015960126873
:10529000C2F307529A70144A128892B21A81134AC2
:1052A000134B1168186810601960124B1A680132AC
:1052B0001A60114B1B68DA0706D5104B01221A60E1
:1052C0000F4B1A6801321A6010BD00BF340E001077
:1052D00000400050044000500840005098C0092091
:1052E0001C100010084000404C0400105C1000101E
:1052F00078110010FC0F00100C40005010400050BE
:10530000141500102DE9F04F91B0BDF868700546F6
:105310008946924603F00F080DF1FF300DF10301AD
:105320000022EBB242702D0A072403F00106A640CA
:1053300014F1FF3446EA0202D2B24FEA5303F4D228
:1053400000F8012F8842EBD1A7F16200C0B201F052
:1053500065FF534B00241E5C4C4522D20DF1000E1C
:105360001AF80430A644072000224D4903F0010C2E
:10537000314491F8281001368CEA010C7F21B6FBEC
:10538000F1FB01FB1B660CFA00F110F1FF3041EA62
:1053900002024FEA5303D2B2E7D28EF8042001345E
:1053A000DAE70D2047F6FF7103F0BDF8122042F650
:1053B000223103F0B8F8142041F24B3103F0B3F876
:1053C000202040F6014103F0AEF80220394603F0F8
:1053D000AAF80520414603F0A6F80320402103F077
:1053E000A2F81421232003F09EF8EA074CBF4AF6E6
:1053F000AA2145F255512D2003F095F8082003F01D
:1054000089F8C0F3080109F10409044641F49C41FC
:1054100008205FFA89F903F086F803F027F94306BC
:10542000FBD5612003F029F903F020F94707FBD5EC
:105430001C4B4FF480721A6080221A620E2003F017
:1054400069F800F01F000F28F8D1632003F015F968
:10545000154B1B685E07FBD4B9F12E0F34BF4846CD
:105460002E20694603F072F80E2003F053F800F086
:105470001F000F28F8D10D4B4FF480721A60642082
:1054800003F0FBF803F0F2F84507FBD4084B802249
:105490001A600820214603F046F811B0BDE8F08FED
:1054A000289A000038C0092054C009203CC00920B7
:1054B0005CC0092008B50D2047F6FF7103F033F8F2
:1054C000122042F6223103F02EF8142042F24B3122
:1054D00003F029F8202040F6014103F024F80520CC
:1054E0000B2103F020F80320402103F01CF803F007
:1054F000BDF84006FBD5612003F0BFF803F0B6F815
:105500004107FBD5084B4FF480721A6080221A6263
:105510000E2002F0FFFF00F01F000F28F8D16320DB
:10552000BDE8084003F0A9B838C0092038B55F4C81
:105530000023E3725E4B5F4A19681160A27A4AB990
:10554000022002F0E7FF5C4B1B889BB2013B9842B4
:105550007FD138BDA27A012A31D1584B1978584BE6
:105560001878554B1A8892B2203292B21A801A8853
:1055700092B2B2F51B6F04D91A8892B24F3A92B226
:105580001A80002965D0002863D01A881D8892B23D
:10559000A2F66213082293FBF2F34A4AADB2D25C40
:1055A000494BA5F662152B40002B03DA013B63F053
:1055B0000703013342FA03F3DD07D2D549E0A27AAB
:1055C000052A2DD13D4B19783B4B1A8892B22032D7
:1055D00092B21A801A8892B2B2F51B6F04D91A8857
:1055E00092B24F3A92B21A804F2932D01A88188854
:1055F00092B2A2F66213082293FBF2F3314A80B210
:10560000D25C314BA0F662100340002B03DA013B61
:1056100063F00703013342FA03F3DA07D4D418E046
:10562000A27A022A05D1186801F05AFD224B18808F
:105630000FE0A37A032B05D11F4D281D01F019FEA1
:10564000288006E0A37A042B03D1A2891A4B92B2D8
:105650001A80642003F011F803F008F84307FBD424
:10566000154D607C2988C0B2022889B21EBF01F1A5
:10567000FF31022089B202F056FFA37A1BB12888BD
:1056800080B201F0CDFF612002F0F7FF02F0EEFFE3
:105690004507FBD501232374637C022B0CBF6320D9
:1056A0006220BDE8384002F0E8BF00BF340E0010B1
:1056B0001C100010F80F00104C0400100110001016
:1056C0009F14001003100010070000802DE9F8431C
:1056D000494B10221A6001F09BFE02F093FE02F08B
:1056E0008FF802F013F9FEF761FE01F0CBFF434C97
:1056F000A37CA146012B75D13F4B10221A6001F00B
:1057000017FF80253E4F3F4E3B68DFF818812BBBCB
:10571000062002F0FFFE3378C0F3072063B16BB2BE
:10572000803309D1384B40B293F900503635A84246
:10573000A8BF0546EDB2284640B201F015FFD8F8E3
:10574000000001F0E1FE99F80B3013B1FFF7EEFE17
:10575000D8E7294B4FF480721A60D3E72B4B102205
:105760002B4D1A602B681BB1637843F00203637002
:105770003B68012B03D9637843F001036370227CFB
:105780001E4B2AB15A7842F020025A7000221A7435
:10579000204B188880B201F007FF337813B91E4BF5
:1057A0001B782BB1637843F00803637000233370D8
:1057B000154B93F90020194B353293F900309A427A
:1057C00003DA637843F010036370154B0020196807
:1057D000FEF79AFED8F8000001F096FE00233B6029
:1057E0002B6084E7A37C082B86D002F0B5F8BDE8D7
:1057F000F84301F05DBF00BF3CC00920340E00102B
:10580000FC0F0010191500101815001038C00920E1
:10581000141500104C040010681100100010001046
:10582000781100101C1000102DE9FF41954B01224A
:10583000D3E90245002322402B4052EA03014FF0F6
:10584000000745F255534FEAD5764AF6AA2818BF05
:105850009846E0B2002F08BF012E14BF5526AA2695
:10586000FEF792FD8DF80000C4F30720FEF78CFDD3
:105870008DF80100C4F30740FEF786FD8DF80200A5
:10588000200EFEF781FD8DF80300E8B2FEF77CFDE7
:105890008DF80400C5F30720FEF776FD8DF80500AE
:1058A000C5F30740FEF770FD8DF80600280EFEF7E1
:1058B0006BFD8DF807003046FEF766FD8DF8080099
:1058C0007720FEF761FD8DF809006620FEF75CFD8C
:1058D0008DF80A005520FEF757FD8DF80B00442087
:1058E000FEF752FD8DF80C003320FEF74DFD8DF8CC
:1058F0000D002220FEF748FD8DF80E001120FEF766
:1059000043FD3C468DF80F003B4648FA03F2C3F1D5
:105910000F0102F001028A4001331443102BA4B29C
:10592000F3D10D2047F6FF7102F0FDFD122042F683
:10593000223102F0F8FD142041F24B3102F0F3FD68
:10594000202040F6014102F0EEFD21462C2002F01D
:10595000EAFD2D20002102F0E6FD4B4B02201988C4
:105960004A4C89B202F0DFFD05200B2102F0DBFD7D
:10597000237813B90320292104E02378012B1DD1BA
:105980000320402102F0CFFD01F0E2FE02F06EFEA6
:105990004506FBD5612002F070FE02F067FE40076D
:1059A000FBD53B4B80221A600E2002F0B3FD00F0C5
:1059B0001F000F28F8D1632002F05FFE142123207E
:1059C00002F0B1FD082002F0A5FDC0F30801054674
:1059D00041F49C41082002F0A6FD0026A37C022B86
:1059E00045D176082B4F3B68B6EB530F05D1E37AD0
:1059F000002BF7D0FFF79AFDF4E7274B1A6840F623
:105A0000C9039A42F3D9254B4FF480723E681020A7
:105A10001A60694602F09AFD0E2002F07BFD00F04C
:105A20001F000F28F8D11E4B4FF480721A606420BB
:105A300002F023FE02F01AFE4107FBD402F016FE2C
:105A40004206FBD5612002F018FE02F00FFE43076C
:105A5000FBD50E2002F05EFD00F01F000F28F8D1EC
:105A6000632002F00AFE386801F04EFDB6E70D4BE8
:105A700080221A600820294602F055FD04B0BDE8D6
:105A8000F08100BF201500104C040010340E0010EF
:105A900058C009201C1000100840004038C00920E0
:105AA0003CC009205CC0092008B50F48FEF77AFD0C
:105AB0000E4B0F4ADA600F4A1A6101225A61002226
:105AC0001A845A649A841A765A769A76DA615A84D3
:105AD00083F826201A85DA621A865A8683F83420DB
:105AE000DA86054BDA7208BDD6BE898E4C040010EA
:105AF00055555500AAAAAA00340E001010B5064C40
:105B0000002120464FF48472FEF792FB4FF0FF33E2
:105B1000C4F8003110BD00BF601000102DE9F8433B
:105B2000694C0123804623706074FFF7BDFF674B0B
:105B30004FF080721A60664B10221A6001F068FC08
:105B400002F060FC01F05CFE01F0E0FEFEF72EFCCE
:105B500001F098FD0025A37C434540F0A3805A4BFB
:105B6000DB899BB2D3B1642002F087FD02F07EFD99
:105B70004707FBD4574B0220198889B2013989B2F3
:105B800002F0D1FC612002F078FD02F06FFD4607C3
:105B9000FBD5622002F071FD0023E381E37A4C4ED5
:105BA00013B1FFF7C3FC02E04FF48073336010239E
:105BB000336001F0BDFC8027474B484E1A68994678
:105BC000D2B93368C3B9062002F0A4FC444BC0F339
:105BD00007201B7863B17BB2803309D1414B40B2BF
:105BE00093F900703637B842A8BF0746FFB238466F
:105BF00040B201F0B9FCDFE733681BB1637843F0D2
:105C000002036370D9F80030002B57D0324B1B6869
:105C1000012B03D9637843F0010363702D4B18887F
:105C200080B201F0C1FC2E4B1A7812B92E4A1278BC
:105C300032B16278022542F00802627000221A70C6
:105C4000284B93F90020294B353293F900309A42C2
:105C500005DA6378022543F01003637000E06DB34A
:105C60002348013D00F5C8714FF4C87203F0ECFC05
:105C7000EDB200231F48002200EBC3001E490F684D
:105C8000FF5C0968FF098754CF5C01327F00FFB2D7
:105C9000082ACF54F2D10133322BEBD1E36A1448F6
:105CA000984758B9154B4FF080721A60FEF786FC82
:105CB00001F052FEBDE8F84301F0FABC0023C9F838
:105CC0000030336047E700BF340E001000E100E011
:105CD0003CC009204C040010FC0F001014150010EB
:105CE0001915001018150010681100100010001090
:105CF0007C1100100C1300107811001080E100E0FE
:105D00002DE9F04F91B0AF4DAF4C01232B702376AE
:105D1000AE4B4FF0807268741A60AD4B10221A605F
:105D2000064601F075FB02F06DFB01F0A7FD01F0E6
:105D3000EDFD606802F002FBFEF78AFBAB7CB3422C
:105D400040F0B6819F4BDB899BB2CBB1642002F05F
:105D500094FC02F08BFC4307FBD42188022089B21B
:105D6000013989B202F0DFFB612002F086FC02F00B
:105D70007DFC4707FBD5622002F07FFC0023EB810E
:105D8000934B10221A6001F0D3FB924B1A6899468C
:105D900042B9914B1B682BB9EB7A1BB9894B9B7CA1
:105DA000B342F2D0062002F0B5FB8C4BC0F30720C3
:105DB000AA7C18708A4BB2421870824B40F07881EE
:105DC000854F3A68BB461AB15A7842F002025A70BF
:105DD000EB7A03F0FF01002B40F0B780D9F80030D8
:105DE000002BABD0342203A8FEF722FA2088636888
:105DF00080B26238C0B2039301F010FA4FF030085D
:105E000008FB00F8DFF808A20AEB08030193754BC2
:105E100093F800E05A7898781204D97842EA0E6232
:105E20000A4342EA0020009302F088FA5AF8082058
:105E3000009B5040C0F3052A0AF10208B8F1270F71
:105E4000049000F282800AF1080A4FEA9A020B2AB3
:105E50000DD003EB8203644A12689A420BD2DBF83E
:105E600000100029F7D006E0DBF800301BB95F4BCB
:105E70001B68D807F8D45E4B61201A684FF0040BFA
:105E800022F001021A6002F0F8FB564A0BF1010001
:105E900012F80B100BF1030C12F800E00BF10200EA
:105EA000105C12F80CC04FEAAB024CEA016141EA07
:105EB0000E4141EA0020009202F040FA009A10AB35
:105EC00003EB8201019B0BF1040B53F82220BBF181
:105ED0002C0F82EA000041F8300CD6D16369EBB98F
:105EE000444B10221A6003A8AB699847424B4FF00D
:105EF0008078C3F8008003A90120FEF705FB334B2F
:105F00003E4AC3F800803E4B40F635411B6812689C
:105F1000C3F3130301FB0323636416E02A4B04A9B4
:105F20001869424601F0FAF910AB534413F8342CC7
:105F300010AB434413F82F1C090241EA024113F845
:105F4000302C41EA02039842CAD0612002F095FB4E
:105F5000274B1A6822F001021A602A4B1B68590766
:105F600002D5294B1B68F8E7254B244A1B681268A9
:105F700040F63541C3F3130301FB0323626C217E1A
:105F80009342A1F1020138BF03F14343C9B238BFC4
:105F900003F5A003012903D81C499B1A8B4202D8A0
:105FA000EB69012B4FD1FFF77FFD094900234FF427
:105FB0008070EB610860E97C024A01292AD1D37420
:105FC000937475E0340E00104C04001000E100E002
:105FD0003CC00920FC0F0010141500100010001028
:105FE00002100010E1140010044100501041005054
:105FF0002400034038C0092080E100E00840004050
:106000001C1000100C0003400800034080F0FA024E
:10601000189B00000A2E4BD001236420237602F047
:106020002CFB02F023FB4207FBD4B4F84A309BB2AE
:1060300023B1264BB3F84A309BB201E040F662131D
:10604000238001232B632C20618902F06CFA2D2020
:10605000218902F068FAEB7A0BB1FFF767FAEB6976
:10606000DFF87080002B07DDFFF724FAD8F81C302A
:10607000013BC8F81C3016E001F000FC01F046FCC2
:10608000D8F8303043B1606802F058F9FEF7E0F913
:106090000023C8F8303006E002F0E8FA4307FBD5E9
:1060A000622002F0EAFA0023C9F800303B6045E6BE
:1060B000074B4FF080721A60FEF780FA01F04CFC3B
:1060C00001F0F6FA11B0BDE8F08F00BF4C040010EB
:1060D00080E100E0340E00102DE9F047CEB00DF164
:1060E00004080021744C06463222744F4046FEF7E5
:1060F0009FF801233B702376714B4FF080727E74C2
:106100001A60704B10221A6001F082F902F07AF9DD
:1061100001F0B4FB01F0FAFB606802F00FF9FEF742
:1061200097F9A246BB7CB34240F0B880634BDB8951
:106130009BB2D3B1642002F0A0FA02F097FA4407B0
:10614000FBD4BAF80010022089B2013989B202F0FA
:10615000EAF9612002F091FA02F088FA4007FBD5D3
:10616000622002F08AFA0023FB81564B10221A604B
:10617000BB7CB34240F092800DF1380900214022EF
:106180004846FEF755F8002140221EA8FEF750F8B9
:10619000002140222EA8FEF74BF83EA80021402205
:1061A000FEF746F800252C460F2C0BDC464B474AE1
:1061B0001B681268C3F3130340F6354101FB032348
:1061C00049F80530A4F110030F2B0DD83E4B40F6D3
:1061D00035401A683D4BC2F3130219681EAB00FB31
:1061E00002122B4443F8402CA4F120030F2B0ED8AD
:1061F000354B40F635401A68344BC2F31302196828
:106200002EAB00FB02122B4443F8802C0FE02F2C06
:106210000DDD2D4B40F635401A682C4BC2F31302AE
:1062200019683EAB00FB02122B4443F8C02C062039
:1062300002F070F940F25623000A08F804000093B7
:10624000009B013B0093002BFAD10134322C05F165
:106250000405A9D11E4B10221A601E4B4FF0807509
:106260001D60194B40F635441A68184BC2F31302EF
:106270001B68414604FB02320820FEF7D3FE484665
:10628000FEF7BCFE1EA8FEF7B9FE2EA8FEF7B6FE6E
:106290003EA8FEF7B3FE0A4B1D6043E70D4B4FF0DF
:1062A00080721A60FEF78AF901F056FB01F000FADD
:1062B0004EB0BDE8F08700BF4C040010340E001053
:1062C00000E100E03CC009201C1000100840004024
:1062D00038C0092080E100E010B5FFF7E5FB044C71
:1062E000044B0920A361FFF70BFD0023637410BD6D
:1062F000340E00106D47000010B5FFF7D5FB044CBD
:10630000044B1920A361FFF7E7FE0023637410BD5F
:10631000340E00106D47000070B58EB006460D4675
:10632000144601A800213222FDF782FF2946312CB4
:1063300034BF224631220DF105008DF8046003F0D0
:1063400083F901A90520FEF7DFF80EB070BD00004B
:1063500038B5314A40F664131188304C89B29942FD
:106360000DD12F4B2F4A1B681268C3F3130340F65D
:10637000354101FB0323A36340F6661348E0108810
:1063800040F6661180B2884242D1254B25491B68F0
:10639000096840F63540C3F3130300FB0313A06BF9
:1063A000528C83423CBF03F1434303F5A0031B1A05
:1063B00043F2D40541F66A0000FB02335543B3FBB8
:1063C000F5F3242B144921D817485208034493F8B5
:1063D00070080A8488762522013090FBF2F502FBD2
:1063E000150200238B84CB61E37203204B610F4BBA
:1063F0004A76087601221A31A361A072FFF78CFF5A
:10640000E37C43B1054B2822DA6138BD40F66413C2
:10641000A3810123E37238BD4C040010340E001038
:106420001C10001008400040289A00006D47000032
:1064300038B5254B40F635421C68244BC4F3130491
:106440001B68234D02FB0434EB6B9C4205D204F124
:106450004344A4F56514A4F5A254E31A46F2A71226
:10646000934230D91B4AD2F800118B4238BFC2F890
:106470000031D2F80021184902F5613202F252329D
:10648000B2FBF1F2154992B2488C124B904215D1F1
:10649000D3F804210132052AC3F8042112D1104B8C
:1064A0000220AB6140F66413AB810423AB7222314E
:1064B00001230246EB72FFF72FFF03E04A8400221C
:1064C000C3F80421EC6338BD1C10001008400040E4
:1064D000340E001060100010A40E07004C040010D1
:1064E0005163000038B5184C0146636953BB03790A
:1064F000012B27D145792DBB037AC07902220002F6
:1065000040EA03408B790431184300F0DDFE2A464F
:10651000E0602B4620FA03F1C3F1170501F00101F9
:10652000A9400133182B42EA0102F3D12261074B43
:10653000074A01209A61606106490322BDE838409C
:10654000FFF7EABE38BD00BF4C040010340E001047
:10655000316400005804001030B50022144D55F885
:10656000321005EBC203814202D15A6801321CE0AD
:106570000132202AF2D14FF0FF331946002205EBF9
:10658000C20464688C4205DB0029A8BF0C46B8BF72
:10659000134600E013460132202A01D02146EEE7DF
:1065A00045F83300012205EBC3035A6030BD00BF3C
:1065B000601000102DE9F04395B000218046402284
:1065C00004A8FDF735FE01238DF810308DF820303A
:1065D0008DF823308DF830308DF832308DF8403022
:1065E0008DF842308DF8433014AD04AC504E514F0D
:1065F000308880B26238C0B200F010FE3A5C0023EE
:10660000B918E05C91F8281001324140E1547F2133
:106610000133B2FBF1F0102B01FB1022F0D110344A
:10662000AC42E3D108F1200508F53C78424B6C46BA
:106630000FCB8DE80F00002204AB03EB8201002397
:1066400015F803C0C85C844502D00023A35002E0C3
:106650000133102BF4D10432102AEDD10023E2587B
:106660001AB90433102BFAD13EE0308880B2623878
:10667000C0B200F0D3FD385C0023002105EBC30C51
:106680000A460CEB0204032B14F8204C0CDD07EB3C
:10669000000E9EF828E0013084EA0E044FF07F0ED1
:1066A000B0FBFEF90EFB1900944001322143082A89
:1066B000C9B2E6D1214C2268D15401330A2BDCD176
:1066C0002368D97823689B7822681B045078226855
:1066D00043EA01631278134343EA0020FFF73CFFCB
:1066E00021680120FDF710FF013545459ED10023AB
:1066F000134A02EBC3014968032911DD52F8330044
:10670000FDF750FF0F4B104A0024DA620F4A204673
:106710009A610F4904227461FFF7FEFD204603E0F1
:106720000133202BE4D1012015B0BDE8F08300BF78
:106730004C040010289A0000C0A20000781100103C
:1067400060100010340E001069460000E56400007F
:106750005004001038B5164DAB7C0A2B26D1154CD1
:10676000FFF7CCF92388DB0744BF40F6881323806A
:10677000236C4BB90F4B188880B200F051FF0E4BC1
:106780000A20EB62FFF7CAF9AD7CEDB20A2D0DD1FC
:1067900000200A490422FFF7BFFD094A044B28469E
:1067A0009A6100236361FFF7ABFAD4E738BD00BFFD
:1067B000340E00104C040010B565000050040010A9
:1067C000E56400002DE9F04F8FB0904982468B8838
:1067D0000868ADF8203007908B1D09AA01F1160555
:1067E00018685968144603C40833AB422246F7D1EF
:1067F0001868874A2060146800239346854AE05C45
:1068000002F1240158540133062B9046F6D1126A46
:106810000B23971F97FBF3F6112A03FB167703DD73
:10682000721C1FB1164602E0012600E01F46B500AB
:10683000284602F01BFC0023044606F1FF394B45B5
:1068400008DA1F20029302F011FC029B44F8230097
:106850000133F2E707F1170002F008FC043D605134
:1068600000252B46B3426FDA00220DF1240E1EF8EC
:106870000200615988540132142AF6D10522664972
:10688000C2F1070012F801E0615912F1FF3201F87C
:1068900000E0F4D262599DF83710567462591944D9
:1068A0004B45D17412DA0B2159434FF0140CDBF82D
:1068B00000200A44624412F80E0C625902F80C00DF
:1068C0000CF1010CBCF11F0FF1D123E0FAB202F17F
:1068D00012014FF00B0EC9B20EFB03FE0491D11D45
:1068E000C9B205910021B9420BDA494800687044E9
:1068F000084490F806C06059084480F814C001317B
:10690000F1E76159049814324870615905985FFAAB
:1069100082FC0873414A6159106962460293CDF8BE
:106920000CC000F0B5FC6259DDF80CC0010A02F899
:106930000C006259000C6244517062590435624483
:106940009070029B01338DE700F002FF98F812204F
:10695000304B0C2A3FD198F8122098F811309A4207
:1069600051D12F4B4FF080721A604FF080621A6045
:106970004FF0000B0025B54220DA4D4507AB05DA94
:1069800033F80B3027480093222106E033F80B3010
:1069900007F1170123480093C9B254F82520534644
:1069A000FEF7B0FC204B1A6822F07F4220321968B3
:1069B00021F07F419142FAD30135DCE70BF1020B64
:1069C000BBF1060FD6D1194B4FF080721A604FF011
:1069D00080621A60BAE79A7C112ABCD09A7C122A8B
:1069E000B9D09A7C132AB6D09A7C142AB3D09A7C58
:1069F000152AB0D09A7C162AADD09A7C172AAAD034
:106A00009B7C182BA7D00FB0BDE8F08FD0A2000060
:106A1000D8140010340E0010580E00104C04001052
:106A200080E100E0D6BE898E1C10001000E100E07D
:106A300000B58BB02D2001F06DFD030A8DF8050027
:106A40002C208DF8043001F065FD030A8DF8063026
:106A50008DF8070000F0DCFC00F07AFE01F006FE85
:106A60004006FBD5612001F008FE01F0FFFD410763
:106A7000FBD5144B10221A6080221A624FF48072E8
:106A80001A620E2001F046FD00F01F000F28F8D119
:106A9000622001F0F2FD0C4B02221A6001F0E6FDCB
:106AA000C206FBD5074B02221A6002A9202001F082
:106AB00095FD01A90020FDF727FD044B186800F0A3
:106AC00023FDDEE738C009203CC009201C1000105F
:106AD00008B5202001F01EFD08B1FFF7A9FF034B08
:106AE00003221A70BDE80840FEF7F0BD340E001016
:106AF0002DE9F041354D10232D206E7C6B7401F093
:106B000009FD80462C2001F005FD314C0746218807
:106B10002D2001F008FD2C20618801F004FD0320E8
:106B2000572101F000FD142041F24B3101F0FBFC34
:106B3000202040F6617101F0F6FC0220A18801F0EE
:106B4000F2FC0520E179F6B201F0EDFC01F08EFDDA
:106B50004206FBD5612001F090FD01F087FD43075F
:106B6000FBD51C4B4FF480721A6080221A620E20F3
:106B700001F0D0FC00F01F000F28F8D1A0791649D1
:106B800001F0E4FC632001F078FD0E2001F0C2FC6E
:106B900000F01F000F28F8D1104B4FF480721A60DC
:106BA000642001F06AFD01F061FD4407FBD40C4B49
:106BB00080221A602D20414601F0B5FC2C20394678
:106BC00001F0B1FCAE74BDE8F08100BF340E0010DE
:106BD0002010001038C00920281000103CC00920E7
:106BE0005CC009202DE9F0418EB03D4B10221A60A7
:106BF00000F00EFC00F0ACFD3A4B80221A6012202F
:106C000042F6223101F08FFC142041F24B3101F0A9
:106C10008AFC202040F2011101F085FC032029218B
:106C200001F081FC01F022FD4406FBD501F01EFDC0
:106C300000F0040000F0FF050028F7D12A4B9B7CF0
:106C4000042B47D1294BB3F84C409846A4B2B8F86E
:106C50004E309BB2A342F1DB611E022089B201F0EB
:106C600062FC612001F009FD01F000FD4007FBD549
:106C7000622001F002FD4FF4FA730093009E013E82
:106C80000096002EFAD10EAB032707FB053706202E
:106C9000230A07F8343C07F8334C01F03BFC01357C
:106CA000EDB2000A102D07F8320C09D104200DEBCB
:106CB0000001FDF729FC0E4B3546186800F024FC56
:106CC000642001F0DAFC01F0D1FC4107FBD401346F
:106CD000A4B2BCE7074B10221A600EB0BDE8F081E9
:106CE00038C0092058C00920340E00104C04001090
:106CF0001C1000103CC009201FB5444B80221868AE
:106D00009B880290ADF80C30414B12201A6042F67D
:106D1000223101F008FC142041F24B3101F003FC58
:106D2000202040F2011101F0FEFB0320292101F097
:106D3000FAFB0620F12101F0F6FB01F097FC410679
:106D4000FBD501F093FC00F0040000F0FF040028E4
:106D5000F7D1304B9B7C072B55D104AA02EB44039F
:106D600033F8081C0220013989B201F0DCFB6120F4
:106D700001F083FC01F07AFC4207FBD5622001F0B0
:106D80007CFC4FF4FA730193019B013B0193002BB0
:106D9000FAD1062001F0BEFB1F4B40F3072093F809
:106DA00050305BB298420CDD012C07D003D3022C8B
:106DB00016D11A4B13E04FF4807200E01022174BEB
:106DC0000BE0012C07D003D3022C09D1144B06E0B1
:106DD0004FF4807200E01022114B1A6000E01C603A
:106DE0000323013494FBF3F203FB12440D4BE4B292
:106DF000186800F089FB642001F03FFC01F036FCCC
:106E00004307FBD4A5E704B010BD00BFEAA2000011
:106E100058C00920340E00104C04001038C009205E
:106E20003CC009201C10001010B501F0E9FC00F076
:106E300095FC594800F0C6FAFDF7C0FB574B584C7B
:106E4000186800F061FBA27C637C9A42F6D0A37CB8
:106E5000192BF3D801A252F823F000BF396E0000BD
:106E6000D56E0000DF6E0000036F00002D6F000084
:106E7000116F0000216F0000336F0000E96E000009
:106E8000ED6E0000F96E0000C56E0000FF6E0000A0
:106E9000396F0000D16E0000456F00004F6F000099
:106EA000556F00005D6F0000656F00006D6F0000A2
:106EB000756F00007D6F0000856F00008D6F000012
:106EC000F36E0000012001F053FA01F0A3FCB5E7D6
:106ED0000E2300E001236374FEF7F8FBAEE7022304
:106EE0006374FEF7A1FCA9E70823F4E7FFF7F4F9C0
:106EF000A4E7FFF701FAA1E7FFF72CFC9EE70C23BC
:106F000045E0032326482749637400F037FF95E7DF
:106F100005232448637400F035FD0023A3748DE736
:106F200006232048637400F071FE87E7FFF75AFEDE
:106F300084E7FFF7E1FE81E70D236374207D01F014
:106F400085F97BE70F236374FFF7C2FD76E7FFF750
:106F5000CFFD73E71123637408201AE012236374D2
:106F6000092016E0132363740A2012E014236374CB
:106F70000B200EE0152363740C200AE016236374C3
:106F80000D2006E0172363740E2002E018236374BB
:106F90000F20FFF717FC51E7DD4800001C10001020
:106FA000340E00104C040010F0B5424B42481968F2
:106FB00000220023C0E90023002358004F2290FB49
:106FC000F2F402FB14023D4E9A5501334F2BF4D1DB
:106FD0003B4BC1F3C4521A70C1F30714C1F3C7008D
:106FE000384BC1F3C34200F0080504F010071A70D3
:106FF0002F44C1F3870201F00105C1F347032F4479
:1070000002F004052F4403F002052F442E4D04F036
:1070100008042F702D4DC1F388272F808F09CD09CB
:1070200007F0200705F0400549093D4401F0100133
:1070300029440C4400F00400204402F002020244FF
:1070400003F00103224913440B70224B1B7883B3D6
:107050000024A446204F0023E25D002552EA0301EC
:1070600008D012F1FF3043F1FF31013502400B40EF
:10707000EDB2F3E7013465440A2CEDB201D0AC4621
:10708000E8E7164B1D7000231A464F2193FBF1F0E1
:1070900001FB1030C1B2CC083C5D00F0070044FA9F
:1070A00000F0C00702D5501CB154C2B202339E2B6F
:1070B000EBD1F0BD201500107011001085150010E7
:1070C00083150010301500108415001032150010C3
:1070D000D41500109F1400100310001001100010B0
:1070E000F0B587B0C0F3D8024F2122F00F02B2FBF7
:1070F000F1F701FB17273F49C0F3400391F800C0A7
:107100001F215E014B438CEA104C0CF01F0C8CEAE3
:10711000030C394BB6B21C78384B84EA50541B78B8
:1071200004EB90045C40364B0C401B8883EAD01083
:10713000C0F3080080B2002340FA03F102AD01F071
:10714000010159550133092BF6D100234CFA03F004
:10715000E918013300F00100052B4872F6D1002335
:1071600044FA03F101F001010DF803100133052B7E
:10717000F6D10D23E95C79B1224906A85C5C0E3199
:107180000444585C06A9084414F818CC10F8181CDC
:1071900004F8181C00F818CC13F1FF33EAD20021D0
:1071A0000B461DF80300984001330144052BC9B27A
:1071B000F7D1154B37441B7819440F444F23B7FBC5
:1071C000F3F003FB1077114BD85D114B1B786BB1BB
:1071D000104B1B78B2FBF3F003FB102216440E4455
:1071E000B6FBF3F103FB11660B4B985D00F66210E2
:1071F00007B0F0BD84150010831500103015001085
:1072000032150010FBA20000D415001085150010E7
:107210009F140010011000103415001040080AD00F
:107220000B2801D8013804E00C2806D0262806D8FF
:107230000238C0B2704725207047262070472720AB
:1072400070470A2802D800F2B24003E0242803D88D
:1072500000F2B34040007047252807D040F67A136B
:1072600026280CBF18464FF41B60704740F662108A
:10727000704738B5457D04462846FFF7E2FFA27DFA
:1072800025232A4492FBF3F103FB1123637538BDD8
:1072900070B5002320F07F40934214DACD5C0824BF
:1072A00085EA000616F0010F4FEA55054FEA500037
:1072B00005D040F4000080F4B40080F4C040013CEC
:1072C000EED10133E8E770BD70B5013A002A14DB56
:1072D0008D5C0723C40D400020F07F4645FA03F083
:1072E00000F00100604030431CB180F4340080F4B1
:1072F000404013F1FF33EDD2E7E700231A4620FAAE
:1073000003F1C3F1170401F00101A1400133182B6F
:1073100042EA0102F3D1104670BD000030B50023EF
:1073200020F07F40934209DACD5C054C4540EDB238
:1073300054F82540013384EA1020F3E730BD00BF44
:10734000A004001013B50B4641881268ADF8041074
:1073500081884078ADF8061004490C6801A9A0475F
:10736000431E5842584102B010BD00BFDC36001029
:1073700030B587B001AD04466946284601F080FA71
:107380009DF80420E2B923460132A95C00200C09D3
:10739000092C01F00F0186BF5734E4B230340929BB
:1073A00086BF5731C9B23031102A83F87C4083F848
:1073B0007D0083F87E1083F87F0003F10403E3D19E
:1073C00007B030BD38B50D4C054601F037FB2046FF
:1073D000FFF7CEFF204601F06FFD094B094A02205E
:1073E00009491D6001F020FB0849FF2001F04AFD1A
:1073F000012001F0B8FB002038BD00BFA00800103C
:10740000DC360010D83500104573000017A30000CB
:10741000044B002104484FF4005219605960FCF7F6
:1074200007BF00BF740E0010D81500100A4B196872
:10743000586801F07F0100F07F00421C02F07F02DB
:10744000914206D05A6801325A60044B03EB801017
:1074500070470020704700BF740E0010D815001050
:107460000A4B1968586801F07F0100F07F00421C48
:1074700002F07F02914206D05A6801325A60044BF2
:1074800003EB801070470020704700BF740E00109F
:10749000D8150010084B18685A6800F07F0002F0F9
:1074A0007F02904206D01A6801321A60034B03EB48
:1074B0008010704700207047740E0010D81500101F
:1074C00037B50546FFF7E6FF0D4B044638B182207D
:1074D000214640229D6001F077FB01200EE09A6872
:1074E0000849AA1A8A4208D9032202A901F8012DE3
:1074F000822001229D6001F067FB204603B030BD71
:10750000740E0010801A060038B50446822001F07F
:1075100035FB8106054602D42046FFF7D1FF6A06F7
:1075200002D42046FFF7CCFFBDE8384001F0B8BBDD
:1075300008B59E2207480021FCF77AFE064A002380
:107540001370064A1360064B80221A70054B7F2287
:107550001A7008BD800E00109E140010E036001056
:1075600000100010021000100B4B93F90020904205
:10757000A8BF02461A70094B93F900209042B8BF89
:1075800002461A70064B1A6802EB00201860054B81
:107590001A7801321A7070470010001002100010A3
:1075A000E03600109E14001010B540F66213B0F5DE
:1075B0001B6F38BF18460D4BA0F662101B7823B125
:1075C0000B4A1268803292FBF3F30324094A6343A7
:1075D00032F91010FD2404FB01334FF48071803325
:1075E00093FBF1F322F8103010BD00BF9E14001081
:1075F000E0360010800E001040F66213B0F51B6FED
:1076000038BF1846054AA0F6621332F913004FF44A
:107610008073803090FBF3F040B27047800E001012
:1076200038B5154D2C7863B2002B05DDFFF7E4FF6C
:107630002C78363C2044C4B26FF0770364B29C428D
:10764000B8BF1C466FF013039C42A8BF1C46E4B2AF
:1076500004F1380101F0FC01062041F0030100F0C3
:1076600062FF064B1C7064B214F1770F044BACBF81
:10767000002401241C7038BDA0140010181500103F
:1076800068110010074B00221A70074B4FF40012CC
:107690001A60064B04221A609A6842F004029A604B
:1076A000704700BF1915001000E100E0AC800240F7
:1076B000074B1A6822F004021A60042243F8082CCF
:1076C000044B4FF400121A60034B00221A707047EB
:1076D000B480024080E100E01915001008B5FFF702
:1076E000E7FF044B00221A70034A88231370034AF1
:1076F000137008BD68110010A014001018150010B8
:107700000A4B02221A600A4A00231360094A1360D6
:10771000094A1360094A1380094A1380094A1380F1
:10772000094A1360094A1360704700BF04400040D3
:107730001C100010F80F0010101000106A1100103B
:107740009C1400101810001014100010D414001015
:10775000014B01221A6070470440004008B5FFF752
:10776000CFFF064B04221A6002F54362DA6003225F
:107770009A60034B02221A6008BD00BF0C40004013
:1077800000E100E0154B4FF080621A60144A0023BC
:107790001360136213641366C2F88030C2F8A0301D
:1077A000C2F8C030C2F8E030FF23A2F58472136043
:1077B00093600C4B1A6822F001021A601A6812F0EA
:1077C0000102FBD1084B1A60084B1A60084A094BAA
:1077D0001A60094A094B1A60704700BF80E100E057
:1077E0001041005030400050FC0F001014150010E4
:1077F000E11400105C100010A114001078110010AA
:1078000008B5144B1A6842F000521A60FFF7BAFF2D
:10781000114B124A12485A60124A134910601860FC
:1078200012489A60D16050609360114AD96001217A
:1078300011601168C907FCD51A680E490A605A68B8
:107840004A609A688A60DA680B4B1A604DF2060249
:107850005A6008BDC4C00F40A4370010E1140010E6
:10786000080003409437001032900088A1140010E3
:1078700030400050004100500C41005008B51A4BF8
:107880001A6842F000521A60FFF77CFF174B012282
:107890001A601A68D007FCD5154B0022154943F829
:1078A000101C154901EB820143F80C1C0A2A14BF75
:1078B0001946002143F8081C013210490B2A43F8ED
:1078C000041C03F11003E9D10D4B0E491A680A603C
:1078D0005A684A609A688A60DA680B4B1A604DF2FF
:1078E00006025A6008BD00BFC4C00F4030400050BF
:1078F000F436001008000340E11400100410008862
:10790000E4360010004100500C4100500D4A4FF089
:10791000805313600C4A116841F00101116052F864
:10792000201C41F0020142F8201C084A116841F075
:1079300001011160064A4FF080611160054A136031
:10794000704700BF98C00920240003401041005038
:1079500000E100E09CC00920084B4FF080521A6003
:10796000074B1A6822F001021A6053F8202C22F00B
:10797000020243F8202CFFF705BF00BF98C0092082
:10798000240003402DE9F04796B000AF152387F897
:107990004030002387F8413081463A2307F15800F0
:1079A00040F8583D944B384607F114011B6898473E
:1079B0003A7DEA46002A40F01B81BB691220190E6D
:1079C00087F84210190C87F8431087F84530190AD8
:1079D000FB6987F84410190E87F84610190C87F8D0
:1079E000471087F84930190A3B6A87F84810190E82
:1079F00087F84A10190C87F84B1087F84D30190A90
:107A00007B6A87F84C10190E87F84E10190C87F80E
:107A10004F10190A87F8501087F8513042F622317A
:107A2000FF2387F8522087F8532087F8543087F8CF
:107A3000553000F078FD142041F24B3100F073FD19
:107A4000202040F6F15100F06EFDB9F80010022040
:107A500089B200F068FD2D204FF6AE1100F063FDF5
:107A60002C2041F2845100F05EFD0520082100F039
:107A70005AFD0320292100F056FD00F0F7FD4606CF
:107A8000FBD5612000F0F9FD00F0F0FD4507FBD5C6
:107A90005A4B4FF480721A6080221A62002405202B
:107AA00044F0080100F03FFD002587F8524087F8B8
:107AB00053500E2000F02EFD00F01F000F28F8D1CB
:107AC000002607F1400818F806107020013600F073
:107AD00038FD162EF5D16320013500F0CEFD102DB6
:107AE000E5D10134E4B2082CD9D10E2000F012FD0A
:107AF00000F01F000F28F8D1414B4FF480721A603C
:107B0000642000F0BAFD00F0B1FD4407FBD4B9F8E1
:107B10000010022089B2013989B200F004FD00F0A2
:107B2000A5FD4006FBD5612000F0A7FD00F09EFDFD
:107B30004107FBD5314B10221A600E2000F0EAFC01
:107B400000F01F000F28F8D1622000F096FD00F031
:107B50008DFDC206FBD5294B02221A60002470203D
:107B600000F0E6FC07F1280528550134162CF6D163
:107B700000F07CFD030702D40222214BDCE70E203B
:107B800000F0C8FC00F01F000F28F8D1642000F0BE
:107B900074FD00F06BFD00F0040000F0FF0300280E
:107BA000F7D1184A80211160102142F8201C97F863
:107BB0003A00154A0121507097F83B0087F84110B0
:107BC000907097F83C00D07097F83D001071EC5C15
:107BD00018F80300844218BF991C03F1010318BF71
:107BE000C9B2122BF3D1064B117002221A60D5468E
:107BF0005837BD46BDE8F08794A3000038C009207F
:107C00003CC009205CC00920DC140010F0B587B02E
:107C10000746122042F6223100F085FC142041F282
:107C20004B3100F080FC3988022089B2013989B2D9
:107C300000F079FC2D204FF6AE1100F074FC2C20E2
:107C400041F2845100F06FFC0520082100F06BFC2C
:107C50000320292100F067FC00F008FD4306FBD556
:107C6000612000F00AFD00F001FD4607FBD5414B05
:107C700010221A604FF480725A6002225A608022E9
:107C80001A620E2000F046FC00F01F000F28F8D109
:107C9000394B02221A60622000F0EFFC00F0E6FC93
:107CA000C506FBD5334B02221A600024702000F079
:107CB0003FFC0DF804000134162CF7D100F0D6FC7F
:107CC0000407DED52C4B02221A6010221A606420B1
:107CD00000F0D3FC00F0CAFC4007FBD400F0C6FC67
:107CE0004106FBD53988022089B200F01CFC00F067
:107CF000BDFC4206FBD5612000F0BFFC1D4B4FF4DC
:107D000080721A6015238DF8003001238DF8013040
:107D10000024052044F0080100F005FC00258DF842
:107D200014408DF815500E2000F0F4FB00F01F00F9
:107D30000F28F8D100261DF806107020013600F03B
:107D400000FC162EF7D16320013500F096FC102DB3
:107D5000E7D10134E4B2082CDBD1074B4FF4807239
:107D60001A60642000F089FC00F080FC4307FBD41B
:107D70004FE700BF38C009203CC0092038B5037860
:107D80000D4623B10378012B2FD1402400E0292494
:107D9000122042F6223100F0C6FB142043F24B3190
:107DA00000F0C1FB202040F6F15100F0BCFB298817
:107DB000022089B200F0B7FB0320214600F0B3FB9C
:107DC00000F054FC4106FBD5612000F056FC00F0A9
:107DD0004DFC4207FBD5054B4FF480721A606320BF
:107DE00000F04BFC024B80221A6038BD38C00920DD
:107DF00058C00920044B4FF080521A60034B1A6898
:107E000022F002021A60704798C009200400034063
:107E10000023054A12685207FBD5044A1268C2546F
:107E20000133242BF5D170470C00034008000340B8
:107E300010B5084B084A1B681268C3F3130340F6D9
:107E4000354404FB0323836042F210735943C1603D
:107E500010BD00BF1C100010084000400B4B0C4A26
:107E60001B68126840F63541C3F3130301FB03237B
:107E70008268C06893423CBF03F1434303F5A0030B
:107E80009B1A834234BF0020012070471C10001051
:107E9000084000407047000000234360034B40F659
:107EA00068121A8001230370704700BF4C04001051
:107EB000012303707047000010B547F6FF710446B8
:107EC0000D2000F030FB122042F6223100F02BFB97
:107ED000142041F24B3100F026FB20204FF4986132
:107EE00000F021FB1E4B0220198889B2013989B2AA
:107EF00000F019FB0320262100F015FB21200321AF
:107F000000F011FB2D2046F20F3100F00CFB2C206D
:107F100049F6FE7100F007FB00F0A8FB4006FBD518
:107F2000104A4FF0805313600F4A6120116841F0EE
:107F3000020111600D4A136000F09FFB00F096FBF8
:107F40004107FBD50E2000F0E5FA00F01F000F28D6
:107F5000F8D1622000F091FB0223237010BD00BF16
:107F60004C04001098C00920040003409CC0092064
:107F700010B547F6FF7104460D2000F0D4FA122028
:107F800042F6223100F0CFFA142043F24B3100F0D8
:107F9000CAFA20204FF4986100F0C5FA1A4B02206B
:107FA000198889B200F0BFFA0320262100F0BBFA3D
:107FB0002120032100F0B7FA05200F2100F0B3FAC9
:107FC00000F054FB4206FBD5612000F056FB00F0A8
:107FD0004DFB4307FBD50E2000F09CFA00F01F007C
:107FE0000F28F8D1094B80221A60632000F045FB6E
:107FF000074B4FF480721A6005232370A369A360B6
:1080000044F62063E36010BD4C04001058C0092002
:1080100038C0092010B50446FFF720FFB0B16368EF
:108020005A1C0B4B1340002B03DA013B63F0030394
:108030000133084A636032F81320074B20460721BA
:108040001A80FFF7F5FE01232361237010BD00BFE6
:108050000300008040A300004C04001010B504464B
:10806000FFF7FCFE30B1012323702361A369A360F5
:10807000014BE36010BD00BFB0AD010010B5044678
:10808000FFF7ECFE00B3642000F0F7FA0F4B8022FC
:108090001A604FF4807243F8202C63685A1C0C4B12
:1080A0001340002B03DA013B63F003030133094A59
:1080B000636032F81320084B1A8003232370A369EE
:1080C000A3604EF66023E36010BD00BF5CC00920D2
:1080D0000300008040A300004C04001010B58AB0DB
:1080E000002128226846FCF7A3F8174B174A1B68A3
:1080F000126840F63541C3F3130301FB03230993D0
:1081000000F0B4FAC0061DD5114B10241C6068465F
:10811000FFF77EFE06206946099AFCF783FF0D4BA8
:1081200061201C6000F0A9FA00F0A0FA4107FBD51D
:108130000E2000F0EFF900F01F000F28F8D16220A8
:1081400000F09BFA0AB010BD1C100010084000405F
:1081500038C009203CC0092010B5044600F086FA5A
:10816000C3060ED50423237001236361114B124A09
:108170001B681268C3F3130340F6354101FB032368
:10818000A36123695BB12046FFF768FE38B1042381
:1081900023700023636120460B21FFF749FE2378FB
:1081A000022B06D0642000F068FABDE81040FFF70B
:1081B00021BE10BD1C1000100840004030B58BB02F
:1081C0000021044628226846FCF732F81B4B1C4A63
:1081D0001B681268C3F3130340F6354101FB032308
:1081E00020460993FFF73AFE28B120460421FFF705
:1081F0001FFE0323237000F039FAC20612D5114B7B
:1082000010251D606846FFF703FE6946099A06209F
:10821000FCF708FF0C4B20461D600621FFF708FE07
:10822000032323702378022B06D0642000F025FA64
:10823000FFF7E0FD012323610BB030BD1C100010DF
:108240000840004038C009203CC0092030B589B042
:10825000002104461C2201A8FBF7EAFF012C144D63
:1082600009D006D3022C01D1124C05E000232B705B
:108270001BE0114C00E0114C114B4FF080721A6062
:1082800000F0C0F82B780D2B06D19DF8043001A822
:1082900054F823309847F5E7642000F0EEF9FFF733
:1082A000A9FD084B4FF080721A6009B030BD00BFC5
:1082B000460E00107CA3000048A3000064A3000049
:1082C00000E100E080E100E000F0EABC08B5002336
:1082D0000C4A0D499818884204D20C4959589950B3
:1082E0000433F5E70A4B0B4A934203D2002243F8CA
:1082F000042BF8E7FBF76EFF074B084A1A60FEF7FE
:1083000093FDFEE720000010140E0010E8A300000B
:10831000180E0010B837001008ED00E00040000013
:10832000FEE70000044A0A2313601368013B136050
:10833000002BFAD1704700BF200F001090FAA0F078
:1083400070470000830803EBD00303EB901303EBAB
:10835000D01303EB9023054A03EBD0205060536801
:10836000013B5360002BFAD1704700BF200F001073
:10837000014B5843FFF7E6BF40420F00104A00236D
:10838000136053609360D3601361D361536293624F
:108390000C4A1360136213641366C2F880300A4AF1
:1083A000136053609360D3601361D3615362074AD3
:1083B0001360136213641366C2F88030704700BF05
:1083C00000C0024000C0092040C0024014C0092083
:1083D00008B5FFF7D3FF0A4A00234CF2127113606D
:1083E000116240F2B11111644FF040511366C2F8AE
:1083F00080105361536353655367C2F8943008BDCE
:1084000000C00920114B1A6822F4404242F4004295
:108410001A601A6822F4405242F400521A601A6834
:1084200022F4403242F400321A601A6822F44022E8
:1084300042F400221A60064B4FF080521A60054B3E
:10844000C7221A600C225A60704700BF00C0024069
:1084500098C0092000000340094B1A6822F47012EA
:108460001A60084B1A6822F0C0621A60064B1A683C
:1084700042F420121A601A6822F4A0121A6070479F
:1084800004C0024000C0092044C0024030B50124AD
:10849000431E9C40202201380D4BC0B2FF281A60B9
:1084A0000C4B11D0214208BF094D4FF0010214BFFF
:1084B0001A602A6010221A60074B49001B689B074C
:1084C00048BF41F00101E6E720221A60084630BDAE
:1084D0005CC0092058C0092054C0092010B50A4CBE
:1084E000FFF7BAFF4FF4007323603220FFF72AFF33
:1084F000064B20221A604FF4804323601820044961
:10850000BDE81040FFF7C2BF38C0092058C009209D
:10851000FF7F0D0008B540F0800109041820FFF727
:10852000B5FF80B208BD41EA00411820FFF7AEBF99
:1085300008B540F0800109021020FFF7A7FFC0B284
:1085400008BD41EA00211020FFF7A0BFF8B5214B7C
:1085500020221A600823702212F0800F1E4D08BFDF
:108560001C4E4FF0010414BF2C60346010242C60AA
:10857000013B184D520013F0FF03D2B22C60EBD137
:10858000DAB2824217D2CA5C082412F0800F124E6F
:1085900008BF104F4FF0010514BF35603D60102536
:1085A0003560013C0B4E520014F0FF04D2B235602E
:1085B000EBD10133E4E70823074C0649013B1022C5
:1085C00013F0FF0322600A60F6D1FFF7ABFE202311
:1085D0002360F8BD5CC0092058C009202DE9F04196
:1085E000204B20221A60074688460825F02313F006
:1085F000800F1D4908BF1B484FF0010214BF0A60DD
:10860000026010220A60013D16495B0015F0FF056B
:10861000DBB20A60EBD1EBB2BB421BD208260024CE
:10862000FFF780FE104B10221A60043B1B686400A9
:108630009B07E4B248BF44F00104013EFFF772FE1D
:10864000084B102216F0FF061A60E9D108F8054021
:108650000135E0E7FFF766FE034B20221A60BDE814
:10866000F08100BF5CC0092058C0092008B5002176
:108670000820FFF70BFFC0B208BD08B5014608206F
:10868000FFF704FFC0B208BD08B518200021FFF7AE
:10869000FDFE0020FFF73EFF0028FAD118204FF41E
:1086A0000041FFF7F3FE0020FFF734FFB0F5004F65
:1086B000F9D108BD10B5464B44F23A021A600022C7
:1086C000C3F80C2180331A68AA2122F002021A6032
:1086D000404A1160552111603F4A12689001FBD455
:1086E0001A6822F001021A603A4BAA221A60552237
:1086F0001A60394B1B6813F08073FAD1374A136044
:10870000FFF7C2FF18203649FFF7C0FE6020FFF7D1
:10871000B4FFFFF7ABFF4106FBD5324B20221A60B6
:108720001A685206FCD5304B08221A6000225A60A3
:10873000012243F89C2C2D4A9C3B43F8882CAA210B
:1087400055222B4843F8801C43F8802C046844F0E1
:108750000104046043F8801C43F8802C1E4B1B6806
:10876000DB01FBD51D4B03221A6053F8842C42F029
:10877000020243F8842CAA2243F8782C552243F8AD
:10878000782C154B1B689C01FBD51A4B22221A60D2
:10879000AA215522184899609A60046844F001049F
:1087A000046099609A60154B1A68D005FBD51A6869
:1087B0005105FCD5104B1A6842F002021A60AA2239
:1087C000DA605522DA600D4B1B689A05FBD510BDA7
:1087D00000C00F408CC00F4088C00F4004C10F4044
:1087E00070150800A0C10F40A8C10F40180001007B
:1087F00080C00F40A4C00F40A0C00F40A8C00F40D1
:1088000008B5FFF7E5FDFFF769FEBDE80840FFF793
:1088100051BF000008B5FFF7B1FD094B02221A60F5
:108820004FF080431A68074842F003021A60AA22F8
:108830009A6055229A60BDE80840FFF783BD00BFEB
:108840003CC0092040420F0030B58BB036230446AF
:108850000AA80D4640F8283D05A96846074B9847E9
:10886000059B2370069B1A0A6370A2701A0C1B0EDC
:1088700023710523E2702B600BB030BDF11FFF1F89
:1088800030B58BB03A2304460AA80D4640F8283D7F
:1088900005A96846134B9847059B2370069B1A0A47
:1088A0006370A2701A0C1B0E2371079BE2701A0AE8
:1088B0006371A2711A0C1B0E2372089BE2711A0AD3
:1088C0006372A2721A0C1B0E2373099BE2721A0ABE
:1088D0006373A2731A0C1B0E23741123E2732B60B3
:1088E0000BB030BDF11FFF1F00B58BB039230AA8B4
:1088F00040F8283D05A96846024B98470BB05DF843
:1089000004FB00BFF11FFF1F38B5084C802025680D
:108910006168402DA8BF40252A4600F055F96368DC
:108920002B44636023685D1B256038BD280F001051
:1089300037B5114B1C7A1D46C4F34114022C0DD1DE
:10894000002202A941F8042D03F1080003F11002EE
:10895000043300F063FA08B101980AE005EB8404DF
:1089600063692BB1054800F10801021F984700E038
:10897000184603B030BD00BF280F0010300F0010A4
:1089800010B500284AD101F0040303F0FF01254C83
:108990000BB3082204F1080100F046F9227AC2F371
:1089A000411304EB83035B6A6360E3892360236103
:1089B0000BB1D20934D0FFF7BBFF28B980200121C9
:1089C000BDE8104000F0F4B8E28923699A42D4BFB0
:1089D0002260236019E02268002A1ADD616800F035
:1089E00023F90028EADB6368034463602368181AEC
:1089F0002060A8B9237AC3F3411304EB83035B6AB5
:108A00006360FFF795FF0028D8D0BDE81040FFF75E
:108A10007BBF0A46BDE8104000F006B98028F4D0BC
:108A200010BD00BF280F0010024B03EB8000416116
:108A300042627047280F00107047000010B50E4CBE
:108A400000F094F90D4800F07DF82146002000F078
:108A50005FF82146802000F05BF80020402100F004
:108A60003BF88020402100F037F800200449054AF7
:108A7000FFF7DAFF012010BD81890000398A00006C
:108A80001D8F00005C0F0010034B1B6803408342E6
:108A9000FAD1024B1860704700C2005008C2005063
:108AA000044B000440F4A06030221A60986010204B
:108AB000FFF7EABF08C2005010B50C462404FFF7C8
:108AC000EFFF044B44F480741C601020BDE810409C
:108AD000FFF7DABF10C2005010B500F00F04C00954
:108AE00040EA44040122A240084B186802431A607D
:108AF0004FF480705C609960FFF7C6FF44F040005F
:108B00000021BDE81040FFF7D7BF00BF44C20050AE
:108B10000A4A00F00F03C00942F8231040EA43005C
:108B2000012101FA00F0064B1A681043186053F84F
:108B3000302C42F0040243F8302C7047640F0010D0
:108B400034C20050034B1864034B1A6842F0080209
:108B50001A607047640F001004C2005040F080019A
:108B6000D020FFF7A9BF011C18BF0121FE20FFF78D
:108B7000A3BF0146F320FFF79FBF000010B500F030
:108B80000F04C00940EA44042046FFF789FF24048B
:108B9000054B44F400741C602020FFF775FF034B65
:108BA0001868C0B210BD00BF10C2005014C20050FF
:108BB00000F00F03C00940EA4300003140F04000DC
:108BC00018BF0121FFF778BF10B500F00F03C009EF
:108BD000144640EA4300114A9B0043F0020313602D
:108BE0000F4B1C600D4B1A6812F002020ED08A78EF
:108BF000CB78120442EA03620B7804311A4311F86D
:108C0000033C42EA0322074B1A60EBE71A60FFF7C6
:108C100047FFFA20FFF744FF204610BD28C200504E
:108C200024C200501CC2005038B500F00F03C00928
:108C300040EA4300144C9B0043F001032360134BB4
:108C40001B681D05FBD55C051BD5C3F30905002377
:108C50001C46AC420BD014F0030F04BF0C4B1B6836
:108C600011B1944238BF0B551B0A0134F1E7064B92
:108C700000221A60FFF714FFF220FFF711FF2046D1
:108C800038BD4FF0FF3038BD28C2005020C2005020
:108C900018C20050011C18BF0121D820FFF70CBFDB
:108CA00038B5294B1C68E10711D501229A60274B82
:108CB0005D6C65B1F520FFF7F3FE254B254A2020BA
:108CC0001A60FFF7E1FE244B1868C0B2A8472207DC
:108CD00017D5224B08221A60FE20FFF7E1FE1C4B3D
:108CE0001F4A20201A60FFF7CFFE1B4B1868C0B246
:108CF00010F01A0F05D0154B1B6C13B100F01500C6
:108D0000984763071ED5154B04221A6000240123DF
:108D1000A340144A1268134211D0134A2020136052
:108D2000FFF7B2FE0C4B60101968084B53F8203067
:108D30002BB140EAC410C0B201F01F0198470134C2
:108D4000202CE4D138BD00BF00C20050640F0010D9
:108D500010C200500002F50014C2005008C20050BA
:108D60000002FE0030C2005038C2005008B5244B4B
:108D70001A6822F4402242F480221A6053F8042C2C
:108D800022F0300242F0100243F8042C53F8042C75
:108D900022F0405242F0005243F8042C53F80C2CBD
:108DA00022F0406242F0806243F80C2C53F80C2C05
:108DB00022F0405242F0805243F80C2C114B1A68BA
:108DC00042F000421A60104B1A6842F012021A6018
:108DD0000E4B1A689207FBD51A68D006FCD50C4BCF
:108DE00000200C4A18604FF0FF3313605062D062CD
:108DF0001363094B1860FFF7BCFE012008BD00BFDC
:108E000010C00240C4C00F40F4CF0050F8CF005053
:108E100004C2005008C2005040C2005070B5164C49
:108E20000025247814B34678A64221D184880D60A9
:108E3000042CC688458805D0052C1BD10F48186026
:108E4000922002E00E481860282010601468280A5A
:108E5000000484420EDB1D680544201A1D60B042E8
:108E6000D4BF106016600120086070BD204670BD40
:108E7000284670BD012070BDAC0F00105D090010C8
:108E800098A3000010B50A4B187079B1094B002265
:108E90008C5C981E3CB10132262A184603F8024C1D
:108EA00003F10203F4D100230370837010BD00BFEF
:108EB000AC0F0010A1090010014B5860704700BFB3
:108EC000AC0F0010F0B5050A032DC6B2114908D148
:108ED000EE2E06D1104809789230017418601223E2
:108EE00012E04968002401E001340144087880B1AF
:108EF0004F78AF42F9D1B442F6D1022D196006D1B4
:108F0000C8788B7843EA002313600120F0BD0B780A
:108F1000FAE7F0BDAC0F00105D0900102DE9F04735
:108F20004B4E0446B3680D461746B04643B9267803
:108F300006F01F06012E53D006D3022E62D081E028
:108F400098470028F3D080E062783B68092A79D8F6
:108F5000DFE802F00578787878090D78151C002292
:108F60001A705A7045E0A078FFF7F8FD6DE0608850
:108F7000A1882A463B46BDE8F047FFF7A3BF98F813
:108F80000C2001201A702860BDE8F087A6780EB981
:108F900030461FE0FF27D8F80450B9462B78C3B1FC
:108FA0006B78042B06D0052B06D0022B0ED195F83A
:108FB00005900BE0EF7809E0B14507D137B9697941
:108FC0002B79A87843EA0121FFF786FD2B781D4411
:108FD000E4E70120FFF75EFE638888F80C3034E098
:108FE00063783A680A2B06D00B2B07D053BB13705B
:108FF0005370022304E00023137016E063880BBB58
:109000002B6022E0D7F800806778012F0FD002D3C1
:10901000032F10D016E02079FFF7B0FD0023C0F336
:10902000400088F8000088F801302E600DE061886B
:1090300041B9207903E0638823B920790121FFF742
:10904000B7FD02E00020BDE8F0870120BDE8F08711
:10905000AC0F00109140031C90409C46203A934076
:10906000194352426346D3401943704740F2484384
:10907000C1F200030146186800F000B82DE9F04F76
:1090800001F10B05162D87BF25F00705EB0F002317
:1090900010258D422CBF194643F0010183B00746CD
:1090A000002940F0B48000F045FBB5F5FC7F1FD2ED
:1090B00040F60426C1F200064FEAD50C06EBCC03BD
:1090C000DC689C4200F0F4816368E26823F00303EB
:1090D00023445868A16840F00105CA603846916091
:1090E0005D6000F029FB0834204603B0BDE8F08F36
:1090F0005FEA552C04BF7E214FF03F0C40F08E807C
:1091000040F60426C1F2000606EB8101CC68A142BC
:1091100006D10DE0002B80F26381E468A14207D004
:10912000626822F00302531B0F2BF3DD0CF1FF3CAE
:109130000CF1010C40F60423C1F20003346903F181
:10914000080E744508BF5A6821D0616821F00301F8
:109150004A1B0F2A00F39081002AC3F814E0C3F8D9
:1091600010E066DAB1F5007F80F05F81C9088A10EF
:109170004FF0010808FA02F803EBC1015A68886849
:1091800048EA0202A060E1605A608C60C4604FEA65
:10919000AC0301209840904258D8024206D12CF0EE
:1091A000030C400002420CF1040CFAD006EBCC0890
:1091B0004446E146E3689C4207D170E1002A80F210
:1091C0008181DB689C4200F06A81596821F00301CB
:1091D0004A1B0F2AF2DD1C4654F808CFD96845F027
:1091E000010942F001081D44C3F804903846CCF848
:1091F0000C10C1F808C075613561C5F80CE0C5F800
:1092000008E0C5F80480AA5000F096FA6CE70C2339
:1092100000240360204603B0BDE8F08FBCF1040FCA
:1092200000F2EF804FEA951C0CF1380C4FEA4C012C
:1092300066E721444B68384643F001034B6000F079
:109240007BFA0834204603B0BDE8F08FB468636849
:1092500023F003094D4504D8C5EB09030F2B00F398
:10926000AF8040F6C47340F6106AC1F20003C1F249
:10927000000A1B68DAF800102B4401311DBF03F50A
:1092800080530F3323F47F6303F1100C18BF23F0D6
:109290000F0C04EB0902614638468DE8041000F01B
:1092A0004DFA9DE80410B0F1FF3F804600F02081A8
:1092B000824200F21A8140F6C87BC1F2000BDBF853
:1092C000003042456344CBF8003000F05F81DAF8AB
:1092D000000040F6106101301CBFC2EB08029B1871
:1092E000C1F200010CBFC1F80080CBF8003018F0CB
:1092F00007031FBFC3F108029044C3F5805303F175
:10930000080A08EB0C0308BF4FF4805AC3F30B03A1
:10931000C3EB0A0A5146384600F010FA431C18BF46
:10932000C8EB0001DBF8003015BF51444FF0000AD4
:1093300041F00101012140F6C8725344B442C6F81D
:109340000880CBF80030C8F80410C1F2000218D031
:10935000B9F10F0F40F2FB806168A9F10C0020F019
:10936000070001F0010140EA010C4FF0050E211841
:109370000F28C4F804C0C1F804E0C1F808E000F206
:10938000118140F6C072C1F200021168B4688B42CC
:1093900088BF136040F6BC72C1F2000211688B42B4
:1093A00088BF1360626822F003029542C5EB020396
:1093B00001D80F2B04DC384600F0BEF9002493E6F8
:1093C00045F0010243F00103254462603846B56070
:1093D0006B6000F0B1F90834204603B0BDE8F08FAF
:1093E00022445068E368A16840F00105CB6038462C
:1093F0009960556000F0A0F90834204603B0BDE83C
:10940000F08FBCF1140F9CBF0CF15B0C4FEA4C01C8
:109410007FF676AEBCF1540F00F28F804FEA153C18
:109420000CF16E0C4FEA4C016AE64B0A042B58D93A
:10943000142B9CBF03F15B02500005D9542B00F2A2
:10944000BA800A0B6E32500006EB8000836840F64B
:1094500004288342C1F200087FD05A6822F0030238
:10946000914202D29B689842F7D1D9687268E16054
:10947000A3608C60DC608AE645F0010642F00101E1
:109480002544666038465D611D61C5F80CE0C5F88D
:1094900008E06960AA50083400F04EF924E609F1AA
:1094A000010919F0030F04F108047FF483AE28E0EA
:1094B00004F108036469A34208BF0CF1020C3FF4F5
:1094C00039AE01E6194448681C4654F8082FDB6899
:1094D00040F001054D603846D3609A6000F02CF9E9
:1094E00002E68A0938325000AEE7B4423FF4E3AEF8
:1094F000B468626822F0030257E7D8F80080984504
:109500006BD11CF0030FA8F108030CF1FF3CF4D160
:10951000736823EA00037360400098423FF696AEFA
:1095200000283FF493AE0342CC467FF43FAE4000A8
:1095300003420CF1040CFAD038E6BCF5AA7F16D829
:109540004FEAD53C0CF1770C4FEA4C01D8E50123EA
:10955000C8F804304446002227E7921001209040CA
:10956000D8F8042019460243C8F804207FE740F2E7
:1095700054539C459DBF4FEA954C0CF17C0C4FEA2F
:109580004C01FC2188BF4FF07E0CB9E5C2F30B0102
:1095900000297FF49CAE0CEB0901B26841F0010197
:1095A0005160EEE604F108013846009200F05CF9E3
:1095B000009A1368E5E6B3F5AA7F03D8CA0B7732A1
:1095C000500041E740F2545293429DBF8A0C7C32D6
:1095D0005000FC2088BF7E2236E773689CE700BFFE
:1095E000032A70B414D940EA01039B0711D10C4639
:1095F000034625681E682146AE42184604F104045D
:1096000003F1040304D1043A032A18462146F0D892
:10961000C2B105780C78A54204BF02F1FF320023E5
:1096200006D00CE010F8015F11F8014FA54206D1F9
:10963000934203F10103F5D1002070BC7047281B51
:1096400070BC70471046F8E7844641EA000313F007
:10965000030349D1403A23D30B6803604B6843604E
:109660008B688360CB68C3600B6903614B6943619E
:109670008B698361CB69C3610B6A03624B6A436286
:109680008B6A8362CB6AC3620B6B03634B6B43636E
:109690008B6B8363CB6BC36340304031403ADBD28A
:1096A00030320BD30B6803604B6843608B68836078
:1096B000CB68C36010301031103AF3D20C3205D3AE
:1096C00051F8043B40F8043B043AF9D2043208D084
:1096D000D2071CBF11F8013B00F8013B01D30B88F6
:1096E00003806046704700BF082A13D38B07B1D0B0
:1096F00010F00303AED0C3F10403D21ADB071CBF82
:1097000011F8013B00F8013BA4D331F8023B20F8EB
:10971000023B9FE7043AD9D3013A11F8013B00F824
:10972000013BF9D20B7803704B7843708B788370D0
:1097300060467047704700BF704700BF38B543F2BE
:10974000B47400230546C1F200040846236000F00B
:1097500057F9431C00D038BD2368002BFBD02B6089
:1097600038BD00BF20F0030110F00300C0F100007D
:1097700051F8043B00F1040C4FEACC0C6FF00002EE
:109780001CBF22FA0CF213434FF0010C4CEA0C2CD4
:109790004CEA0C4CA3EB0C0222EA030212EACC12B4
:1097A00004BF51F8043B0430F4D013F0FF0F1FBF87
:1097B000013013F47F4F013013F47F0F18BF0130D5
:1097C000704700BFF8B540F60424C1F200040F460C
:1097D0000546FFF7AFFFA3685E6826F00306F71B98
:1097E00007F6EF773F0B013F3F03B7F5805F07DBDD
:1097F00028460021FFF7A2FFA3683344984204D013
:109800002846FFF799FF0020F8BD28467942FFF768
:1098100095FF013010D040F6C873C1F200031A68FA
:10982000A168F61B46F001062846D71B4E601F6054
:10983000FFF782FF0120F8BD28460021FFF77EFFD9
:10984000A368C21A0F2ADBDD40F61061C1F20001E5
:109850000C6840F6C87142F00102001BC1F2000121
:109860005A600860CCE700BF2DE9F8430E468146F8
:10987000002960D0FFF75EFF56F8041CA6F108042B
:1098800021F00103E218576840F60425C1F20005F3
:1098900027F00300AF68974262D011F0010C5060CE
:1098A00018BF002111D156F8081C05F10808641AE8
:1098B000A6680B4446451DBFD4F80C806146C6F827
:1098C0000C80012118BFC8F8086016187668F607E2
:1098D00008D40344906811B9484EB0425FD0D268B2
:1098E000C260906043F001026260E350F1B9B3F5E9
:1098F000007F22D35A0A042A5AD8980938304100E6
:1099000005EB8105AA6840F60421AA42C1F20001D4
:109910005AD0516821F003018B4202D292689542DD
:10992000F7D1D368E360A2609C60D4604846BDE88C
:10993000F843FFF701BFBDE8F883DB089A10012068
:109940009040696805EBC3039A6801436960A260AF
:10995000E36048469C60D460BDE8F843FFF7ECBE86
:10996000CF07184407D456F8081C641AE368A268A5
:109970000844D3609A6040F60C62C1F2000213689A
:1099800040F0010298426260AC60CFD340F6C473ED
:10999000C1F2000319684846FFF714FFC6E743F019
:1099A00001026C612C61E060A0606260E350BDE781
:1099B000142A9CBF02F15B004100A1D9542A0BD8A4
:1099C000180B6E3041009BE78010012585404868E8
:1099D000134628434860A5E7B2F5AA7F03D8D80B01
:1099E000773041008CE740F254518A429DBF980C79
:1099F0007C304100FC2188BF7E2081E70C0A0010EA
:109A000040F6F073C1F20003196843F2B872C1F274
:109A10000002002918BF0A4610441860104670471B
:109A20004300000020000010463E786F4D2E0F6569
:109A300042271F1A50537D590A2308367A112100F4
:109A40003A73065E56313414281B545A3F702F6601
:109A500001010101000100010001000000000100FE
:109A600001010001010101000001010100000100EC
:109A700001000101000001010000000000010100DF
:109A800001010001000101010001000000010100CD
:109A900000010000000100000000000001000001C2
:109AA00000000101000100000101010100010101AC
:109AB000000000000101010101010100000001019D
:109AC000010001010000000100010000010001751A
:109AD000626572746F6F746820323031372D3033A5
