:10400000E03F0010197D00006D7D00006D7D000017
:104010006D7D00006D7D00006D7D000000000000E2
:104020000000000000000000000000006D7D0000A6
:104030006D7D0000000000006D7D00006D7D0000C2
:104040006D7D00007D4F00006D7D00006D7D0000E6
:104050006D7D00006D7D00006D7D00006D7D0000B8
:104060006D7D00006D7D00006D7D00006D7D0000A8
:104070006D7D00006D7D00006D7D00006D7D000098
:104080006D7D00006D7D00006D7D00006D7D000088
:104090006D7D0000BD5000006D7D00006D7D000055
:1040A000157D00006D7D0000F15000006D7D000069
:1040B0006D7D00006D7D00006D7D00006D7D000058
:1040C0006D7D00006D7D00006D7D000008B540F63F
:1040D0000020074BC1F200001B1A062B00D808BDB8
:1040E00040F20003C0F20003002BF8D09847F6E737
:1040F000030A001008B540F6002040F60023C1F284
:104100000003C1F200001B1A9B1003EBD37359107C
:1041100000D108BD40F20002C0F20002002AF8D02F
:104120009047F6E710B540F60024C1F2000423786A
:1041300073B9FFF7CBFF40F20003C0F200032BB1CD
:1041400049F20860C0F20000AFF300800123237041
:1041500010BD00BF08B540F20003C0F200034BB130
:1041600049F2086040F60421C0F20000C1F20001EB
:10417000AFF3008040F60020C1F2000003682BB1CD
:1041800040F20003C0F2000303B19847BDE80840C5
:10419000B0E700BF014600200246034600F092B897
:1041A00038B549F22C6449F22865C0F20005C0F226
:1041B0000004641BA41018BF05EB840505D0013C66
:1041C00055F8043D9847002CF9D1BDE8384005F07A
:1041D00025BA00BF70B549F2146649F21465C0F201
:1041E0000005C0F20006761BB6101CBF043D00247B
:1041F00005D0013455F8043F9847A642F9D149F259
:104200001C6649F21465C0F20005C0F20006761B78
:1042100005F0FAF9B6101CBF043D002406D00134A5
:1042200055F8043F9847A642F9D170BD70BD00BF54
:10423000F0B4840743D0541E002A3ED0CDB20346CA
:1042400003E0621E002C38D0144603F8015B9A0785
:10425000F7D1032C2AD9CDB245EA05250F2C45EA22
:10426000054515D9A4F110073F0903F1100606EB27
:1042700007161A46156055609560D5601032B24237
:10428000F8D104F00F040137032C03EB07130DD909
:104290001E462246043A032A46F8045BFAD8221F37
:1042A00022F003020432134404F003042CB1C9B217
:1042B0001C4403F8011BA342FBD1F0BC7047144619
:1042C0000346C6E7F0B548F67044C0F2000426681D
:1042D00085B0D6F848410746002C43D065681F2DAD
:1042E00021DD40F20004C0F200041CB94FF0FF30A1
:1042F00005B0F0BD4FF4C870039102920193AFF383
:10430000008003990446029A019B0028EED0D6F85B
:1043100048510020256060600546C6F84841C4F851
:104320008801C4F88C013FB96B1C00200235636022
:1043300044F8251005B0F0BD0126AE4004EB850021
:10434000C0F88820D4F88821022F42EA0602C4F877
:104350008821C0F8083102BFD4F88C311E43C4F85C
:104360008C61E1E706F5A674C6F84841B6E700BFE0
:1043700040F20003C0F200032BB144F2A110C0F2DE
:104380000000FFF707BF704710B500231A4640FA38
:1043900003F1C3F1070401F00101A14001330A4315
:1043A000082BD2B2F3D1104610BD000038B5254B12
:1043B000254C1A7812B11A78012A28D11B7833B10A
:1043C000204B1D78012D0CBF4025002500E029253C
:1043D0000D2047F6FF7103F0CCFD122042F622318A
:1043E00003F0C7FD142041F24B3103F0C2FD202041
:1043F00040F2011103F0BDFD2188022089B201398C
:1044000089B203F0B6FD0320294603F0B2FD2088EF
:1044100080B202F02BFE02F0C1FE03F04DFE420618
:10442000FBD5612003F04FFE03F046FE4307FBD5AA
:10443000622003F048FE054B80221A604FF4807220
:104440001A6038BD1C0A00104804001058C009202A
:1044500070B5284B04461A7832B11B78012B47D12E
:10446000402540F2615602E0292540F261460D20C8
:1044700047F6FF7103F07DFD122042F6223103F072
:1044800078FD142041F24B2103F073FD20203146CA
:1044900003F06FFDA1B22C2003F06BFD210C164C34
:1044A0002D2003F066FD2188022089B2013989B2EE
:1044B00003F05FFD0320294603F05BFD208880B2F6
:1044C00002F0D4FD02F06AFE03F0F6FD4006FBD5D3
:1044D000612003F0F8FD03F0EFFD4107FBD56220FA
:1044E00003F0F1FD054B80221A604FF480721A60D0
:1044F00070BD00BF1C0A00104804001058C00920FD
:10450000F8B506460F4602F0D1FC1E4D044620B910
:104510006B7843F004036B70F8BD042E06700ED167
:10452000194B40F635411A68120DC270174A1B68C4
:104530001268C3F3130301FB0323436015E0AB7858
:10454000C3706B6843602B899BB2623B8370104BD6
:104550001B7843720F4B1B780372288980B202F0DC
:1045600071FD0D4BA0721B78E37204F10E00394609
:10457000322204F0D5FA6B780120637000236B704F
:10458000F8BD00BF1C0A0010C40B0010084000401A
:10459000AA0B0010A80B00104610001010B5044C18
:1045A000606003F0F1FB6081000C208110BD00BF52
:1045B0004804001010B5642003F085FD03F07CFD75
:1045C00000F0040000F0FF040028F7D1204B802207
:1045D0001A6010214FF480721A6043F8201C43F8CF
:1045E000202C022243F8202C02F0B0FD02F0DAFE6B
:1045F00002F09AFD02F0C2FC164B174A40F68911F0
:104600009C72DC7211809E219C81A2F8481040F6B9
:104610006211DC81A2F84A109C705C601C811C74E1
:104620005C705C749C74DC741C751C704FF41663B5
:10463000A2F84C305333A2F84E300849E22382F8F6
:10464000503000220023C1E90023C1E9022310BD3C
:104650005CC009201C0A001048040010C0100010A3
:104660002DE9F843394C2088264680B26238C0B222
:1046700002F014FB364900220D5C13468C46354F80
:10468000D95D0133C9071F2B41EA5202F7D1716886
:10469000F85CC00740EA52028A424FD1002207EB81
:1046A0000308002008EBC208014608EB0104032AB6
:1046B00014F81F4C0CDD0CEB050E9EF828E00135BC
:1046C00084EA0E044FF07F0EB5FBFEF90EFB195580
:1046D0008C40013120430829C0B2E6D11E4C21682C
:1046E000885401322E2ADAD173695BB9216801201E
:1046F000FFF706FF194B10221A60194B20689B69BF
:1047000098471FE023685D79104B216805F03F054D
:10471000AA1C1869043102F041FB226805F1080364
:10472000D15C2268EB1DD35C22680635525D1B020A
:1047300043EA01431343984204D1D7E70133B3F569
:10474000D87FA5D10120BDE8F88300BF4804001040
:10475000748C0000240D0010200D001038C00920BA
:104760001C0A001038B5584B05461A7E0179022AFA
:104770001C4613D103221A76544A1268DA615A8C05
:10478000013A92B21A8400229A84DA62504BDA7C9F
:10479000002A00F098802822DA6138BD032A3BD134
:1047A000DB6A01F00301A3B1A38C228E9BB29A4273
:1047B0000FD1464B1B68E361638E6384013B9BB260
:1047C000238494F8343084F82630E38E2385002344
:1047D000E362032977D1AB79002B74D1EB7984F8AC
:1047E00034306A7A2B7A03EB0223E386EA7AAB7AD7
:1047F00003EB022363866A7C2B7C03EB0223A28CEF
:104800009BB292B223869B1A47F6FE7293425ADC01
:104810002D4B0122DA6238BD012A54D101F00F017B
:10482000052950D14379222B4DD1037F427F43EAA2
:104830000222063A92B240F67A439A4243D8236C57
:104840002BB90223002023766061034611E004F1B6
:104850003800A91D062204F02FF90028F1D004F138
:10486000380005F10C01062204F026F90028E8D0F2
:1048700038BDEA18917CDA0001FA02F20133042B08
:1048800040EA0200F5D1FFF789FEE87D2B7E0002A9
:1048900040EA0340AB7D1843E06003F075FA6B7E9D
:1048A000206184F82630AB7E23856A7F2B7F43EA24
:1048B0000223638495F82730012203F01F03A376B7
:1048C0006376034BDA7238BD48040010C40B001045
:1048D0001C0A00102DE9F0410D4616461C464528DD
:1048E00000F20083DFE810F0000148004D005100A5
:1048F000560059005E006100630067006C00C10053
:10490000C80005017A0075007F00840087008C00D4
:104910009400B900BB00BD00FE000201FE020701C9
:1049200098009F00A900A700AB00340125015101A8
:10493000540158015C01AE01E6010A024A0252022A
:104940005D02FB026C02710277027E028D02F301AE
:1049500000029B02D1024301DB02FE02A302F2022B
:10496000F602CE01E1011502FE024600B802230163
:10497000C8021C0200245FE2A34B012098740023AC
:10498000AFE1A14B02229A72E0E0A04B1B68C3F397
:10499000400303E10A88022315E09C4B1B68C3F324
:1049A0000013FBE00A8810230DE0984B24E00A88EE
:1049B0004FF4807307E0954B1B68C3F34023EDE091
:1049C0000A884FF4007312B9914A136087E2914A42
:1049D000FBE71046214603F05DFC80E210462146CD
:1049E00003F074FC7BE28C4B1B68C3F3C013D5E06F
:1049F0000A88802307E0884B1B68C3F30023CDE0BF
:104A00000A884FF480730AB1844ADEE7844ADCE7FF
:104A100003227D4B9A7462E2052003F0A1FA00F0B4
:104A200007003070E9E10988072900F25B82052060
:104A300041F00801FDE10522EBE70622E9E7794BA9
:104A40001A7832705A7872709A78B270DA78F27096
:104A50001B7933710523236041E20022D9E76A4BB9
:104A60009BE00A78684B1A7039E26F4B1A883270F3
:104A70001B88C3F30723A6E10A88634BDA81D9892F
:104A800040F6EA2289B2914204D901229A7240F694
:104A9000621215E000229A72D98940F6DC0289B2CE
:104AA000914284BFDA8992B2DA81D98940F6E9224B
:104AB00089B2914297BF544A40F6EA22D28992B213
:104AC000DA81D889584A80B2A2F84A005B7C4E4904
:104AD000092B00F00482CB899BB213800023CB8189
:104AE000108898E103F026FC0023B4E74F4A504BAE
:104AF0001A600B228DE70A886FF40066931940F262
:104B0000FF319BB28B4200F2ED816B886FF4006540
:104B1000581980B2884200F2E5819342C0F0E281E8
:104B20004149A1F84C20A1F84E3004220DE00F229B
:104B30000BE00B88B3F5807F00F2D4813A4AC3F1D1
:104B40003603DBB282F8503007222F4B9A74CBE742
:104B5000002313705370374804F058F8C5B2B5708D
:104B60002A46F01C334903F0DBFF03350BE03248E3
:104B700004F04CF8C5B2304600F8015B2A462E49D5
:104B800003F0CEFF01352560A9E10120107035E169
:104B90000A882A4B1A703CE1284B1B7833702CE1B1
:104BA000274F00240025C7E90045C7E902454FF01B
:104BB000000816F808004FEAC802002103F070FF51
:104BC000D7E9004508F1010820432943B8F1080F4F
:104BD000C7E90001EDD14FF0000806EB0803187A91
:104BE0004FEAC802002103F05BFFD7E9024508F154
:104BF000010820432943B8F1080FC7E90201ECD1AD
:104C000001F012FF6BE100BF1C0A001034C0092044
:104C10003CC0092038C0092054C0092058C00920D0
:104C20005CC00920801000104804001021BB05431F
:104C30001C000010389500001B8D0000481000106B
:104C4000C0100010A94A0023136011680902116006
:104C5000F05C116801330143042B1160F5D1A44BC2
:104C600002229A72A34A01204FF0805118741160F9
:104C70007279317942EA01219F4A118008229A749F
:104C8000BDE8F0819A4B05229A720E229A74002395
:104C90009A4900225A5401330A2BF9D1984B01202A
:104CA0001A70984B1870BDE8F081914B0120D872B2
:104CB000BDE8F08153789278120442EA03223378F7
:104CC0001A43F37842EA03628F4B1A60A1E0002393
:104CD000F15C8A4A995401330A2BF9D1894A01209F
:104CE00010702360BDE8F0810023844900225A54EB
:104CF00001330A2BF9D183490A70ACE6824B19685B
:104D00000023DA0021FA02F2F2540133042BF8D125
:104D1000A1E67378127843EA0222774B1A80DEE02C
:104D20007A4B10781988527889B242EA00220A44F4
:104D300092B21A801A88764912B2002A754A07DAA6
:104D40001B884FF4A0705B429BB290FBF3F30AE028
:104D5000188800B200280DDD1B884FF4A0701BB22C
:104D600090FBF3F39BB213806B4B186813889BB2D4
:104D7000034401E0002313800B60B0E05C4B002291
:104D80002260DA7203229A7209223FE0002363490B
:104D9000DA00496821FA02F2F2540133042BF6D109
:104DA00059E6B37852781B0443EA02233278F0784C
:104DB000134343EA0060FFF7F1FB0120574B82E009
:104DC00013231370372373702FE0544B5B69003348
:104DD00018BF0123E2E60A88504B003218BF0122B7
:104DE0005A617CE002F07CF8014628B1304640224E
:104DF00003F096FE40232EE6307001202060BDE8CF
:104E0000F0813B4B002222609A720A229A7402F0CF
:104E10003FF8424B188880B202F028F95FE008782A
:104E200003F09EF8030A33707070022313E60878CB
:104E3000498803F09EF852E02B88A3424FD9032300
:104E40006343F21851789278F05C42EA0121013410
:104E500003F08FF8E4B2EFE70025284603F080F86E
:104E600035700135EDB2030A2E2D7370B07006F166
:104E70000306F2D18723EEE5927929480732D2B2B0
:104E8000314603F04DFE10225FE6194C114604F145
:104E90002000062203F044FE0C23A3741FE0527985
:104EA0001E4B012083F83820327983F83920F278BC
:104EB00083F83A20B27883F83B20727883F83C205C
:104EC000327883F83D201864BDE8F0810A78084BF9
:104ED000DA7404E0064B0D229A740A781A750120E0
:104EE000BDE8F0810020BDE8F08100BFB80B0010E4
:104EF0001C0A001098C00920120D0010AB0B001006
:104F0000A90B001047100010C40B00104410001033
:104F10007C100010C00B0010BC0B001048040010E7
:104F2000C80B00102DE9F04106460F46904601F0EF
:104F3000BDFF104D044628B96B7843F004036B7035
:104F4000BDE8F0810C4B06701B8800269BB2623BCB
:104F5000C670C0F8048083708672C67239463222E9
:104F60000E3003F0DDFD6B786E7063700120BDE8DC
:104F7000F08100BF1C0A00104804001070B54FF00B
:104F800040231B68DB077FD54049414B08681A68FE
:104F9000024401320A6000221A603E4A0C683E4B0D
:104FA000967AD869154616B1967A012E05D10B6806
:104FB0005E0637D10123EB7234E0957A022D03D1DE
:104FC0000B68DC072ED42BE0957A032D1CD11D7EB7
:104FD000032D27D1201A800724D1188C80B20138E4
:104FE00080B21884188C80B248B90120D0729A8C93
:104FF00092B2024492B29A845A8C1A8412E0274BDD
:105000004FF480721A600DE0907A05280AD1244886
:105010000468B3F848000B6880B22044984201D17C
:105020000123D3721F4A204B1068C0B1188880B288
:10503000A8B90C681068844211D31C48008800B2DB
:105040000028ACBF012041F6690018800C681848A0
:10505000046004681748008880B2204410601888F3
:1050600040F6344280B2904202D90A6802320A60A5
:105070001988114A89B201F63441116000221A8060
:1050800001224FF040231A6070BD00BFC40B001016
:10509000B80B00101C0A0010480400103CC0092086
:1050A000A00B00107C100010120D00104410001016
:1050B000BC0B0010C00B001018400040084B04222D
:1050C0001A60084B4FF080521A60074B01221A7089
:1050D000064B9A7A022A04BF00221A74704700BF56
:1050E000AC8002409CC00920BD1000101C0A0010BA
:1050F00010B5284B5A7C012A11D05A7C082A0ED0B0
:105100005A7C042A0BD05A7C092A08D05A7C0A2AD5
:1051100005D05A7C0C2A02D05A7C0F2A39D11E4A5B
:105120001268D00735D51D4A1268D10726D51C4A0A
:10513000012111609A7A022A03D11A4A4FF0805154
:105140001160194A194811680068C1F3130140F64B
:10515000354404FB010159601268C2F307529A708A
:10516000134A128892B21A81124A134B11681868B6
:1051700010601960114B1A6801321A60104B1B68DD
:10518000DA0706D50F4B01221A600F4B1A6801325D
:105190001A6010BD1C0A001000400050044000506E
:1051A0000840005098C00920C40B0010084000407F
:1051B00048040010040C0010200D0010A40B001077
:1051C0000C40005010400050B81000102DE9F0477E
:1051D00090B08846044691460DF1FF330DF103016E
:1051E0000022E6B25A70240A072506F00100A84002
:1051F00015F1FF3540EA0202D2B24FEA5606F4D268
:1052000003F8012F8B42EBD1554D2888AA4680B276
:105210006238C0B201F042FD524B1E5C0023434590
:1052200020D200A819F803701844072500214D4A20
:1052300007F0010E324492F8282001368EEA020E61
:105240007F22B6FBF2FC02FB1C660EFA05F215F19A
:10525000FF3542EA01014FEA5707C9B2E7D20171AF
:105260000133DCE70D2047F6FF7102F082FE1220C9
:1052700042F6223102F07DFE142041F24B3102F061
:1052800078FE202040F6014102F073FEBAF80010CB
:10529000022089B202F06DFE05200B2102F069FEAA
:1052A0000320402102F065FE1421232002F061FE5C
:1052B000E2074CBF4AF6AA2145F255512D2002F0D3
:1052C00058FE082002F04CFEC0F3080108F1040863
:1052D000044641F49C4108205FFA88F802F049FE38
:1052E00002F0EAFE4306FBD5612002F0ECFE02F07C
:1052F000E3FE4707FBD51C4B4FF480721A608022F7
:105300001A620E2002F02CFE00F01F000F28F8D1C8
:10531000632002F0D8FE154B1B685E07FBD44046A5
:10532000694602F039FE0E2002F01AFE00F01F005E
:105330000F28F8D10E4B4FF480721A60642002F0EF
:10534000C2FE02F0B9FE4507FBD40A4B80221A6068
:105350000820214602F00DFE10B0BDE8F08700BF26
:1053600048040010748C000038C0092054C0092083
:105370003CC009205CC0092008B50D2047F6FF712C
:1053800002F0F7FD122042F6223102F0F2FD142065
:1053900042F24B3102F0EDFD202040F6014102F0D7
:1053A000E8FD05200B2102F0E4FD0320402102F07E
:1053B000E0FD02F081FE4006FBD5612002F083FE95
:1053C00002F07AFE4107FBD5084B4FF480721A6059
:1053D00080221A620E2002F0C3FD00F01F000F2889
:1053E000F8D16320BDE8084002F06DBE38C0092046
:1053F00038B55F4C0023E3725E4B5F4A1968116059
:10540000A27A4AB9022002F0ABFD5C4B1B889BB22A
:10541000013B98427FD138BDA27A012A31D1584B45
:105420001978584B1878554B1A8892B2203292B29C
:105430001A801A8892B2B2F51B6F04D91A8892B2F8
:105440004F3A92B21A80002965D0002863D01A889A
:105450001D8892B2A2F66213082293FBF2F34A4A25
:10546000ADB2D25C494BA5F662152B40002B03DA96
:10547000013B63F00703013342FA03F3DD07D2D5A2
:1054800049E0A27A052A2DD13D4B19783B4B1A8869
:1054900092B2203292B21A801A8892B2B2F51B6F81
:1054A00004D91A8892B24F3A92B21A804F2932D058
:1054B0001A88188892B2A2F66213082293FBF2F3BC
:1054C000314A80B2D25C314BA0F662100340002B0F
:1054D00003DA013B63F00703013342FA03F3DA070F
:1054E000D4D418E0A27A022A05D1186801F038FB5A
:1054F000224B18800FE0A37A032B05D11F4D281DE6
:1055000001F0F7FB288006E0A37A042B03D1A289DF
:105510001A4B92B21A80642002F0D5FD02F0CCFD45
:105520004307FBD4154D607C2988C0B2022889B29C
:105530001EBF01F1FF31022089B202F01AFDA37AE9
:105540001BB1288880B201F091FD612002F0BBFD03
:1055500002F0B2FD4507FBD501232374637C022BC7
:105560000CBF63206220BDE8384002F0ACBD00BF34
:105570001C0A0010C40B0010A00B001048040010FF
:10558000A90B001047100010AB0B001007000080A3
:105590002DE9F843494B10221A6001F079FC02F022
:1055A00057FC01F053FE01F0D7FEFEF7FFFE01F0BD
:1055B0008FFD434CA37CA146012B75D13F4B10229C
:1055C0001A6001F0DBFC80253E4F3F4E3B68DFF860
:1055D00018812BBB062002F0C3FC3378C0F30720F0
:1055E00063B16BB2803309D1384B40B293F90050AC
:1055F0003635A842A8BF0546EDB2284640B201F0B4
:10560000D9FCD8F8000001F0A5FC99F80B3013B1D3
:10561000FFF7EEFED8E7294B4FF480721A60D3E70C
:105620002B4B10222B4D1A602B681BB1637843F073
:10563000020363703B68012B03D9637843F00103D5
:105640006370227C1E4B2AB15A7842F020025A70B5
:1056500000221A74204B188880B201F0CBFC3378FA
:1056600013B91E4B1B782BB1637843F008036370AA
:1056700000233370154B93F90020194B353293F901
:1056800000309A4203DA637843F010036370154BDD
:1056900000201968FEF734FFD8F8000001F05AFC2A
:1056A00000233B602B6084E7A37C082B86D001F0AD
:1056B00079FEBDE8F84301F021BD00BF3CC00920E0
:1056C0001C0A0010A40B0010BD100010BC1000102C
:1056D00038C00920B810001048040010100D001048
:1056E000A80B0010200D0010C40B00102DE9FF4185
:1056F000954B0122D3E90245002322402B4052EA78
:1057000003014FF0000745F255534FEAD5764AF6AC
:10571000AA2818BF9846E0B2002F08BF012E14BF78
:105720005526AA26FEF730FE8DF80000C4F30720A8
:10573000FEF72AFE8DF80100C4F30740FEF724FEB1
:105740008DF80200200EFEF71FFE8DF80300E8B270
:10575000FEF71AFE8DF80400C5F30720FEF714FECD
:105760008DF80500C5F30740FEF70EFE8DF8060024
:10577000280EFEF709FE8DF807003046FEF704FEFE
:105780008DF808007720FEF7FFFD8DF809006620F0
:10579000FEF7FAFD8DF80A005520FEF7F5FD8DF8AD
:1057A0000B004420FEF7F0FD8DF80C003320FEF7CF
:1057B000EBFD8DF80D002220FEF7E6FD8DF80E00C2
:1057C0001120FEF7E1FD3C468DF80F003B4648FAFC
:1057D00003F2C3F10F0102F001028A4001331443C6
:1057E000102BA4B2F3D10D2047F6FF7102F0C1FBDC
:1057F000122042F6223102F0BCFB142041F24B3160
:1058000002F0B7FB202040F6014102F0B2FB214636
:105810002C2002F0AEFB2D20002102F0AAFB4B4B06
:10582000022019884A4C89B202F0A3FB05200B2103
:1058300002F09FFB237813B90320292104E0237889
:10584000012B1DD10320402102F093FB01F0A6FCA7
:1058500002F032FC4506FBD5612002F034FC02F078
:105860002BFC4007FBD53B4B80221A600E2002F038
:1058700077FB00F01F000F28F8D1632002F023FC13
:105880001421232002F075FB082002F069FBC0F30D
:105890000801054641F49C41082002F06AFB0026FD
:1058A000A37C022B45D176082B4F3B68B6EB530FF8
:1058B00005D1E37A002BF7D0FFF79AFDF4E7274BE9
:1058C0001A6840F6C9039A42F3D9254B4FF4807207
:1058D0003E6810201A60694602F05EFB0E2002F05E
:1058E0003FFB00F01F000F28F8D11E4B4FF48072D1
:1058F0001A60642002F0E7FB02F0DEFB4107FBD4F4
:1059000002F0DAFB4206FBD5612002F0DCFB02F07C
:10591000D3FB4307FBD50E2002F022FB00F01F0053
:105920000F28F8D1632002F0CEFB386801F012FB9B
:10593000B6E70D4B80221A600820294602F019FBB9
:1059400004B0BDE8F08100BFC01000104804001092
:105950001C0A001058C00920C40B00100840004069
:1059600038C009203CC009205CC0092008B50F4898
:10597000FEF714FE0E4B0F4ADA600F4A1A6100223E
:105980001A845A619A845A641A765A769A76DA6137
:105990005A8483F826201A85DA621A865A8683F892
:1059A0003420DA86054BDA7208BD00BFD6BE898E78
:1059B0004804001055555500AAAAAA001C0A001058
:1059C00010B5064C002120464FF48472FEF730FCDF
:1059D0004FF0FF33C4F8003110BD00BF080C0010B9
:1059E0002DE9F843694C0123804623706074FFF76A
:1059F000BDFF674B4FF080721A60664B10221A6031
:105A000001F046FA02F024FA01F020FC01F0A4FCB7
:105A1000FEF7CCFC01F05CFB0025A37C434540F085
:105A2000A3805A4BDB899BB2D3B1642002F04BFBBD
:105A300002F042FB4707FBD4574B0220198889B27A
:105A4000013989B202F095FA612002F03CFB02F0C4
:105A500033FB4607FBD5622002F035FB0023E381D0
:105A6000E37A4C4E13B1FFF7C3FC02E04FF48073AE
:105A700033601023336001F081FA8027474B484E92
:105A80001A689946D2B93368C3B9062002F068FA99
:105A9000444BC0F307201B7863B17BB2803309D13C
:105AA000414B40B293F900703637B842A8BF074661
:105AB000FFB2384640B201F07DFADFE733681BB130
:105AC000637843F002036370D9F80030002B57D09D
:105AD000324B1B68012B03D9637843F001036370D9
:105AE0002D4B188880B201F085FA2E4B1A7812B926
:105AF0002E4A127832B16278022542F008026270B2
:105B000000221A70284B93F90020294B353293F963
:105B100000309A4205DA6378022543F0100363707F
:105B200000E06DB32348013D00F5C8714FF4C87221
:105B300002F0F6FFEDB200231F48002200EBC30085
:105B40001E490F68FF5C0968FF098754CF5C01326A
:105B50007F00FFB2082ACF54F2D10133322BEBD1B0
:105B6000A36A1448984758B9154B4FF080721A60D1
:105B7000FEF720FD01F016FCBDE8F84301F0BEBAC7
:105B80000023C9F80030336047E700BF1C0A00104B
:105B900000E100E03CC0092048040010A40B001004
:105BA000B8100010BD100010BC100010100D001037
:105BB000A80B0010240D0010B40E0010200D0010D2
:105BC00080E100E02DE9F04F91B0AF4DAF4C0123E3
:105BD0002B702376AE4B4FF0807268741A60AD4B19
:105BE00010221A60064601F053F902F031F901F073
:105BF0006BFB01F0B1FB606802F0C6F8FEF728FC11
:105C0000AB7CB34240F0B6819F4BDB899BB2CBB1FA
:105C1000642002F058FA02F04FFA4307FBD42188BF
:105C2000022089B2013989B202F0A3F9612002F0A1
:105C30004AFA02F041FA4707FBD5622002F043FA24
:105C40000023EB81934B10221A6001F097F9924BDD
:105C50001A68994642B9914B1B682BB9EB7A1BB96C
:105C6000894B9B7CB342F2D0062002F079F98C4B31
:105C7000C0F30720AA7C18708A4BB2421870824B7E
:105C800040F07881854F3A68BB461AB15A7842F0A5
:105C900002025A70EB7A03F0FF01002B40F0B7804C
:105CA000D9F80030002BABD0342203A8FEF7C0FA9D
:105CB0002088636880B26238C0B2039300F0EEFFC0
:105CC0004FF0300808FB00F8DFF808A20AEB0803E1
:105CD0000193754B93F800E05A7898781204D978BC
:105CE00042EA0E620A4342EA0020009302F04CF8B6
:105CF0005AF80820009B5040C0F3052A0AF1020818
:105D0000B8F1270F049000F282800AF1080A4FEAE6
:105D10009A020B2A0DD003EB8203644A12689A425E
:105D20000BD2DBF800100029F7D006E0DBF80030DA
:105D30001BB95F4B1B68D807F8D45E4B61201A680B
:105D40004FF0040B22F001021A6002F0BCF9564A2F
:105D50000BF1010012F80B100BF1030C12F800E02C
:105D60000BF10200105C12F80CC04FEAAB024CEAD7
:105D7000016141EA0E4141EA0020009202F004F87C
:105D8000009A10AB03EB8201019B0BF1040B53F85B
:105D90002220BBF12C0F82EA000041F8300CD6D152
:105DA0006369EBB9444B10221A6003A8AB699847AA
:105DB000424B4FF08078C3F8008003A90120FEF722
:105DC0009FFB334B3E4AC3F800803E4B40F63541C3
:105DD0001B681268C3F3130301FB0323636416E01B
:105DE0002A4B04A91869424600F0D8FF10AB53446F
:105DF00013F8342C10AB434413F82F1C090241EA6A
:105E0000024113F8302C41EA02039842CAD06120C3
:105E100002F059F9274B1A6822F001021A602A4B46
:105E20001B68590702D5294B1B68F8E7254B244A04
:105E30001B68126840F63541C3F3130301FB0323CB
:105E4000626C217E9342A1F1020138BF03F143430A
:105E5000C9B238BF03F5A003012903D81C499B1A16
:105E60008B4202D8EB69012B4FD1FFF77FFD094927
:105E700000234FF48070EB610860E97C024A01293D
:105E80002AD1D374937475E01C0A001048040010E2
:105E900000E100E03CC00920A40B0010B810001085
:105EA000A80B0010AA0B0010851000100441005030
:105EB000104100502400034038C0092080E100E078
:105EC00008400040C40B00100C00034008000340D1
:105ED00080F0FA02648D00000A2E4BD0012364206A
:105EE000237602F0F0F802F0E7F84207FBD4B4F8AA
:105EF0004A309BB223B1264BB3F84A309BB201E043
:105F000040F6621323800123EB622C20618902F0AA
:105F100030F82D20218902F02CF8EB7A0BB1FFF735
:105F200067FAEB69DFF87080002B07DDFFF724FAD2
:105F3000D8F81C30013BC8F81C3016E001F0C4F959
:105F400001F00AFAD8F82C3043B1606801F01CFF68
:105F5000FEF77EFA0023C8F82C3006E002F0ACF819
:105F60004307FBD5622002F0AEF80023C9F80030E9
:105F70003B6045E6074B4FF080721A60FEF71AFB54
:105F800001F010FA01F0BAF811B0BDE8F08F00BFCF
:105F90004804001080E100E01C0A001010B5FFF773
:105FA000E5FC044C044B0920A361FFF70BFE002322
:105FB000637410BD1C0A00106547000070B58EB0F8
:105FC00006460D46144601A800213222FEF730F99C
:105FD0002946312C34BF224631220DF105008DF8BF
:105FE000046002F09DFD01A90520FEF789FA0EB0BC
:105FF00070BD000038B5314A40F664131188304C4A
:1060000089B299420DD12F4B2F4A1B681268C3F3F6
:10601000130340F6354101FB0323236340F6661367
:1060200048E0108840F6661180B2884242D1254B84
:1060300025491B68096840F63540C3F3130300FB8C
:106040000313206B528C83423CBF03F1434303F59F
:10605000A0031B1A43F2D40541F66A0000FB023389
:106060005543B3FBF5F3242B144921D817485208A4
:10607000034493F870080A8488762522013090FB47
:10608000F2F502FB150200238B84CB61E37203203F
:106090004B610F4B4A76087601221A31A361A07238
:1060A000FFF78CFFE37C43B1054B2822DA6138BD52
:1060B00040F66413A3810123E37238BD4804001045
:1060C0001C0A0010C40B001008400040748C000033
:1060D0006547000038B5254B40F635421C68244B17
:1060E000C4F313041B68234D02FB04346B6B9C4206
:1060F00005D204F14344A4F56514A4F5A254E31AAF
:1061000046F2A712934230D91B4AD2F800118B42B3
:1061100038BFC2F80031D2F80021184902F56132C7
:1061200002F25232B2FBF1F2154992B2488C124B94
:10613000904215D1D3F804210132052AC3F8042175
:1061400012D1104B0220AB6140F66413AB810423E3
:10615000AB72223101230246EB72FFF72FFF03E0FF
:106160004A840022C3F804216C6338BDC40B0010BC
:10617000084000401C0A0010080C0010A40E070084
:1061800048040010F55F000038B5184C01466369FB
:1061900053BB0379012B27D145792DBB037AC079F5
:1061A0000222000240EA03408B790431184300F0D8
:1061B000CBFD2A46E0602B4620FA03F1C3F1170518
:1061C00001F00101A9400133182B42EA0102F3D189
:1061D0002261074B074A01209A6160610649032248
:1061E000BDE83840FFF7EABE38BD00BF48040010E4
:1061F0001C0A0010D56000005404001030B50022C5
:10620000144D55F8321005EBC203814202D15A6891
:1062100001321CE00132202AF2D14FF0FF3319463F
:10622000002205EBC20464688C4205DB0029A8BF8C
:106230000C46B8BF134600E013460132202A01D0B5
:106240002146EEE745F83300012205EBC3035A600F
:1062500030BD00BF080C00102DE9F04395B00021BF
:106260008046402204A8FDF7E3FF01238DF810309B
:106270008DF820308DF823308DF830308DF83230A5
:106280008DF840308DF842308DF8433014AD04ACB9
:10629000504E514F308880B26238C0B200F0FEFCE0
:1062A0003A5C0023B918E05C91F8281001324140B3
:1062B000E1547F210133B2FBF1F0102B01FB1022DE
:1062C000F0D11034AC42E3D108F1200508F53C7858
:1062D000424B6C460FCB8DE80F00002204AB03EB62
:1062E0008201002315F803C0C85C844502D0002356
:1062F000A35002E00133102BF4D10432102AEDD167
:106300000023E2581AB90433102BFAD13EE030884A
:1063100080B26238C0B200F0C1FC385C00230021BA
:1063200005EBC30C0A460CEB0204032B14F8204CBB
:106330000CDD07EB000E9EF828E0013084EA0E0425
:106340004FF07F0EB0FBFEF90EFB190094400132B6
:106350002143082AC9B2E6D1214C2268D154013325
:106360000A2BDCD12368D97823689B7822681B0428
:106370005078226843EA01631278134343EA00200D
:10638000FFF73CFF21680120FEF7BAF801354545CB
:106390009ED10023134A02EBC3014968032911DD92
:1063A00052F83300FEF7FAF80F4B104A00249A62B5
:1063B0000F4A20469A610F4904227461FFF7FEFDDF
:1063C000204603E00133202BE4D1012015B0BDE8C5
:1063D000F08300BF48040010748C00000C9500008E
:1063E000200D0010080C00101C0A0010614600006F
:1063F000896100004C04001038B5164DAB7C0A2BA7
:1064000026D1154CFFF7DCFA2388DA0744BF40F6A3
:1064100088132380236C4BB90F4B188880B200F08F
:1064200025FE0E4B0A20AB62FFF7DAFAAD7CEDB227
:106430000A2D0DD100200A490422FFF7BFFD094AA9
:10644000044B28469A6100236361FFF7BBFBD4E746
:1064500038BD00BF1C0A001048040010596200003B
:106460004C0400108961000070B586B0234B01AC6C
:1064700003F11002264618685968254603C50833FB
:1064800093422C46F7D11868052328601C49F21A5C
:10649000595C13F1FF33D171F8D21A4B31461869A8
:1064A000112200F035FC030A8DF81500000C8DF860
:1064B00016308DF8170000F071FE134B9B7C0C2BEF
:1064C0001AD1124B4FF080754FF080641D60324638
:1064D0001C600F481421FEF779FE0E4B1D601C60F6
:1064E0000D4B1A6822F07F4202F5A072196821F064
:1064F0007F419142FAD3E0E706B070BD1C950000E1
:106500003C0A0010480400101C0A001080E100E062
:10651000D6BE898E00E100E0C40B001000B58BB040
:106520002D2001F01DFD030A8DF805002C208DF8AB
:10653000043001F015FD030A8DF806308DF80700D0
:1065400000F0A6FC00F02AFE01F0B6FD4306FBD5E4
:10655000612001F0B8FD01F0AFFD4007FBD5144B01
:1065600010221A6080221A624FF480721A620E2082
:1065700001F0F6FC00F01F000F28F8D1622001F0B6
:10658000A2FD0C4B02221A6001F096FDC106FBD55C
:10659000074B02221A6002A9202001F045FD01A943
:1065A0000020FDF7ADFF044B186800F0D3FCDEE7D8
:1065B00038C009203CC00920C40B001008B52020B9
:1065C00001F0CEFC08B1FFF7A9FF034B03221A70BC
:1065D000BDE80840FEF7DCBF1C0A00102DE9F041C1
:1065E000354D10232D206E7C6B7401F0B9FC804674
:1065F0002C2001F0B5FC314C074621882D2001F0FC
:10660000B8FC2C20618801F0B4FC0320572101F074
:10661000B0FC142041F24B3101F0ABFC202040F6DD
:10662000617101F0A6FC0220A18801F0A2FC052006
:10663000E179F6B201F09DFC01F03EFD4006FBD58C
:10664000612001F040FD01F037FD4107FBD51C4BF7
:106650004FF480721A6080221A620E2001F080FCD2
:1066600000F01F000F28F8D1A079164901F094FC22
:10667000632001F028FD0E2001F072FC00F01F00E5
:106680000F28F8D1104B4FF480721A60642001F08B
:106690001AFD01F011FD4207FBD40C4B80221A6059
:1066A0002D20414601F065FC2C20394601F061FCAB
:1066B000AE74BDE8F08100BF1C0A0010C80B0010CA
:1066C00038C00920D00B00103CC009205CC0092054
:1066D0002DE9F0418EB03D4B10221A6000F0D8FB3E
:1066E00000F05CFD3A4B80221A60122042F6223103
:1066F00001F03FFC142041F24B3101F03AFC202024
:1067000040F2011101F035FC0320292101F031FC98
:1067100001F0D2FC4306FBD501F0CEFC00F00400F2
:1067200000F0FF050028F7D12A4B9B7C042B47D1B2
:10673000294BB3F84C409846A4B2B8F84E309BB2FF
:10674000A342F1DB611E022089B201F012FC61203C
:1067500001F0B9FC01F0B0FC4707FBD5622001F065
:10676000B2FC4FF4FA730093009E013E0096002E97
:10677000FAD10EAB032707FB05370620230A07F8DB
:10678000343C07F8334C01F0EBFB0135EDB2000A65
:10679000102D07F8320C09D104200DEB0001FDF794
:1067A000AFFE0E4B3546186800F0D4FB642001F0B4
:1067B0008AFC01F081FC4607FBD40134A4B2BCE79B
:1067C000074B10221A600EB0BDE8F08138C00920D6
:1067D00058C009201C0A001048040010C40B001007
:1067E0003CC009201FB5444B802218689B8802904A
:1067F000ADF80C30414B12201A6042F6223101F004
:10680000B8FB142041F24B3101F0B3FB202040F2E1
:10681000011101F0AEFB0320292101F0AAFB0620A3
:10682000F12101F0A6FB01F047FC4006FBD501F089
:1068300043FC00F0040000F0FF040028F7D1304BC7
:106840009B7C072B55D104AA02EB440333F8081CA8
:106850000220013989B201F08CFB612001F033FC88
:1068600001F02AFC4107FBD5622001F02CFC4FF41B
:10687000FA730193019B013B0193002BFAD106208F
:1068800001F06EFB1F4B40F3072093F850305BB2D2
:1068900098420CDD012C07D003D3022C16D11A4BE1
:1068A00013E04FF4807200E01022174B0BE0012C34
:1068B00007D003D3022C09D1144B06E04FF48072A9
:1068C00000E01022114B1A6000E01C600323013429
:1068D00094FBF3F203FB12440D4BE4B2186800F092
:1068E00039FB642001F0EFFB01F0E6FB4207FBD42B
:1068F000A5E704B010BD00BF3095000058C00920C6
:106900001C0A00104804001038C009203CC00920AF
:10691000C40B001010B501F099FC00F045FC3E4896
:1069200000F090FAFDF746FE3C4B3D4C186800F035
:1069300011FBA27C637C9A42F6D0A37C102BF3D887
:1069400001A252F823F000BF256900009D690000F4
:10695000A7690000C7690000F1690000D56900005F
:10696000E5690000F7690000B1690000B569000041
:10697000BB6900008D690000C1690000FD6900006D
:1069800099690000096A0000136A0000012001F003
:1069900015FA01F065FCC7E70E2300E001236374DC
:1069A000FEF7F6FDC0E702236374FEF79FFEBBE728
:1069B0000823F4E7FFF7F2FAB6E7FFF71DFDB3E7A8
:1069C000FFF752FDB0E7032315481649637400F042
:1069D000FBFEA9E705231348637400F0F9FC0023CC
:1069E000A374A1E706230F48637400F035FE9BE70C
:1069F000FFF76EFE98E7FFF7F5FE95E70D2363744A
:106A0000207D01F049F98FE70F236374FFF7D6FD6E
:106A10008AE7FFF7E3FD87E7D5480000C40B0010C5
:106A20001C0A001048040010F0B5424B4248196897
:106A300000220023C0E90023002358004F2290FBCE
:106A4000F2F402FB14023D4E9A5501334F2BF4D160
:106A50003B4BC1F3C4521A70C1F30714C1F3C70012
:106A6000384BC1F3C34200F0080504F010071A7058
:106A70002F44C1F3870201F00105C1F347032F44FE
:106A800002F004052F4403F002052F442E4D04F0BC
:106A900008042F702D4DC1F388272F808F09CD0951
:106AA00007F0200705F0400549093D4401F01001B9
:106AB00029440C4400F00400204402F00202024485
:106AC00003F00103224913440B70224B1B7883B35C
:106AD0000024A446204F0023E25D002552EA030172
:106AE00008D012F1FF3043F1FF31013502400B4075
:106AF000EDB2F3E7013465440A2CEDB201D0AC46A7
:106B0000E8E7164B1D7000231A464F2193FBF1F066
:106B100001FB1030C1B2CC083C5D00F0070044FA24
:106B200000F0C00702D5501CB154C2B202339E2BF4
:106B3000EBD1F0BDC0100010180D00102511001091
:106B400023110010D010001024110010D2100010DA
:106B50007411001047100010AB0B0010A90B0010AF
:106B6000F0B587B0C0F3D8024F2122F00F02B2FB7C
:106B7000F1F701FB17273F49C0F3400391F800C02C
:106B80001F215E014B438CEA104C0CF01F0C8CEA69
:106B9000030C394BB6B21C78384B84EA50541B783E
:106BA00004EB90045C40364B0C401B8883EAD01009
:106BB000C0F3080080B2002340FA03F102AD01F0F7
:106BC000010159550133092BF6D100234CFA03F08A
:106BD000E918013300F00100052B4872F6D10023BB
:106BE00044FA03F101F001010DF803100133052B04
:106BF000F6D10D23E95C79B1224906A85C5C0E311F
:106C00000444585C06A9084414F818CC10F8181C61
:106C100004F8181C00F818CC13F1FF33EAD2002155
:106C20000B461DF80300984001330144052BC9B2FF
:106C3000F7D1154B37441B7819440F444F23B7FB4A
:106C4000F3F003FB1077114BD85D114B1B786BB140
:106C5000104B1B78B2FBF3F003FB102216440E44DA
:106C6000B6FBF3F103FB11660B4B985D00F6621067
:106C700007B0F0BD2411001023110010D010001037
:106C8000D21000104395000074110010251100105F
:106C900047100010A90B0010D410001040080AD0B3
:106CA0000B2801D8013804E00C2806D0262806D885
:106CB0000238C0B270472520704726207047272031
:106CC00070470A2802D800F2B24003E0242803D813
:106CD00000F2B34040007047252807D040F67A13F1
:106CE00026280CBF18464FF41B60704740F6621010
:106CF000704738B5457D04462846FFF7E2FFA27D80
:106D000025232A4492FBF3F103FB1123637538BD5D
:106D100070B5002320F07F40934214DACD5C082444
:106D200085EA000616F0010F4FEA55054FEA5000BC
:106D300005D040F4000080F4B40080F4C040013C71
:106D4000EED10133E8E770BD70B5013A002A14DBDB
:106D50008D5C0723C40D400020F07F4645FA03F008
:106D600000F00100604030431CB180F4340080F436
:106D7000404013F1FF33EDD2E7E700231A4620FA33
:106D800003F1C3F1170401F00101A1400133182BF5
:106D900042EA0102F3D1104670BD000030B5002375
:106DA00020F07F40934209DACD5C054C4540EDB2BE
:106DB00054F82540013384EA1020F3E730BD00BFCA
:106DC0009C04001013B50B4641881268ADF80410FE
:106DD00081884078ADF8061004490C6801A9A047E5
:106DE000431E5842584102B010BD00BF7C32001013
:106DF00030B587B001AD04466946284601F066FA11
:106E00009DF80420E2B923460132A95C00200C0958
:106E1000092C01F00F0186BF5734E4B23034092940
:106E200086BF5731C9B23031102A83F87C4083F8CD
:106E30007D0083F87E1083F87F0003F10403E3D123
:106E400007B030BD38B50D4C054601F01DFB20469E
:106E5000FFF7CEFF204601F055FD094B094A0220FD
:106E600009491D6001F006FB0849FF2001F030FDD3
:106E7000012001F09EFB002038BD00BF9C080010DF
:106E80007C32001078310010C56D00005F95000065
:106E9000044B002104484FF4005219605960FDF77B
:106EA000C7B900BF540A0010781100100A4B1968C6
:106EB000586801F07F0100F07F00421C02F07F0261
:106EC000914206D05A6801325A60044B03EB80109D
:106ED00070470020704700BF540A0010781100105E
:106EE000084B18685A6800F07F0002F07F02904259
:106EF00006D01A6801321A60034B03EB801070470A
:106F000000207047540A00107811001037B505466C
:106F1000FFF7E6FF0D4B044638B1822021464022A0
:106F20009D6001F077FB01200EE09A680849AA1ADB
:106F30008A4208D9032202A901F8012D82200122E8
:106F40009D6001F067FB204603B030BD540A00107D
:106F5000801A060038B50446822001F035FB810610
:106F6000054602D42046FFF7D1FF6A0602D4204628
:106F7000FFF7CCFFBDE8384001F0B8BB08B59E2252
:106F800007480021FDF754F9064A00231370064A0A
:106F90001360064B80221A70054B7F221A7008BDC1
:106FA000600A00104610001080320010A80B00107C
:106FB000AA0B00100B4B93F900209042A8BF024689
:106FC0001A70094B93F900209042B8BF02461A701C
:106FD000064B1A6802EB00201860054B1A78013244
:106FE0001A707047A80B0010AA0B00108032001016
:106FF0004610001010B540F66213B0F51B6F38BF95
:1070000018460D4BA0F662101B7823B10B4A12688C
:10701000803292FBF3F30324094A634332F91010E0
:10702000FD2404FB01334FF48071803393FBF1F3B3
:1070300022F8103010BD00BF461000108032001042
:10704000600A001040F66213B0F51B6F38BF184697
:10705000054AA0F6621332F913004FF480738030B2
:1070600090FBF3F040B27047600A001038B5154D40
:107070002C7863B2002B05DDFFF7E4FF2C78363C5B
:107080002044C4B26FF0770364B29C42B8BF1C4680
:107090006FF013039C42A8BF1C46E4B204F1380110
:1070A00001F0FC01062041F0030100F062FF064BF5
:1070B0001C7064B214F1770F044BACBF00240124A0
:1070C0001C7038BD48100010BC100010100D0010CE
:1070D000074B00221A70074B4FF400121A60064B40
:1070E00004221A609A6842F004029A60704700BF56
:1070F000BD10001000E100E0AC800240074B1A68B0
:1071000022F004021A60042243F8082C044B4FF4C6
:1071100000121A60034B00221A707047B4800240BC
:1071200080E100E0BD10001008B5FFF7E7FF044B59
:1071300000221A70034A88231370034A137008BD93
:10714000100D001048100010BC1000100A4B022255
:107150001A600A4A00231360094A1360094A13603F
:10716000094A1380094A1380094A1380094A1360A7
:10717000094A1360704700BF04400040C40B001070
:10718000A00B0010B80B0010120D001044100010DE
:10719000C00B0010BC0B00107C100010014B012232
:1071A0001A6070470440004008B5FFF7CFFF064B58
:1071B00004221A6002F54362DA6003229A60034BEC
:1071C00002221A6008BD00BF0C40004000E100E050
:1071D000154B4FF080621A60144A0023136013624B
:1071E00013641366C2F88030C2F8A030C2F8C03011
:1071F000C2F8E030FF23A2F58472136093600C4B59
:107200001A6822F001021A601A6812F00102FBD11A
:10721000084B1A60084B1A60084A094B1A60094A61
:10722000094B1A60704700BF80E100E01041005038
:1072300030400050A40B0010B81000108510001052
:10724000040C001049100010200D001008B5144B5C
:107250001A6842F000521A60FFF7BAFF114B124A47
:1072600012485A60124A13491060186012489A6016
:10727000D16050609360114AD9600121116011689A
:10728000C907FCD51A680E490A605A684A609A68AC
:107290008A60DA680B4B1A604DF206025A6008BD2C
:1072A000C4C00F4044330010851000100800034094
:1072B00034330010329000884910001030400050E4
:1072C000004100500C41005008B51A4B1A6842F0BA
:1072D00000521A60FFF77CFF174B01221A601A68F0
:1072E000D007FCD5154B0022154943F8101C154951
:1072F00001EB820143F80C1C0A2A14BF1946002135
:1073000043F8081C013210490B2A43F8041C03F10E
:107310001003E9D10D4B0E491A680A605A684A6099
:107320009A688A60DA680B4B1A604DF206025A605E
:1073300008BD00BFC4C00F40304000509432001060
:1073400008000340851000100410008884320010EB
:10735000004100500C4100500D4A4FF08053136023
:107360000C4A116841F00101116052F8201C41F0F3
:10737000020142F8201C084A116841F00101116025
:10738000064A4FF080611160054A1360704700BFE4
:1073900098C00920240003401041005000E100E0A3
:1073A0009CC00920084B4FF080521A60074B1A68A6
:1073B00022F001021A6053F8202C22F0020243F856
:1073C000202CFFF705BF00BF98C009202400034010
:1073D0002DE9F04796B000AF152387F84030002321
:1073E00087F8413081463A2307F1580040F8583D6C
:1073F000944B384607F114011B6898473A7DEA46DA
:10740000002A40F01B81BB691220190E87F8421038
:10741000190C87F8431087F84530190AFB6987F87B
:107420004410190E87F84610190C87F8471087F892
:107430004930190A3B6A87F84810190E87F84A1034
:10744000190C87F84B1087F84D30190A7B6A87F8BA
:107450004C10190E87F84E10190C87F84F10190AA6
:1074600087F8501087F8513042F62231FF2387F811
:10747000522087F8532087F8543087F8553000F0B1
:1074800078FD142041F24B3100F073FD202040F6CE
:10749000F15100F06EFDB9F80010022089B200F041
:1074A00068FD2D204FF6AE1100F063FD2C2041F257
:1074B000845100F05EFD0520082100F05AFD0320F4
:1074C000292100F056FD00F0F7FD4606FBD56120AE
:1074D00000F0F9FD00F0F0FD4507FBD55A4B4FF4E5
:1074E00080721A6080221A620024052044F008018C
:1074F00000F03FFD002587F8524087F853500E20DA
:1075000000F02EFD00F01F000F28F8D1002607F133
:10751000400818F806107020013600F038FD162ECD
:10752000F5D16320013500F0CEFD102DE5D10134F9
:10753000E4B2082CD9D10E2000F012FD00F01F009B
:107540000F28F8D1414B4FF480721A60642000F08C
:10755000BAFD00F0B1FD4407FBD4B9F800100220D9
:1075600089B2013989B200F004FD00F0A5FD4006A2
:10757000FBD5612000F0A7FD00F09EFD4107FBD583
:10758000314B10221A600E2000F0EAFC00F01F00C0
:107590000F28F8D1622000F096FD00F08DFDC206A4
:1075A000FBD5294B02221A600024702000F0E6FC73
:1075B00007F1280528550134162CF6D100F07CFD82
:1075C000030702D40222214BDCE70E2000F0C8FCA6
:1075D00000F01F000F28F8D1642000F074FD00F0C7
:1075E0006BFD00F0040000F0FF030028F7D1184AFB
:1075F00080211160102142F8201C97F83A00154AAA
:107600000121507097F83B0087F84110907097F86F
:107610003C00D07097F83D001071EC5C18F8030046
:10762000844218BF991C03F1010318BFC9B2122B81
:10763000F3D1064B117002221A60D5465837BD4669
:10764000BDE8F087DC95000038C009203CC0092067
:107650005CC0092080100010F0B587B007461220EA
:1076600042F6223100F085FC142041F24B3100F04B
:1076700080FC3988022089B2013989B200F079FC96
:107680002D204FF6AE1100F074FC2C2041F28451F5
:1076900000F06FFC0520082100F06BFC032029217D
:1076A00000F067FC00F008FD4306FBD5612000F008
:1076B0000AFD00F001FD4607FBD5414B10221A6080
:1076C0004FF480725A6002225A6080221A620E20A1
:1076D00000F046FC00F01F000F28F8D1394B0222C1
:1076E0001A60622000F0EFFC00F0E6FCC506FBD556
:1076F000334B02221A600024702000F03FFC0DF88A
:1077000004000134162CF7D100F0D6FC0407DED5B6
:107710002C4B02221A6010221A60642000F0D3FC65
:1077200000F0CAFC4007FBD400F0C6FC4106FBD5C4
:107730003988022089B200F01CFC00F0BDFC420632
:10774000FBD5612000F0BFFC1D4B4FF480721A6026
:1077500015238DF8003001238DF801300024052019
:1077600044F0080100F005FC00258DF814408DF868
:1077700015500E2000F0F4FB00F01F000F28F8D188
:1077800000261DF806107020013600F000FC162EB1
:10779000F7D16320013500F096FC102DE7D10134BC
:1077A000E4B2082CDBD1074B4FF480721A606420DE
:1077B00000F089FC00F080FC4307FBD44FE700BFDA
:1077C00038C009203CC0092038B503780D4623B1E4
:1077D0000378012B2FD1402400E02924122042F607
:1077E000223100F0C6FB142043F24B3100F0C1FB04
:1077F000202040F6F15100F0BCFB2988022089B21C
:1078000000F0B7FB0320214600F0B3FB00F054FC6E
:107810004106FBD5612000F056FC00F04DFC42070C
:10782000FBD5054B4FF480721A60632000F04BFCCF
:10783000024B80221A6038BD38C0092058C0092088
:10784000044B4FF080521A60034B1A6822F0020278
:107850001A60704798C00920040003400023054ABD
:1078600012685207FBD5044A1268C2540133242B14
:10787000F5D170470C0003400800034010B5084BD9
:10788000084A1B681268C3F3130340F6354404FB2F
:107890000323836042F210735943C16010BD00BFDF
:1078A000C40B0010084000400B4B0C4A1B681268C8
:1078B00040F63541C3F3130301FB03238268C0681C
:1078C00093423CBF03F1434303F5A0039B1A834259
:1078D00034BF002001207047C40B00100840004056
:1078E0007047000000234360034B40F668121A8083
:1078F00001230370704700BF480400100123037088
:107900007047000010B547F6FF7104460D2000F0E7
:1079100030FB122042F6223100F02BFB142041F202
:107920004B3100F026FB20204FF4986100F021FB42
:107930001E4B0220198889B2013989B200F019FB67
:107940000320262100F015FB2120032100F011FB6C
:107950002D2046F20F3100F00CFB2C2049F6FE7171
:1079600000F007FB00F0A8FB4006FBD5104A4FF0E3
:10797000805313600F4A6120116841F002011160C9
:107980000D4A136000F09FFB00F096FB4107FBD50A
:107990000E2000F0E5FA00F01F000F28F8D1622059
:1079A00000F091FB0223237010BD00BF48040010BB
:1079B00098C00920040003409CC0092010B547F678
:1079C000FF7104460D2000F0D4FA122042F6223155
:1079D00000F0CFFA142043F24B3100F0CAFA202015
:1079E0004FF4986100F0C5FA1A4B0220198889B249
:1079F00000F0BFFA0320262100F0BBFA212003216A
:107A000000F0B7FA05200F2100F0B3FA00F054FBA4
:107A10004206FBD5612000F056FB00F04DFB43070A
:107A2000FBD50E2000F09CFA00F01F000F28F8D1C3
:107A3000094B80221A60632000F045FB074B4FF48E
:107A400080721A6005232370A369A36044F6206343
:107A5000E36010BD4804001058C0092038C0092058
:107A600010B50446FFF720FFB0B163685A1C0B4BFA
:107A70001340002B03DA013B63F003030133084A90
:107A8000636032F81320074B204607211A80FFF766
:107A9000F5FE01232361237010BD00BF03000080A9
:107AA000889500004804001010B50446FFF7FCFE5E
:107AB00030B1012323702361A369A360014BE3600C
:107AC00010BD00BFB0AD010010B50446FFF7ECFEDD
:107AD00000B3642000F0F7FA0F4B80221A604FF4D5
:107AE000807243F8202C63685A1C0C4B1340002B07
:107AF00003DA013B63F003030133094A636032F8A0
:107B00001320084B1A8003232370A369A3604EF649
:107B10006023E36010BD00BF5CC00920030000804B
:107B2000889500004804001010B58AB00021282272
:107B30006846FCF77DFB174B174A1B68126840F636
:107B40003541C3F3130301FB0323099300F0B4FA97
:107B5000C0061DD5114B10241C606846FFF77EFE41
:107B600006206946099AFDF7DDF90D4B61201C607E
:107B700000F0A9FA00F0A0FA4107FBD50E2000F0B2
:107B8000EFF900F01F000F28F8D1622000F09BFAF7
:107B90000AB010BDC40B00100840004038C00920D6
:107BA0003CC0092010B5044600F086FAC3060ED585
:107BB0000423237001236361114B124A1B6812686E
:107BC000C3F3130340F6354101FB0323A36123698B
:107BD0005BB12046FFF768FE38B104232370002311
:107BE000636120460B21FFF749FE2378022B06D064
:107BF000642000F068FABDE81040FFF721BE10BD18
:107C0000C40B00100840004030B58BB00021044682
:107C100028226846FCF70CFB1B4B1C4A1B681268A9
:107C2000C3F3130340F6354101FB032320460993B8
:107C3000FFF73AFE28B120460421FFF71FFE032379
:107C4000237000F039FAC20612D5114B10251D60C1
:107C50006846FFF703FE6946099A0620FDF762F9B8
:107C60000C4B20461D600621FFF708FE03232370FE
:107C70002378022B06D0642000F025FAFFF7E0FD00
:107C8000012323610BB030BDC40B0010084000403D
:107C900038C009203CC0092030B589B00021044615
:107CA0001C2201A8FCF7C4FA012C144D09D006D3FC
:107CB000022C01D1124C05E000232B701BE0114C6B
:107CC00000E0114C114B4FF080721A6000F0C0F8C8
:107CD0002B780D2B06D19DF8043001A854F82330E1
:107CE0009847F5E7642000F0EEF9FFF7A9FD084B8F
:107CF0004FF080721A6009B030BD00BF2E0A00102C
:107D0000C495000090950000AC95000000E100E0F3
:107D100080E100E000F0EABC08B500230C4A0D4900
:107D20009818884204D20C49595899500433F5E701
:107D30000A4B0B4A934203D2002243F8042BF8E784
:107D4000FCF748FA074B084A1A60FEF7E3FDFEE726
:107D500020000010FD09001030960000000A0010FD
:107D60005433001008ED00E000400000FEE7000082
:107D7000044A0A2313601368013B1360002BFAD1F5
:107D8000704700BF000B001090FAA0F07047000091
:107D9000830803EBD00303EB901303EBD01303EB47
:107DA0009023054A03EBD02050605368013B536099
:107DB000002BFAD1704700BF000B0010014B584355
:107DC000FFF7E6BF40420F00104A002313605360E4
:107DD0009360D3601361D361536293620C4A136062
:107DE000136213641366C2F880300A4A136053604A
:107DF0009360D3601361D3615362074A13601362C7
:107E000013641366C2F88030704700BF00C00240A0
:107E100000C0092040C0024014C0092008B5FFF787
:107E2000D3FF0A4A00234CF212711360116240F230
:107E3000B11111644FF040511366C2F880105361C4
:107E4000536353655367C2F8943008BD00C00920DE
:107E5000114B1A6822F4404242F400421A601A6838
:107E600022F4405242F400521A601A6822F440325E
:107E700042F400321A601A6822F4402242F40022CE
:107E80001A60064B4FF080521A60054BC7221A60E9
:107E90000C225A60704700BF00C0024098C0092001
:107EA00000000340094B1A6822F470121A60084B54
:107EB0001A6822F0C0621A60064B1A6842F4201257
:107EC0001A601A6822F4A0121A60704704C00240B7
:107ED00000C0092044C0024030B50124431E9C402C
:107EE000202201380D4BC0B2FF281A600C4B11D074
:107EF000214208BF094D4FF0010214BF1A602A60E9
:107F000010221A60074B49001B689B0748BF41F0CD
:107F10000101E6E720221A60084630BD5CC0092056
:107F200058C0092054C0092010B50A4CFFF7BAFF09
:107F30004FF4007323603220FFF72AFF064B202204
:107F40001A604FF48043236018200449BDE81040B4
:107F5000FFF7C2BF38C0092058C00920FF7F0D00BD
:107F600008B540F0800109041820FFF7B5FF80B282
:107F700008BD41EA00411820FFF7AEBF08B540F048
:107F8000800109021020FFF7A7FFC0B208BD41EA37
:107F900000211020FFF7A0BFF8B5214B20221A6066
:107FA0000823702212F0800F1E4D08BF1C4E4FF0A8
:107FB000010414BF2C60346010242C60013B184D68
:107FC000520013F0FF03D2B22C60EBD1DAB282423E
:107FD00017D2CA5C082412F0800F124E08BF104F4F
:107FE0004FF0010514BF35603D6010253560013C40
:107FF0000B4E520014F0FF04D2B23560EBD10133C6
:10800000E4E70823074C0649013B102213F0FF0365
:1080100022600A60F6D1FFF7ABFE20232360F8BD93
:108020005CC0092058C009202DE9F041204B2022D6
:108030001A60074688460825F02313F0800F1D4973
:1080400008BF1B484FF0010214BF0A6002601022F3
:108050000A60013D16495B0015F0FF05DBB20A60BE
:10806000EBD1EBB2BB421BD208260024FFF780FE07
:10807000104B10221A60043B1B6864009A07E4B29C
:1080800048BF44F00104013EFFF772FE084B102286
:1080900016F0FF061A60E9D108F805400135E0E75F
:1080A000FFF766FE034B20221A60BDE8F08100BF97
:1080B0005CC0092058C0092008B500210820FFF73E
:1080C0000BFFC0B208BD08B501460820FFF704FF4A
:1080D000C0B208BD08B518200021FFF7FDFE002042
:1080E000FFF73EFF0028FAD118204FF40041FFF7B8
:1080F000F3FE0020FFF734FFB0F5004FF9D108BDC3
:1081000010B5464B44F23A021A600022C3F80C2123
:1081100080331A68AA2122F002021A60404A1160D4
:10812000552111603F4A12689401FBD41A6822F06D
:1081300001021A603A4BAA221A6055221A60394B82
:108140001B6813F08073FAD1374A1360FFF7C2FF40
:1081500018203649FFF7C0FE6020FFF7B4FFFFF795
:10816000ABFF4006FBD5324B20221A601A6851063D
:10817000FCD5304B08221A6000225A60012243F8D5
:108180009C2C2D4A9C3B43F8882CAA2155222B4835
:1081900043F8801C43F8802C046844F00104046018
:1081A00043F8801C43F8802C1E4B1B68DA01FBD57A
:1081B0001D4B03221A6053F8842C42F0020243F84C
:1081C000842CAA2243F8782C552243F8782C154B9E
:1081D0001B689B01FBD51A4B22221A60AA2155224B
:1081E000184899609A60046844F00104046099603A
:1081F0009A60154B1A68D405FBD51A685005FCD552
:10820000104B1A6842F002021A60AA22DA60552264
:10821000DA600D4B1B689905FBD510BD00C00F40FF
:108220008CC00F4088C00F4004C10F40701508007B
:10823000A0C10F40A8C10F401800010080C00F402E
:10824000A4C00F40A0C00F40A8C00F4008B5FFF762
:10825000E5FDFFF769FEBDE80840FFF751BF0000EC
:1082600008B5FFF7B1FD094B02221A604FF08043B9
:108270001A68074842F003021A60AA229A6055223F
:108280009A60BDE80840FFF783BD00BF3CC00920ED
:1082900040420F0030B58BB0362304460AA80D4685
:1082A00040F8283D05A96846074B9847059B237071
:1082B000069B1A0A6370A2701A0C1B0E2371052309
:1082C000E2702B600BB030BDF11FFF1F30B58BB0DB
:1082D0003A2304460AA80D4640F8283D05A96846F9
:1082E000134B9847059B2370069B1A0A6370A27074
:1082F0001A0C1B0E2371079BE2701A0A6371A2719C
:108300001A0C1B0E2372089BE2711A0A6372A27286
:108310001A0C1B0E2373099BE2721A0A6373A27371
:108320001A0C1B0E23741123E2732B600BB030BDAB
:10833000F11FFF1F00B58BB039230AA840F8283D74
:1083400005A96846024B98470BB05DF804FB00BFD7
:10835000F11FFF1F38B5084C802025686168402D4B
:10836000A8BF40252A4600F055F963682B44636096
:1083700023685D1B256038BD080B001037B5114B15
:108380001C7A1D46C4F34114022C0DD1002202A90F
:1083900041F8042D03F1080003F11002043300F04A
:1083A00063FA08B101980AE005EB840463692BB114
:1083B000054800F10801021F984700E0184603B085
:1083C00030BD00BF080B0010100B001010B50028C6
:1083D0004AD101F0040303F0FF01254C0BB308223E
:1083E00004F1080100F046F9227AC2F3411304EBCC
:1083F00083035B6A6360E389236023610BB1D20965
:1084000034D0FFF7BBFF28B980200121BDE8104020
:1084100000F0F4B8E28923699A42D4BF2260236055
:1084200019E02268002A1ADD616800F023F90028AB
:10843000EADB6368034463602368181A2060A8B904
:10844000237AC3F3411304EB83035B6A6360FFF792
:1084500095FF0028D8D0BDE81040FFF77BBF0A4643
:10846000BDE8104000F006B98028F4D010BD00BF70
:10847000080B0010024B03EB800041614262704721
:10848000080B00107047000010B50E4C00F094F976
:108490000D4800F07DF82146002000F05FF82146ED
:1084A000802000F05BF80020402100F03BF88020A5
:1084B000402100F037F800200449054AFFF7DAFFB1
:1084C000012010BDCD830000858400006989000073
:1084D0003C0B0010034B1B6803408342FAD1024B54
:1084E0001860704700C2005008C20050044B0004DE
:1084F00040F4A06030221A6098601020FFF7EABFB5
:1085000008C2005010B50C462404FFF7EFFF044BDF
:1085100044F480741C601020BDE81040FFF7DABFFF
:1085200010C2005010B500F00F04C00940EA440426
:108530000122A240084B186802431A604FF4807071
:108540005C609960FFF7C6FF44F040000021BDE881
:108550001040FFF7D7BF00BF44C200500A4A00F0E6
:108560000F03C00942F8231040EA4300012101FA39
:1085700000F0064B1A681043186053F8302C42F094
:10858000040243F8302C7047440B001034C20050F2
:10859000034B1864034B1A6842F008021A607047D4
:1085A000440B001004C2005040F08001D020FFF7BF
:1085B000A9BF011C18BF0121FE20FFF7A3BF014680
:1085C000F320FFF79FBF000010B500F00F04C009B3
:1085D00040EA44042046FFF789FF2404054B44F495
:1085E00000741C602020FFF775FF034B1868C0B2B1
:1085F00010BD00BF10C2005014C2005000F00F03A5
:10860000C00940EA4300003140F0400018BF01219A
:10861000FFF778BF10B500F00F03C009144640EA19
:108620004300114A9B0043F0020313600F4B1C6090
:108630000D4B1A6812F002020ED08A78CB78120421
:1086400042EA03620B7804311A4311F8033C42EA10
:108650000322074B1A60EBE71A60FFF747FFFA2087
:10866000FFF744FF204610BD28C2005024C200502E
:108670001CC2005038B500F00F03C00940EA4300A7
:10868000144C9B0043F001032360134B1B681D0532
:10869000FBD55C051BD5C3F3090500231C46AC4282
:1086A0000BD014F0030F04BF0C4B1B6811B19442A4
:1086B00038BF0B551B0A0134F1E7064B00221A6044
:1086C000FFF714FFF220FFF711FF204638BD4FF0EF
:1086D000FF3038BD28C2005020C2005018C20050E0
:1086E000011C18BF0121D820FFF70CBF38B5294B5A
:1086F0001C68E10711D501229A60274B5D6C65B1BA
:10870000F520FFF7F3FE254B254A20201A60FFF7DE
:10871000E1FE244B1868C0B2A847220717D5224BA8
:1087200008221A60FE20FFF7E1FE1C4B1F4A2020A2
:108730001A60FFF7CFFE1B4B1868C0B210F01A0F7B
:1087400005D0154B1B6C13B100F01500984763075B
:108750001ED5154B04221A6000240123A340144A9D
:108760001268134211D0134A20201360FFF7B2FEA3
:108770000C4B60101968084B53F820302BB140EABD
:10878000C410C0B201F01F0198470134202CE4D17D
:1087900038BD00BF00C20050440B001010C2005092
:1087A0000002F50014C2005008C200500002FE0092
:1087B00030C2005038C2005008B5244B1A6822F469
:1087C000402242F480221A6053F8042C22F0300236
:1087D00042F0100243F8042C53F8042C22F04052CB
:1087E00042F0005243F8042C53F80C2C22F0406263
:1087F00042F0806243F80C2C53F80C2C22F04052CB
:1088000042F0805243F80C2C114B1A6842F000429F
:108810001A60104B1A6842F012021A600E4B1A6866
:108820009207FBD51A68D006FCD50C4B00200C4AE9
:1088300018604FF0FF3313605062D0621363094B2E
:108840001860FFF7BCFE012008BD00BF10C0024049
:10885000C4C00F40F4CF0050F8CF005004C2005005
:1088600008C2005040C2005070B5164C0025247854
:1088700014B34678A64221D184880D60042CC688A2
:10888000458805D0052C1BD10F481860922002E0C6
:108890000E481860282010601468280A00048442DA
:1088A0000EDB1D680544201A1D60B042D4BF106065
:1088B00016600120086070BD204670BD284670BD5E
:1088C000012070BD8C0B001059090010E0950000CC
:1088D00010B50A4B187079B1094B00228C5C981EB8
:1088E0003CB10132262A184603F8024C03F1020378
:1088F000F4D100230370837010BD00BF8C0B0010F7
:108900009D090010014B5860704700BF8C0B001090
:10891000F0B5050A032DC6B2114908D1EE2E06D1D5
:1089200010480978923001741860122312E04968E7
:10893000002401E001340144087880B14F78AF424F
:10894000F9D1B442F6D1022D196006D1C8788B78DE
:1089500043EA002313600120F0BD0B78FAE7F0BD75
:108960008C0B0010590900102DE9F0474B4E0446BE
:10897000B3680D461746B04643B9267806F01F0681
:10898000012E53D006D3022E62D081E098470028F2
:10899000F3D080E062783B68092A79D8DFE802F0FA
:1089A0000578787878090D78151C00221A705A70AD
:1089B00045E0A078FFF7F8FD6DE06088A1882A46C1
:1089C0003B46BDE8F047FFF7A3BF98F80C20012015
:1089D0001A702860BDE8F087A6780EB930461FE00F
:1089E000FF27D8F80450B9462B78C3B16B78042B15
:1089F00006D0052B06D0022B0ED195F805900BE082
:108A0000EF7809E0B14507D137B969792B79A878B2
:108A100043EA0121FFF786FD2B781D44E4E701209E
:108A2000FFF75EFE638888F80C3034E063783A68BC
:108A30000A2B06D00B2B07D053BB137053700223A5
:108A400004E00023137016E063880BBB2B6022E068
:108A5000D7F800806778012F0FD002D3032F10D0F2
:108A600016E02079FFF7B0FD0023C0F3400088F83E
:108A7000000088F801302E600DE0618841B920794E
:108A800003E0638823B920790121FFF7B7FD02E0F5
:108A90000020BDE8F0870120BDE8F0878C0B0010B6
:108AA0009140031C90409C46203A93401943524207
:108AB0006346D34019437047032A70B414D940EA7F
:108AC00001039B0711D10C46034625681E68214609
:108AD000AE42184604F1040403F1040304D1043A3D
:108AE000032A18462146F0D8C2B105780C78A54271
:108AF00004BF02F1FF32002306D00CE010F8015F42
:108B000011F8014FA54206D1934203F10103F5D1BB
:108B1000002070BC7047281B70BC70471046F8E7F7
:108B2000844641EA000313F0030349D1403A23D3BA
:108B30000B6803604B6843608B688360CB68C360DD
:108B40000B6903614B6943618B698361CB69C361C5
:108B50000B6A03624B6A43628B6A8362CB6AC362AD
:108B60000B6B03634B6B43638B6B8363CB6BC36395
:108B700040304031403ADBD230320BD30B680360D7
:108B80004B6843608B688360CB68C36010301031E2
:108B9000103AF3D20C3205D351F8043B40F8043BB1
:108BA000043AF9D2043208D0D2071CBF11F8013BB5
:108BB00000F8013B01D30B8803806046704700BF7B
:108BC000082A13D38B07B1D010F00303AED0C3F142
:108BD0000403D21ADB071CBF11F8013B00F8013B6C
:108BE000A4D331F8023B20F8023B9FE7043AD9D3E3
:108BF000013A11F8013B00F8013BF9D20B78037000
:108C00004B7843708B7883706046704720F0030187
:108C100010F00300C0F1000051F8043B00F1040C17
:108C20004FEACC0C6FF000021CBF22FA0CF2134387
:108C30004FF0010C4CEA0C2C4CEA0C4CA3EB0C0250
:108C400022EA030212EACC1204BF51F8043B0430BA
:108C5000F4D013F0FF0F1FBF013013F47F4F01302A
:108C600013F47F0F18BF0130704700BF43000000AE
:108C700020000010463E786F4D2E0F6542271F1AC8
:108C800050537D590A2308367A1121003A73065E43
:108C900056313414281B545A3F702F6601010101CC
:108CA00000010001000100000000010001010001BD
:108CB00001010100000101010000010001000101AA
:108CC000000001010000000000010100010100019D
:108CD000000101010001000000010100000100008D
:108CE000000100000000000001000001000001017F
:108CF000000100000101010100010101000000006C
:108D00000101010101010100000001010100010157
:108D1000000000010001000001000175626572742D
:108D20006F6F746820323031372D30332D5232203E
:108D3000286D776E6C406D776E6C2D6C656E6F76FE
:108D40006F2920323031382E2030352E2030392E08
:108D50002028EC8898292031303A32343A313620B4
:108D60004B53540040B2BCC31F374A5F85F69C9AF0
:108D7000C1D6C5442059DEE18F1BA5AF427B4ECD45
:108D800060EB6222902CEFF0C78DD257A13DA76611
:108D9000B07531118940B2BCC31F374A5F85F69C5C
:108DA0009AC1D6C5442059DEE18F1BA5AF427B4E48
:108DB000CD60EB6222902CEFF0C78DD257A13DA77A
:108DC00066B07531D257A13DA766B075311148968E
:108DD00077F8E346E9ABD09E5333D8BA980824CB52
:108DE0003BFC71A3F45568CFA9196C5D4C0492E566
:108DF0001DFEB8511BA5AF427B4ECD60EB622290A9
:108E00002CEFF0C78DD257A13DA766B07531114840
:108E10009677F8E346E9ABD09E5333D8BA98082446
:108E2000CB3BFC716479873F6E94BE0AED39358384
:108E3000AD8B8940B2BCC31F374A5F85F69C9AC18F
:108E4000D6C5442059DEE18F1BA5AF427B4ECD60D5
:108E5000EB622290AD8B8940B2BCC31F374A5F855D
:108E6000F69C9AC1D6C5442059DEE18F1BA5AF42BE
:108E70007B4ECD60EB6222902CEFF0C78DD257A1D4
:108E80003DA766B0F69C9AC1D6C5442059DEE18F55
:108E90001BA5AF427B4ECD60EB6222902CEFF0C75A
:108EA0008DD257A13DA766B0753111489677F8E38A
:108EB00046E9ABD03F6E94BE0AED393583AD8B8960
:108EC00040B2BCC31F374A5F85F69C9AC1D6C544E1
:108ED0002059DEE18F1BA5AF427B4ECD60EB6222B5
:108EE000902CEFF00824CB3BFC71A3F45568CFA97C
:108EF000196C5D4C0492E51DFEB851FA2AB4E7D412
:108F00000CB62E2602C9F20E7FDC287D15DA736AB4
:108F1000065B1713C1D6C5442059DEE18F1BA5AFF0
:108F2000427B4ECD60EB6222902CEFF0C78DD25782
:108F3000A13DA766B0753111489677F8E346E9ABD5
:108F4000D09E53339AC1D6C5442059DEE18F1BA56C
:108F5000AF427B4ECD60EB6222902CEFF0C78DD2FA
:108F600057A13DA766B0753111489677F8E346E9F9
:108F7000ABD09E535333D8BA980824CB3BFC71A393
:108F8000F45568CFA9196C5D4C0492E51DFEB851EB
:108F9000FA2AB4E7D40CB62E2602C9F20E7FDC28DA
:108FA0007D15DA732CEFF0C78DD257A13DA766B0BF
:108FB000753111489677F8E346E9ABD09E5333D824
:108FC000BA980824CB3BFC71A3F45568CFA9196C5F
:108FD0005D4C0492E51DFEB851FA2AB4E7D40CB6F4
:108FE0002E2602C9F20E7FDC287D15DA736A065B35
:108FF0001713816479873F6E94BE0AED393583ADCE
:109000008B8940B2BE0AED393583AD8B8940B2BC45
:10901000C31F374A5F85F69C9AC1D6C5442059DEE6
:10902000E18F1BA5AF427B4ECD60EB6222902CEF0F
:10903000F0C78DD277F8E346E9ABD09E5333D8BA68
:10904000980824CB3BFC71A3F45568CFA9196C5D3B
:109050004C0492E51DFEB851FA2AB4E7D40CB62EA2
:109060002602C9F2D09E5333D8BA980824CB3BFCD1
:1090700071A3F45568CFA9196C5D4C0492E51DFEEF
:10908000B851FA2AB4E7D40CB62E2602C9F20E7FE4
:10909000DC287D15196C5D4C0492E51DFEB851FA73
:1090A0002AB4E7D40CB62E2602C9F20E7FDC287D46
:1090B00015DA736A065B1713816479873F6E94BE75
:1090C0000AED3935427B4ECD60EB6222902CEFF0F9
:1090D000C78DD257A13DA766B0753111489677F874
:1090E000E346E9ABD09E5333D8BA980824CB3BFC77
:1090F00071A3F4558B8940B2BCC31F374A5F85F614
:109100009C9AC1D6C5442059DEE18F1BA5AF427B96
:109110004ECD60EB6222902CEFF0C78DD257A13D6F
:10912000A766B075F45568CFA9196C5D4C0492E53B
:109130001DFEB851FA2AB4E7D40CB62E2602C9F2A5
:109140000E7FDC287D15DA736A065B17138164795C
:10915000873F6E943DA766B0753111489677F8E366
:1091600046E9ABD09E5333D8BA980824CB3BFC7168
:10917000A3F45568CFA9196C5D4C0492E51DFEB8A7
:1091800051FA2AB466B0753111489677F8E346E98A
:10919000ABD09E5333D8BA980824CB3BFC71A3F4D0
:1091A0005568CFA9196C5D4C0492E51DFEB851FAC3
:1091B0002AB4E7D4AF427B4ECD60EB6222902CEF15
:1091C000F0C78DD257A13DA766B07531114896778B
:1091D000F8E346E9ABD09E5333D8BA980824CB3B8A
:1091E000FC71A3F4980824CB3BFC71A3F45568CF21
:1091F000A9196C5D4C0492E51DFEB851FA2AB4E73A
:10920000D40CB62E2602C9F20E7FDC287D15DA7347
:109210006A065B1751FA2AB4E7D40CB62E2602C9A7
:10922000F20E7FDC287D15DA736A065B1713816402
:1092300079873F6E94BE0AED393583AD8B8940B294
:10924000BCC31F370AED393583AD8B8940B2BCC32F
:109250001F374A5F85F69C9AC1D6C5442059DEE186
:109260008F1BA5AF427B4ECD60EB6222902CEFF0BE
:10927000C78DD257C31F374A5F85F69C9AC1D6C5A2
:10928000442059DEE18F1BA5AF427B4ECD60EB62DF
:1092900022902CEFF0C78DD257A13DA766B0753153
:1092A00011489677BCC31F374A5F85F69C9AC1D692
:1092B000C5442059DEE18F1BA5AF427B4ECD60EB4C
:1092C0006222902CEFF0C78DD257A13DA766B075F2
:1092D00031114896753111489677F8E346E9ABD0DD
:1092E0009E5333D8BA980824CB3BFC71A3F455683D
:1092F000CFA9196C5D4C0492E51DFEB851FA2AB451
:10930000E7D40CB62E2602C9F20E7FDC287D15DAD2
:10931000736A065B1713816479873F6E94BE0AED0A
:10932000393583AD8B8940B2BCC31F374A5F85F6A0
:109330009C9AC1D6E7D40CB62E2602C9F20E7FDC69
:10934000287D15DA736A065B1713816479873F6E8F
:1093500094BE0AED393583AD8B8940B2BCC31F374B
:109360004A5F85F660EB6222902CEFF0C78DD257F2
:10937000A13DA766B0753111489677F8E346E9AB91
:10938000D09E5333D8BA980824CB3BFC71A3F45534
:1093900068CFA919A9196C5D4C0492E51DFEB8515E
:1093A000FA2AB4E7D40CB62E2602C9F20E7FDC28C6
:1093B0007D15DA736A065B1713816479873F6E94B3
:1093C000BE0AED39F20E7FDC287D15DA736A065B82
:1093D0001713816479873F6E94BE0AED393583ADEA
:1093E0008B8940B2BCC31F374A5F85F69C9AC1D6B1
:1093F000C54420593BFC71A3F45568CFA9196C5D95
:109400004C0492E51DFEB851FA2AB4E7D40CB62EEE
:109410002602C9F20E7FDC287D15DA736A065B1717
:1094200013816479442059DEE18F1BA5AF427B4E46
:10943000CD60EB6222902CEFF0C78DD257A13DA7F3
:1094400066B0753111489677F8E346E9ABD09E5384
:1094500033D8BA988DD257A13DA766B0753111485F
:109460009677F8E346E9ABD09E5333D8BA980824F0
:10947000CB3BFC71A3F45568CFA9196C5D4C0492E9
:10948000E51DFEB8D6C5442059DEE18F1BA5AF42CD
:109490007B4ECD60EB6222902CEFF0C78DD257A1AE
:1094A0003DA766B0753111489677F8E346E9ABD031
:1094B0009E5333D81F374A5F85F69C9AC1D6C54460
:1094C0002059DEE18F1BA5AF427B4ECD60EB6222BF
:1094D000902CEFF0C78DD257A13DA766B075311122
:1094E000489677F8000113191C0F1F100E211A1B44
:1094F00022140805071823020D1E201D11030A0B54
:109500000417150616090C122400000001000000C3
:10951000010000000100000001000000000FFFFF3B
:10952000FFFFFFFF050106131313131313FFFFFFC4
:109530006C0985099E090000323031372D30332DFA
:109540005232000002010300010003010002010089
:109550000101030204040302040403040303027B65
:1095600038616334376138382D636332362D3461A6
:1095700061392D383837622D343263613863663093
:10958000376136337D000000680972097709A50943
:10959000E578000005790000097C0000617A000090
:1095A000E1780000E1780000E1780000FD7800003B
:1095B00005790000297B0000E1780000E1780000D7
:1095C000E1780000E578000005790000A57B000047
:1095D000A97A0000BD790000C97A0000F11FFF1FC1
:1095E000280000000001040001000000000000004D
:1095F000000157494E555342000000000000000092
:109600000000000000000000F8B500BFF8BC08BC76
:109610009E4670477143000055410000F8B500BFF9
:10962000F8BC08BC9E4670472541000000000000C1
:10963000000000000C03001074030010DC03001095
:10964000000000000000000000000000000000001A
:10965000000000000000000000000000000000000A
:10966000000000006C8C0000000000000000000002
:1096700000000000000000000000000000000000EA
:1096800000000000000000000000000000000000DA
:1096900000000000000000000000000000000000CA
:1096A00000000000000000000000000000000000BA
:1096B00000000000000000000000000000000000AA
:1096C000000000000000000000000000000000009A
:1096D0000000000000000000010000000000000089
:1096E0000E33CDAB34126DE6ECDE05000B0000004E
:1096F000000000000000000000000000000000006A
:109700000000000000000000000000000000000059
:109710000000000000000000000000000000000049
:109720000000000000000000000000000000000039
:109A5000000000000000000089090000D6BE898EC9
:109A60007D6B719155555500AAAAAA00000000000F
:109A700000000000000000000000000000000000E6
:109A800000000000000000000000000000000000D6
:109A900000000000000000000000000000000000C6
:109AA0009E0062096009B309E200000000000000A6
:109AB000C0B401008069030040DD020000D306004D
:109AC000C067070080BA0500400E040000A60D0024
:109AD000C0120C0080CF0E00407B0F0000750B0001
:109AE000C0C10A00801C080040A80900004C1B00EF
:109AF000C0F81A008025180040911900009F1D0031
:109B0000C02B1C0080F61E0040421F0000EA160019
:109B1000C05E170080831500403714000039100024
:109B2000C08D11008050130040E4120000983600F0
:109B3000C02C370080F1350040453400004B300028
:109B4000C0FF31008022330040963200003E3B00CF
:109B5000C08A3A008057380040E3390000ED3D00EC
:109B6000C0593C0080843E0040303F0000D42D00AE
:109B7000C0602C0080BD2E0040092F0000072B0084
:109B8000C0B32A00806E280040DA2900007220004D
:109B9000C0C62100801B230040AF220000A1260088
:109BA000C015270080C82500407C240000306D00CF
:109BB000C0846C0080596E0040ED6F0000E36B00C4
:109BC000C0576A00808A6800403E690000966000C5
:109BD000C022610080FF6300404B620000456600C8
:109BE000C0F16700802C650040986400007C76001E
:109BF000C0C877008015750040A1740000AF7000E8
:109C0000C01B710080C673004072720000DA7B00D6
:109C1000C06E7A0080B378004007790000097D00AB
:109C2000C0BD7C0080607E0040D47F0000A85B0047
:109C3000C01C5A0080C1580040755900007B5D006F
:109C4000C0CF5C0080125E0040A65F00000E560090
:109C5000C0BA57008067550040D3540000DD500063
:109C6000C069510080B453004000520000E440003D
:109C7000C0504100808D430040394200003746000B
:109C8000C0834700805E450040EA440000424D002A
:109C9000C0F64C00802B4E00409F4F0000914B00BF
:109CA000C0254A0080F84800404C49000060DA00B6
:109CB000C0D4DB008009D90040BDD80000B3DC006F
:109CC000C007DD0080DADF00406EDE0000C6D7008E
:109CD000C072D60080AFD400401BD5000015D10063
:109CE000C0A1D000807CD20040C8D300002CC100AD
:109CF000C098C0008045C20040F1C30000FFC7000B
:109D0000C04BC6008096C4004022C500008ACC002B
:109D1000C03ECD0080E3CF004057CE000059CA00BE
:109D2000C0EDCB008030C9004084C80000F8EC00D2
:109D3000C04CED008091EF004025EE00002BEA00C2
:109D4000C09FEB008042E90040F6E800005EE100C1
:109D5000C0EAE0008037E2004083E300008DE700C6
:109D6000C039E60080E4E4004050E50000B4F700AC
:109D7000C000F60080DDF4004069F5000067F100E6
:109D8000C0D3F000800EF20040BAF3000012FA00D7
:109D9000C0A6FB00807BF90040CFF80000C1FC00AA
:109DA000C075FD0080A8FF00401CFE000050B700F9
:109DB000C0E4B6008039B400408DB5000083B10026
:109DC000C037B00080EAB200405EB30000F6BA00CF
:109DD000C042BB00809FB900402BB8000025BC00EA
:109DE000C091BD00804CBF0040F8BE00001CAC001C
:109DF000C0A8AD008075AF0040C1AE0000CFAA0082
