S00E0000626C696E6B792E737265638D
S1134000E03F0010294300007D4300007D43000091
S11340107D4300007D4300007D430000000000005C
S11340200000000000000000000000007D430000CC
S11340307D430000000000007D4300007D4300003C
S11340407D4300007D4300007D4300007D4300006C
S11340507D4300007D4300007D4300007D4300005C
S11340607D4300007D4300007D4300007D4300004C
S11340707D4300007D4300007D4300007D4300003C
S11340807D4300007D4300007D4300007D4300002C
S11340907D4300007D4300007D4300007D4300001C
S11340A07D4300007D4300007D4300007D4300000C
S11340B07D4300007D4300007D4300007D430000FC
S11340C07D4300007D4300007D43000008B540F2BD
S11340D04840074BC1F200001B1A062B00D808BD4C
S11340E040F20003C0F20003002BF8D09847F6E733
S11340F04B04001008B540F2484040F24843C1F276
S11341000003C1F200001B1A9B1003EBD373591078
S113411000D108BD40F20002C0F20002002AF8D02B
S11341209047F6E710B540F24844C1F20004237802
S113413073B9FFF7CBFF40F20003C0F200032BB1C9
S113414044F24840C0F20000AFF300800123237022
S113415010BD00BF08B540F20003C0F200034BB12C
S113416044F2484040F24C41C0F20000C1F2000168
S1134170AFF3008040F24840C1F2000003682BB165
S113418040F20003C0F2000303B19847BDE80840C1
S1134190B0E700BF014600200246034600F048B8DD
S11341A038B544F26C4444F26845C0F20005C0F2EC
S11341B00004641BA41018BF05EB840505D0013C62
S11341C055F8043D9847002CF9D1BDE8384000F07B
S11341D045B900BF70B544F2544644F25445C0F2A8
S11341E00005C0F20006761BB6101CBF043D002477
S11341F005D0013455F8043F9847A642F9D144F25A
S11342005C4644F25445C0F20005C0F20006761B39
S113421000F01AF9B6101CBF043D002406D0013486
S113422055F8043F9847A642F9D170BD70BD00BF50
S1134230F0B544F24444C0F20004266885B0D6F8D0
S113424048410746002C43D065681F2D21DD40F20C
S11342500004C0F200041CB94FF0FF3005B0F0BDFB
S11342604FF4C870039102920193AFF30080039955
S11342700446029A019B0028EED0D6F8485100204B
S1134280256060600546C6F84841C4F88801C4F852
S11342908C013FB96B1C00200235636044F8251083
S11342A005B0F0BD0126AE4004EB8500C0F88820BF
S11342B0D4F88821022F42EA0602C4F88821C0F803
S11342C0083102BFD4F88C311E43C4F88C61E1E795
S11342D006F5A674C6F84841B6E700BF40F20003ED
S11342E0C0F200032BB144F2A110C0F20000FFF7AA
S11342F051BF704708B500F089F8094B02264FF406
S1134300807510241E6001201D601C6000F04EF8B2
S1134310044B01201E601D601C6000F047F8ECE7B0
S113432038C009203CC0092008B500230C4A0D49B7
S11343309818884204D20C49595899500433F5E727
S11343400A4B0B4A934203D2002243F8042BF8E7AA
S1134350FFF740FF074B084A1A60FFF7CBFFFEE761
S113436020000010480400107044000048040010AD
S11343706C04001008ED00E000400000FEE70000BF
S1134380830803EBD00303EB901303EBD01303EB8D
S11343909023054A03EBD02050605368013B5360DF
S11343A0002BFAD1704700BF64040010014B58433E
S11343B0FFF7E6BF40420F00104A0023136053602A
S11343C09360D3601361D361536293620C4A1360A8
S11343D0136213641366C2F880300A4A1360536090
S11343E09360D3601361D3615362074A136013620D
S11343F013641366C2F88030704700BF00C00240E7
S113440000C0092040C0024014C0092008B5FFF7CD
S1134410D3FF0A4A00234CF212711360116240F276
S1134420B11111644FF040511366C2F8801053610A
S1134430536353655367C2F8943008BD00C0092024
S11344404300000020000010F8B500BFF8BC08BC11
S11344509E467047DD42000055410000F8B500BF9C
S1134460F8BC08BC9E4670472541000000000000CF
S1134470000000000C03001074030010DC030010A3
S11344800000000000000000000000000000000028
S11344900000000000000000000000000000000018
S11344A00000000040440000000000000000000084
S11344B000000000000000000000000000000000F8
S11344C000000000000000000000000000000000E8
S11344D000000000000000000000000000000000D8
S11344E000000000000000000000000000000000C8
S11344F000000000000000000000000000000000B8
S113450000000000000000000000000000000000A7
S11345100000000000000000010000000000000096
S11345200E33CDAB34126DE6ECDE05000B0000005B
S11345300000000000000000000000000000000077
S11345400000000000000000000000000000000067
S11345500000000000000000000000000000000057
S11345600000000000000000000000000000000047
S903432990
